:100000000C94B2020C94CF020C94CF020C94CF0249
:100010000C94CF020C94CF020C94CF020C94CF021C
:100020000C94CF020C94CF020C94CF020C94CF020C
:100030000C94CF020C94CF020C94CF020C94CF02FC
:100040000C94CF020C94CF020C94CF020C94CF02EC
:100050000C94CF020C94CF020C94CF020C94CF02DC
:100060000C94CF020C94CF0200000000003E5B4FC6
:100070005B3E3E6B4F6B3E1C3E7C3E1C183C7E3C08
:10008000181C577D571C1C5E7F5E1C00183C180016
:10009000FFE7C3E7FF0018241800FFE7DBE7FF30A6
:1000A000483A060E2629792926407F050507407F14
:1000B00005253F5A3CE73C5A7F3E1C1C08081C1C87
:1000C0003E7F14227F22145F5F005F5F06097F017D
:1000D0007F006689956A606060606094A2FFA29468
:1000E00008047E040810207E201008082A1C080836
:1000F0001C2A08081E101010100C1E0C1E0C303884
:100100003E3830060E3E0E06000000000000005F84
:1001100000000007000700147F147F14242A7F2AA0
:100120001223130864623649562050000807030062
:10013000001C2241000041221C002A1C7F1C2A08AE
:10014000083E080800807030000808080808000011
:1001500060600020100804023E5149453E00427F85
:10016000400072494949462141494D331814127FD4
:100170001027454545393C4A494931412111090774
:100180003649494936464949291E000014000000F5
:1001900040340000000814224114141414140041C7
:1001A00022140802015909063E415D594E7C121184
:1001B000127C7F494949363E414141227F414141BC
:1001C0003E7F494949417F090909013E4141517337
:1001D0007F0808087F00417F41002040413F017FA8
:1001E000081422417F404040407F021C027F7F0470
:1001F00008107F3E4141413E7F090909063E4151B9
:10020000215E7F09192946264949493203017F01A8
:10021000033F4040403F1F2040201F3F4038403FA9
:10022000631408146303047804036159494D4300BF
:100230007F4141410204081020004141417F0402F6
:10024000010204404040404000030708002054548D
:1002500078407F284444383844444428384444286B
:100260007F385454541800087E090218A4A49C78BE
:100270007F0804047800447D40002040403D007F1A
:100280001028440000417F40007C047804787C08FA
:100290000404783844444438FC18242418182424CE
:1002A00018FC7C08040408485454542404043F44B3
:1002B000243C4040207C1C2040201C3C4030403CE2
:1002C00044281028444C9090907C4464544C440042
:1002D00008364100000077000000413608000201A6
:1002E0000204023C2623263C1EA1A161123A404092
:1002F000207A38545455592155557941225454780F
:1003000042215554784020545579400C1E527212A7
:100310003955555559395454545939555454580030
:1003200000457C410002457D420001457C407D1234
:1003300011127DF0282528F07C5455450020545496
:100340007C547C0A097F4932494949323A44444441
:100350003A324A4848303A4141217A3A424020787C
:10036000009DA0A07D3D4242423D3D4040403D3C7D
:1003700024FF2424487E4943662B2FFC2F2BFF09A2
:1003800029F620C0887E0903205454794100004496
:100390007D413048484A32384040227A007A0A0A81
:1003A000727D0D19317D2629292F282629292926F4
:1003B00030484D4020380808080808080808382F39
:1003C00010C8ACBA2F102834FA00007B00000814C3
:1003D0002A142222142A1408AA005500AAAA55AAEF
:1003E00055AA000000FF00101010FF00141414FFA5
:1003F000001010FF00FF1010F010F0141414FC0097
:100400001414F700FF0000FF00FF1414F404FC14A0
:100410001417101F10101F101F1414141F00101099
:1004200010F0000000001F101010101F101010100E
:10043000F010000000FF101010101010101010FF2E
:1004400010000000FF140000FF00FF00001F101745
:100450000000FC04F414141710171414F404F4002E
:1004600000FF00F714141414141414F700F71414F4
:1004700014171410101F101F141414F4141010F07B
:1004800010F000001F101F0000001F14000000FCEF
:10049000140000F010F01010FF10FF141414FF14DB
:1004A0001010101F00000000F010FFFFFFFFFFF012
:1004B000F0F0F0F0FFFFFF0000000000FFFF0F0F63
:1004C0000F0F0F3844443844FC4A4A4A347E020233
:1004D0000606027E027E0263554941633844443C6D
:1004E00004407E201E2006027E020299A5E7A599FF
:1004F0001C2A492A1C4C7201724C304A4D4D303036
:1005000048784830BC625A463D3E494949007E0120
:1005100001017E2A2A2A2A2A44445F444440514A3F
:10052000444040444A51400000FF0103E080FF0086
:100530000008086B6B083612362436060F090F06C2
:10054000000018180000001010003040FF010100EA
:100550001F01011E00191D1712003C3C3C3C00000D
:100560000000000011241FBECFEFD8E0DEBFCDBFDA
:1005700011E0A0E0B1E0EAE9F1E102C005900D92DE
:10058000AE3FB107D9F722E0AEEFB1E001C01D9256
:10059000A530B207E1F70E948C040C94CB080C94B0
:1005A00000002F923F924F925F926F927F928F92B4
:1005B0009F92AF92BF92CF92DF92EF92FF920F93F2
:1005C0001F93CF93DF93CDB7DEB72A970FB6F8947A
:1005D000DEBF0FBECDBF5B013A8329831C830B8333
:1005E00020910601309107018217930708F07EC021
:1005F00020910401309105016217730708F076C05D
:100600009C0156E0E59E200D311D112412161306A3
:100610000CF06CC0EE2DF0E0FE83ED839B01F8E062
:10062000EF9E200D311D1124121613060CF05EC032
:100630009A8789871C01F12C78E6C72E70E0D72EA7
:10064000C81AD90A25E0429FC00CD11C112435E0FC
:10065000F31631F0E985FA85EC0DFD1D549001C0CB
:10066000512C2F8238864501350168E0462E50FE18
:1006700009C051E0E51203C049815A810EC00981C9
:100680001A8113C08B819C81E981FA818E179F07A3
:10069000A9F0F1E0EF1207C0AC01B40189859A8599
:1006A0000E9425070BC00B811C812E2D30E04E2DA2
:1006B00050E0B3018F8198850E94800756944A9438
:1006C0002D813E81620E731E3FEF831A930A411003
:1006D000CECFF3948D819E81280E391EE985FA854F
:1006E0003196FA87E987F6E0FF12B1CF2A960FB666
:1006F000F894DEBF0FBECDBFDF91CF911F910F9158
:10070000FF90EF90DF90CF90BF90AF909F908F9031
:100710007F906F905F904F903F902F900895EF9251
:100720000F931F938A3061F420910301809101029D
:100730009091020238E0239F800D911D112447C043
:100740008D3009F44CC000910101109102012091FB
:100750000302309104026091010270910202E09064
:100760000301482F8091FE019091FF010E94D10268
:1007700020910301422F50E08091FE019091FF01F2
:1007800036E0239F800D911D11249093FF018093EB
:10079000FE0120910001222311F16AEF6403900110
:1007A000659F300D11246091060170910701260F9D
:1007B000371F2817390798F4E3E0440F551FEA95CF
:1007C000E1F78091010290910202840F951F9093AE
:1007D0000202809301021092FF011092FE011F910C
:1007E0000F91EF900895CF93DF93EC0102C00E9428
:1007F0008F0389918111FBCFDF91CF910895CF9322
:10080000DF93CDB7DEB760970FB6F894DEBF0FBEAB
:10081000CDBF4AE050E0BE016F5F7F4F0E949A0853
:100820000E94F30360960FB6F894DEBF0FBECDBFF3
:10083000DF91CF9108959093FF018093FE01709313
:100840000202609301020895811101C081E080934A
:100850000301089590930201809301019093040293
:1008600080930302089580E090E00E946A0760E0B0
:1008700070E080E090E00E941B048FEF9FEF0E94E9
:100880002A0481E00E94240488E091E00E94F3039E
:1008900080EE9FEF0E942A0482E00E94240487E3F6
:1008A00091E00E94F30380E098EF0E942A0483E025
:1008B0000E94240489E491E00E94F3038AE00E94EC
:1008C0008F0380EE97E00E942A0484E00E942404B3
:1008D0008BE591E00E94F30381E00E94240485E00F
:1008E00090E00E94FF038CE20E948F0386E00E944A
:1008F0008F038AE00E948F0387E691E00E94F30352
:1009000088E991E00E94F30385EB91E00E94F303F4
:1009100088ED91E00C94F3030E9496040E94F50781
:1009200083E00E940D070E943304FFCF439A419A4F
:10093000409A58988FE39FE10197F1F700C00000BB
:10094000589A439842988BB183708BB985B18C7F4C
:1009500085B94198419A83E04198419A8150E1F7E5
:10096000439A08950F931F93DC0143984298209176
:100970000002223009F40DC0211109C02BB12370EF
:100980002BB925B12C7F25B94198419A09C0233054
:1009900039F42BB123702C622BB925B12C7F07C001
:1009A0002BB1237020622BB925B12C7F226025B991
:1009B0004198419A429A2BB1E92FEC7F23702E2B5C
:1009C0002BB925B193702C7F292B25B94198419AD9
:1009D0002BB1F82FFC7F23702F2B2BB925B18370FF
:1009E0002C7F282B25B94198419A8A019B010150FF
:1009F000110921093109B901A80126E07695679509
:100A0000579547952A95D1F7BA17C1F060E070E085
:100A10007DC060E14198419A4198419A4198419A3C
:100A20004198419A4198419A4198419A4198419AF6
:100A30004198419A615071F7019602C080E090E0C0
:100A40004817590731F70F7380E090E005C04198CF
:100A5000419A4198419A01960813F9CF439A77C079
:100A6000B0E1ABB1A370AE2BABB9A5B1AC7FA92BF4
:100A7000A5B94198419AABB1A370AF2BABB9A5B161
:100A8000AC7FA82BA5B94198419AABB1A370AE2B0E
:100A9000ABB9A5B1AC7FA92BA5B94198419AABB12F
:100AA000A370AF2BABB9A5B1AC7FA82BA5B941986A
:100AB000419AABB1A370AE2BABB9A5B1AC7FA92B5A
:100AC000A5B94198419AABB1A370AF2BABB9A5B111
:100AD000AC7FA82BA5B94198419AABB1A370AE2BBE
:100AE000ABB9A5B1AC7FA92BA5B94198419AABB1DF
:100AF000A370AF2BABB9A5B1AC7FA82BA5B941981A
:100B0000419AB15009F0ADCF6F5F7F4F461757073D
:100B100009F0A6CF0F7320E030E016C04BB1437050
:100B20004E2B4BB945B14C7F492B45B94198419A61
:100B30004BB143704F2B4BB945B14C7F482B45B956
:100B40004198419A2F5F3F4F0213E8CF87CF1F9103
:100B50000F9108958AB18C6F8AB984B1836084B98A
:100B6000089542982BB1982F9C7F2370922B9BB9AC
:100B700095B183709C7F892B85B94198419A429A9F
:100B80009BB1862F8C7F9370892B8BB985B1637055
:100B90008C7F682B65B94198419A0895292F332796
:100BA00042985BB1422F4C7F5370452B4BB945B1F6
:100BB000237033274C7F422B45B94198419A3BB172
:100BC000282F2C7F3370232B2BB925B183709927C5
:100BD0002C7F282B25B94198419A872F9927429A33
:100BE0003BB1282F2C7F3370232B2BB925B1837079
:100BF00099272C7F282B25B94198419A9BB1862FA4
:100C00008C7F9370892B8BB985B1637077278C7F2C
:100C1000862B85B94198419A0895252F332742980C
:100C20007BB1982F9C7F7370972B9BB995B1837084
:100C30009C7F892B85B94198419A429A9BB1822F1A
:100C40008C7F9370892B8BB985B1237033278C7F70
:100C5000822B85B94198419A42989BB1862F8C7F0F
:100C60009370892B8BB985B163708C7F682B65B9C4
:100C70004198419A429A9BB1842F8C7F9370892B23
:100C80008BB985B1437055278C7F842B85B94198EA
:100C9000419A089543984FE351E065E084E00E9453
:100CA0000D064FEE50E069E088E00E940D06439A81
:100CB00008950F931F93439842982BB1982F9C7FD0
:100CC0002370922B9BB995B183709C7F892B85B93A
:100CD0004198419A429A85E38A95F1F70000EBB179
:100CE000872F9927AA27BB278C019D010C7F1127ED
:100CF00022273327E370E02BEBB925B183709927C6
:100D0000AA27BB272C7F282B25B94198419A85E338
:100D10008A95F1F70000EBB1CB01AA27BB278C0124
:100D20009D010C7F112722273327E370E02BEBB9BD
:100D300025B183709927AA27BB272C7F282B25B99B
:100D40004198419A85E38A95F1F70000EBB1BB2702
:100D5000A72F962F852F8C019D010C7F112722270D
:100D60003327E370E02BEBB925B183709927AA27CD
:100D7000BB272C7F282B25B94198419A85E38A957A
:100D8000F1F700002BB1DB01CA018C7F9927AA275C
:100D9000BB272370282B2BB985B1437055276627B5
:100DA00077278C7F842B85B94198419A439A1F916C
:100DB0000F9108950F931F93CF93DF938B01E90158
:100DC0004398AA2797FDA095BA2FDC019927882779
:100DD000662757FD6095762F482B592B6A2B7B2B66
:100DE0008AE20E945906C801AA2797FDA095BA2F4A
:100DF000DC0199278827AE01662757FD6095762F7D
:100E0000482B592B6A2B7B2B8BE20E945906439A65
:100E1000DF91CF911F910F9108954398843030F462
:100E2000E82FF0E0E650FE4F608102C060E070E025
:100E300086E30E94B1052FEE30E04FE351E060E021
:100E400070E080E090E00C94DA06CF93DF93EA0143
:100E500097FD3DC077FD3BC0803421E09207BCF593
:100E6000603F7105A4F543982FEE30E04FE351E069
:100E70000E94DA06439842988BB183708C628BB9DA
:100E800085B18C7F85B94198419A429A4BB18D2F9B
:100E900099279C012C7F33274370422B4BB925B1F6
:100EA000837099272C7F282B25B94198419A2BB123
:100EB000CE018C7F99272370282B2BB985B1C37065
:100EC000DD278C7F8C2B85B94198419A439ADF911D
:100ED000CF910895CF93DF93EC012FEE30E04FE3F5
:100EE00051E060E070E080E090E00E94DA0640E0CF
:100EF0005CE261E070E0CE01DF91CF910C94B2042E
:100F0000EF92FF920F931F93CF93DF93EA01790142
:100F10001C161D060CF062C0121613060CF05EC003
:100F2000803421E092070CF059C0603F71050CF04D
:100F300055C0DC01A40FB51FAD014150510957FD4B
:100F40004DC0FB01EE0DFF1D9F012150310937FD02
:100F500045C097FF03C0ED0180E090E077FF03C03C
:100F60007F0160E070E04034E1E05E0734F0C0E40F
:100F7000D1E0C81BD90B4FE351E0203F31053CF0D5
:100F8000E0EFEE2EF12CE61AF70A2FEE30E00E9489
:100F9000DA069701DE010E946B08AB01BC01C801B3
:100FA0000E94B20480910002811110C02FEE30E047
:100FB0004FE351E060E070E080E090E0DF91CF919E
:100FC0001F910F91FF90EF900C94DA06DF91CF9173
:100FD0001F910F91FF90EF900C944A06DF91CF91F3
:100FE0001F910F91FF90EF90089587B18F6087B99F
:100FF00088B18F6088B9509A589A0E94AA050E94B9
:1010000096042FEF83EC99E0215080409040E1F767
:1010100000C0000082E080930002439860E081E01D
:101020000E94B1052FEF80E792E021508040904070
:10103000E1F700C0000060E088E20E94B10563E2D1
:1010400080EC0E94B10560E181EC0E94B1056BE289
:101050007BE285EC90E00E94CE0560EC87EC0E947C
:10106000B10568E886E30E94B10565E58AE30E9460
:10107000B1056BE170E081EB90E00E94CE0567E086
:1010800087EB0E94B10560E081E20E94B10560E05B
:1010900081E10E94B1052FEF82E597E02150804069
:1010A0009040E1F700C0000060E089E20E94B105D5
:1010B0002FEF89E698E1215080409040E1F700C091
:1010C00000002FE331E04FEE50E060E070E080E0A0
:1010D00090E00C94DA060E947308332312F48A1B02
:1010E0009B0B0C948108A29FB001B39FC001A39FEA
:1010F00001D0B29F700D811D1124911D08950E9491
:101100007308B7FF0895821B930B0895AA1BBB1B9E
:1011100051E107C0AA1FBB1FA617B70710F0A61BF7
:10112000B70B881F991F5A95A9F780959095BC0118
:10113000CD010895FB019F01E8944230C4F045328F
:10114000B4F44A3029F497FB1EF4909581959F4F93
:10115000642F77270E948608805D8A330CF0895DB2
:101160008193CB010097A1F716F45DE251931082B1
:10117000C9010C94BB08DC01FC01672F7191772336
:10118000E1F7329704C07C916D9370836291AE1742
:0A119000BF07C8F30895F894FFCFDD
:10119A0001FFFF01F00040014A616B697374616DE0
:1011AA002074656B737420626172647A6F206D615A
:1011BA006C6120637A63696F6E6B6120726F7A6DFE
:1011CA0069617220310A00637A63696F6E6B61200C
:1011DA006E756D657220320A00437A63696F6E6BB1
:1011EA0061206E756D657220330A00637A63696FD8
:1011FA006E6B6120340A002D2D2D2D2D2D2D2D2DB8
:10120A002D2D2D2D2D2D2D2D2D2D2D2D2D2D2D2D04
:10121A002D2D2D2D2D2D2D2D2D2D2D2D2D2D2D2DF4
:10122A002D2D2D2D2D2D0A006031323334353637D0
:10123A003839302D3D207E21402324255E262A2858
:10124A00295F2B0A0071776572747975696F705B13
:10125A005D6173646667686A6B6C3B277A7863764C
:10126A00626E6D2C2E2F0A0051574552545955491A
:10127A004F507B7D7C4153444647484A4B4C3A5A2F
:0E128A00584356424E4D3C3E3F0088E84828EF
:00000001FF
