S0140000414E445F4445424F554E43452E7372656399
S11300000C942A000C9447000C9447000C9447006D
S11300100C9447000C9447000C9447000C94470040
S11300200C9447000C9447000C9411030C94470063
S11300300C9447000C9447000C9447000C94470020
S11300400C9447000C9447000C9447000C94470010
S11300500C94470011241FBECFE5D8E0DEBFCDBF0E
S113006010E0A0E6B0E0E8E1FCE002C005900D92EB
S1130070A03CB107D9F720E0A0ECB0E001C01D928C
S1130080A93DB207E1F70E94DD020C940A060C9424
S1130090000008950E94BD029091C000992319F0B8
S11300A091509093C000811112C08091C1008230A0
S11300B059F4E091C200F0E0EE0FFF1FE753FF4F49
S11300C00190F081E02D09951092C100089590915E
S11300D0C100911109C091E09093C10095E0909303
S11300E0C0008093C2000895913091F49091C200B1
S11300F098130BC08091C000811143C082E08093AB
S1130100C10082E38093C00008951092C100089555
S11301109230D9F4E091C200E81314C08091C00079
S113012081112FC083E08093C1008FE08093C000D1
S1130130F0E0EE0FFF1FEF52FF4F0190F081E02D32
S1130140099508951092C10008959330D1F4E09177
S1130150C200E81314C08091C000811112C083E072
S11301608093C1008FE08093C000F0E0EE0FFF1F8A
S1130170EF52FF4F0190F081E02D09950895109200
S1130180C100089589E490E09093D2008093D10057
S11301909093CA008093C9009093D4008093D300B5
S11301A09093CC008093CB009093D6008093D5009D
S11301B09093CE008093CD009093D8008093D70085
S11301C09093D0008093CF00089580FF02C0AC9A32
S11301D001C0AC9881FF02C0AD9A01C0AD9882FF06
S11301E002C0AE9A01C0AE9883FF02C0AF9A0895D0
S11301F0AF980895CF93C82FAB9A82958F700E94C1
S1130200E500AB98AB9A8C2F0E94E500AB9887EC85
S113021090E00197F1F700C00000CF910895AA98EB
S11302200E94FA000895AA9A0E94FA000895CF93B2
S1130230DF93EC018881882331F021960E94130119
S113024089918111FBCFDF91CF91089590E4699F4B
S1130250800D112480680E940F010895CF93A49A01
S1130260A59AA69AA79AA39AA29A8FE59AEE0197BD
S1130270F1F700C00000AA98AB98C3E0AB9A83E002
S11302800E94E500AB988FE19EE40197F1F700C06E
S11302900000C15099F7AB9A82E00E94E500AB9848
S11302A08FE99FE00197F1F700C0000088E20E9407
S11302B00F0188E00E940F0181E00E940F018FE38B
S11302C09FE10197F1F700C0000086E00E940F0152
S11302D08CE00E940F01CF9108950F931F93CF9349
S11302E0DF93CDB7DEB761970FB6F894DEBF0FBECC
S11302F0CDBF8091C8008F5F8093C80061E080E02B
S11303000E9426018091C8001F928F9380E690E09E
S11303109F938F938E010F5F1F4F1F930F930E9424
S11303203503C8010E9417010F900F900F900F9092
S11303300F900F9061960FB6F894DEBF0FBECDBF3D
S1130340DF91CF911F910F9108950F931F93CF9336
S1130350DF93CDB7DEB761970FB6F894DEBF0FBE5B
S1130360CDBF8091C7008F5F8093C70061E080E0BC
S11303700E9426018091C7001F928F938DE690E022
S11303809F938F938E010F5F1F4F1F930F930E94B4
S11303903503C8010E9417010F900F900F900F9022
S11303A00F900F9061960FB6F894DEBF0FBECDBFCD
S11303B0DF91CF911F910F9108950F931F93CF93C6
S11303C0DF93CDB7DEB761970FB6F894DEBF0FBEEB
S11303D0CDBF8091C6008F5F8093C60061E080E04E
S11303E00E9426018091C6001F928F938AE790E0B5
S11303F09F938F938E010F5F1F4F1F930F930E9444
S11304003503C8010E9417010F900F900F900F90B1
S11304100F900F9061960FB6F894DEBF0FBECDBF5C
S1130420DF91CF911F910F9108950F931F93CF9355
S1130430DF93CDB7DEB761970FB6F894DEBF0FBE7A
S1130440CDBF8091C5008F5F8093C50061E080E0DF
S11304500E9426018091C5001F928F9387E890E047
S11304609F938F938E010F5F1F4F1F930F930E94D3
S11304703503C8010E9417010F900F900F900F9041
S11304800F900F9061960FB6F894DEBF0FBECDBFEC
S1130490DF91CF911F910F9108950F931F93CF93E5
S11304A0DF93CDB7DEB761970FB6F894DEBF0FBE0A
S11304B0CDBF8091C4008F5F8093C40061E080E071
S11304C00E9426018091C4001F928F9384E990E0DA
S11304D09F938F938E010F5F1F4F1F930F930E9463
S11304E03503C8010E9417010F900F900F900F90D1
S11304F00F900F9061960FB6F894DEBF0FBECDBF7C
S1130500DF91CF911F910F9108950F931F93CF9374
S1130510DF93CDB7DEB761970FB6F894DEBF0FBE99
S1130520CDBF8091C3008F5F8093C30061E080E002
S11305300E9426018091C3001F928F9381EA90E06C
S11305409F938F938E010F5F1F4F1F930F930E94F2
S11305503503C8010E9417010F900F900F900F9060
S11305600F900F9061960FB6F894DEBF0FBECDBF0B
S1130570DF91CF911F910F910895859B06C0869BB3
S113058006C0879906C083E0089581E0089582E05B
S1130590089580E0089581B38F7181BB82B3806E2A
S11305A082BB83B7886083BF8CE98CBF83B78560C7
S11305B083BF89B7826089BF08950E94C2000E94E8
S11305C0CB020E942E01789460E080E00E94260114
S11305D08EEA90E00E94170185E892E09093CC00A7
S11305E08093CB008DE492E09093D4008093D30069
S11305F085E192E09093CE008093CD008DED91E063
S11306009093D6008093D50085EA91E09093D00032
S11306108093CF008DE691E09093D8008093D7002B
S1130620FFCF1F920F920FB60F9211242F933F9377
S11306304F935F936F937F938F939F93AF93BF93E6
S1130640EF93FF930E944A00FF91EF91BF91AF9106
S11306509F918F917F916F915F914F913F912F91D6
S11306600F900FBE0F901F901895AEE0B0E0EBE333
S1130670F3E00C94E1050D891E8986E08C831A83CE
S113068009838FEF9FE79E838D83CE014996AC014A
S11306906F89788DCE0101960E945703EF81F8850A
S11306A0E00FF11F10822E96E4E00C94FD05ACE0FF
S11306B0B0E0EDE5F3E00C94D3057C016B018A0115
S11306C0FC0117821682838181FFC6C1882483942A
S11306D0912C8C0E9D1EF7019381F60193FD85915B
S11306E093FF81916F01882309F4B2C1853239F4F3
S11306F093FD859193FF81916F01853229F4B701B0
S113070090E00E944905E7CF512C312C20E02032A3
S1130710A8F48B3261F028F4803251F0833271F402
S11307200BC08D3239F0803349F4216028C0226037
S1130730246025C0286023C0206121C027FD27C074
S1130740382F30533A3078F426FF06C0FAE05F9E23
S1130750300D1124532E13C08AE0389E300D11241D
S1130760332E20620CC08E3221F426FD71C1206428
S113077006C08C3611F4206802C0883641F4F601B4
S113078093FD859193FF81916F018111C0CF982FC3
S11307909554933018F09052933028F40C5F1F4F07
S11307A0FFE3F9830DC0833631F0833771F083356D
S11307B009F05EC023C0F801808189830E5F1F4F5A
S11307C044244394512C540115C03801F2E06F0EB7
S11307D0711CF801A080B18026FF03C0652D70E074
S11307E002C06FEF7FEFC5012C870E943E052C01EC
S11307F083012C856FE7262E222218C03801F2E0EF
S11308006F0E711CF801A080B18026FF03C0652D16
S113081070E002C06FEF7FEFC5012C870E943305A3
S11308202C012C8550E8252E222A830123FC1CC090
S113083006C0B70180E290E00E9449053A94832DF6
S113084090E048165906A8F30FC0F50127FC8591DE
S113085027FE81915F01B70190E00E9449053110A4
S11308603A94F1E04F1A51084114510471F7EDC064
S1130870843611F0893641F5F80127FF07C06081FD
S11308807181828193810C5F1F4F08C060817181E7
S1130890882777FD8095982F0E5F1F4F4FE6B42E63
S11308A0B22297FF09C090958095709561957F4F0E
S11308B08F4F9F4FF0E8BF2A2AE030E0A4010E9446
S11308C07505A82EA81843C0853731F43FEEB32E22
S11308D0B2222AE030E024C099EFB92EB2228F363A
S11308E0B9F020F4883509F0B3C00DC0803721F089
S11308F0883709F0ADC002C020E1B22AB4FE0BC0B3
S113090084E0B82A08C024FF09C0E6E0BE2A06C075
S113091028E030E005C020E130E002C020E132E010
S1130920F801B7FE07C060817181828193810C5FF9
S11309301F4F06C06081718180E090E00E5F1F4F01
S1130940A4010E947505A82EA818FFE7BF22B6FED1
S11309500BC02B2D2E7FA51450F4B4FE0AC0B2FC9C
S113096008C02B2D2E7E05C07A2C2B2D03C07A2C8B
S113097001C0752C24FF0DC0FE01EA0DF11D80811C
S1130980803311F4297E09C022FF06C07394739446
S113099004C0822F867809F0739423FD14C020FFCD
S11309A00FC05A2C731460F4530C5718732C08C0DE
S11309B0B70180E290E02C870E94490573942C854E
S11309C07314B0F304C0731410F4371801C0312C3D
S11309D024FF12C0B70180E390E02C870E944905F0
S11309E02C8522FF1EC021FF03C088E590E002C0D1
S11309F088E790E0B7010CC0822F867891F021FD42
S1130A0002C080E201C08BE227FD8DE2B70190E0D5
S1130A100E94490506C0B70180E390E00E944905A1
S1130A205A94A514C0F3AA94F401EA0DF11DB70178
S1130A30808190E00E944905A110F5CF06C0B7015E
S1130A4080E290E00E9449053A943110F8CF43CEF9
S1130A50F7012681378102C02FEF3FEFC9012C96A1
S1130A60E2E10C94EF05FC01059061507040011027
S1130A70D8F7809590958E0F9F1F0895FC016150C3
S1130A80704001900110D8F7809590958E0F9F1FAC
S1130A9008950F931F93CF93DF938C01EB018B8108
S1130AA081FD03C00FEF1FEF1AC082FF0DC02E811E
S1130AB03F818C819D812817390764F4E881F9818D
S1130AC00193F983E88306C0E885F985802F0995A9
S1130AD0892B41F78E819F8101969F838E83C80164
S1130AE0DF91CF911F910F910895FA01AA27283021
S1130AF051F1203181F1E8946F936E7F6E5F7F4FE7
S1130B008F4F9F4FAF4FB1E03ED0B4E03CD0670F62
S1130B10781F891F9A1FA11D680F791F8A1F911DB5
S1130B20A11D6A0F711D811D911DA11D20D009F405
S1130B3068943F912AE0269F11243019305D319347
S1130B40DEF6CF010895462F4770405D4193B3E030
S1130B500FD0C9F7F6CF462F4F70405D4A3318F0D7
S1130B60495D31FD4052419302D0A9F7EACFB4E088
S1130B70A6959795879577956795BA95C9F7009740
S1130B806105710508959B01AC010A2E06945795E1
S1130B90479537952795BA95C9F7620F731F841F38
S1130BA0951FA01D08952F923F924F925F926F92CE
S1130BB07F928F929F92AF92BF92CF92DF92EF92E9
S1130BC0FF920F931F93CF93DF93CDB7DEB7CA1B6A
S1130BD0DB0B0FB6F894DEBF0FBECDBF09942A8895
S1130BE0398848885F846E847D848C849B84AA843D
S1130BF0B984C884DF80EE80FD800C811B81AA81CA
S1130C00B981CE0FD11D0FB6F894DEBF0FBECDBF94
S10B0C10ED010895F894FFCFF3
S1130C18486F6C642033203A2530336400436C6990
S1130C28636B20333A2530336400486F6C64203298
S1130C38203A2530336400436C69636B20323A25CB
S1130C4830336400486F6C642031203A25303364B3
S1130C5800436C69636B20313A25303364002020EB
S1130C684465626F756E63652064656D6F2000006E
S9030000FC
