:100000000C9448010C9465010C9465010C946501F5
:100010000C9419170C9465010C9465010C946501FE
:100020000C9465010C9465010C9465010C946501B8
:100030000C9465010C94701C0C94A11C0C9465012B
:100040000C9465010C9465010C9465010C94650198
:100050000C946501456E642070726F6772616D0D5E
:100060000A0046696C6520436C6F7365640D0A0075
:1000700046696C6520436C6F7365204552524F5240
:100080000D0A002575206279746573207772697492
:1000900074656E0D0A0046696C6520577269746557
:1000A000204552524F520D0A000D0A0054797065D6
:1000B000207465787420746F2077726974653A20B3
:1000C0000046696C65204F70656E656420666F72CE
:1000D0002077726974696E670D0A0046696C652045
:1000E000436C6F7365204552524F520D0A004361B5
:1000F0006E6E6F7420617070656E642064617461EF
:100100000D0A0046696C65204F70656E20666F723F
:100110002077726974696E67204552524F520D0AFA
:100120000046696C65204F70656E20666F7220779F
:10013000726974696E67204552524F520D0A000D64
:100140000A00436C6561722066696C653F2028591E
:100150002F4E293A2000456E642070726F677261DD
:100160006D0D0A000D0A005361766520736F6D6591
:100170007468696E673F2028592F4E293A2000463F
:10018000696C6520436C6F7365640D0A0046696C89
:100190006520436C6F7365204552524F520D0A0023
:1001A00046696C652052656164204552524F520D7C
:1001B0000A000D0A00257520627974657320726546
:1001C00061643A200046696C652053442E7478744B
:1001D000206F70656E656420666F72207265616461
:1001E000696E670D0A0046696C65204F70656E2068
:1001F000666F722072656164696E67204552524F66
:10020000520D0A0046696C652073797374656D2020
:10021000464154667320696E697469616C697A65D8
:10022000640D0A0046696C652053797374656D200E
:100230004552524F520D0A005344206361726420AC
:10024000696E697469616C697A65640D0A0053446A
:100250002063617264204552524F520D0A000D0A0C
:100260000D0A534420726561642F777269746520AA
:1002700064656D6F20666F7220416E642D546563F6
:10028000682045764220626F617264730D0A000037
:1002900011241FBECFE5D8E0DEBFCDBF10E0A0E641
:1002A000B0E0E2E6FAE302C005900D92AC3AB10785
:1002B000D9F714E0ACEAB0E001C01D92A03DB1074F
:1002C000E1F70E94C7150C942F1D0C9400008A3092
:1002D00019F48DE001D08AE0FF93EF93E091AC0038
:1002E000F091AD00309709F00995EF91FF910895D5
:1002F000FC018591803011F0EADFFBCF0895FF27E4
:10030000E0E230E247FF0CC0419597FF09C0EDE203
:100310006095709580959095611D711D811D911D51
:1003200027FF02C0219530E350E2AA27660F771F0E
:10033000881F991FAA1FA41710F0A41B63955A9534
:10034000A9F7AA3008F0A95FA05DAF93F3956115F6
:1003500071058105910541F7ED3211F4EF93F395A5
:10036000F21718F43F93F395FBCF8F91B0DFFA9516
:10037000E1F70895E991F9918591803021F0853276
:1003800019F0A5DFF9CF089520E0E8945591553292
:10039000C1F3503311F4689455915A3348F45053D3
:1003A00090F3220F022E220F220F200D250FF4CFE3
:1003B0000EF4219589919991533619F3533729F108
:1003C000533559F1BC0188279927E8945C3621F40C
:1003D0008991999168945591543639F446EF7EF09D
:1003E00077FF0DC08FEF9FEF0AC055374AE039F015
:1003F000583540E121F0523642E009F00895FF936C
:10040000EF937DDFEF91FF91B7CFFF93EF93FC0167
:1004100081918030B9F35BDFFBCFFF93EF9368DF0F
:10042000F1CFDF93CF93CDB7DEB72596A3DFCF9182
:10043000DF9108950B01DC01ED91FD912227332717
:1004400044275527E8949AE001C0319660816032D4
:10045000E1F3A8F16D3211F46894F7CF6A3378F5BF
:10046000603368F171F498E031966081613248F14F
:10047000623611F492E003C0683719F490E13196C6
:1004800060816132F0F0613608F060526053B8F07C
:100490006A3018F067506A3090F0691780F481E292
:1004A000771B08F4790F76955795479537952795DB
:1004B0008A95B9F7260F381F481F581FE0CF80E0F4
:1004C00001C081E04EF46627209530954095509507
:1004D000261F361F461F561FFE93EE93D0012D9305
:1004E0003D934D935D93112408950F931F93CF93E4
:1004F000DF938C01EB01BA0120E030E00EC0F8017F
:10050000E20FF31FDE01A20FB31F8D919C91918327
:100510008083425050402E5F3F4F4230510578F764
:10052000CB018E7FDE01A80FB91FF801E80FF91F7C
:1005300060FF02C08C918083DF91CF911F910F915A
:100540000895CF93DF93EB01823010F08BE017C05A
:10055000A82FB0E0FD01EE0FFF1FE255FF4F019005
:10056000F081E02D309709F01082209709F0188271
:10057000AA0FBB1FA255BF4FCD93DC9380E0DF9144
:10058000CF9108958F929F92AF92BF92CF92DF92B8
:10059000EF92FF920F93CF93DF93EC018C8188232E
:1005A00009F445C0CAA8DBA8ECA8FDA826E3822E62
:1005B000912C8C0E9D1E8981B401A701960101E04A
:1005C0000E948219882311F081E032C01C822EA182
:1005D0003FA148A559A5C216D306E406F50638F191
:1005E0008E8D9F8DA8A1B9A1280F391F4A1F5B1FAF
:1005F000C216D306E406F506D0F48B81A82EBB24E0
:1006000012C08E8D9F8DA8A1B9A1C80ED91EEA1E59
:10061000FB1E8981B401A701960101E00E948219A5
:100620000894A108B10882E0A816B10450F780E050
:10063000DF91CF910F91FF90EF90DF90CF90BF901F
:10064000AF909F908F900895FC010097D1F0A0810A
:10065000B1811097B1F08C91882399F016962D9165
:100660003C911797828193812817390751F411968D
:100670008C910E94231980FD02C080E0089583E0E0
:10068000089589E008950F93CF93DF93EC019A01C9
:10069000AB01BC016A5C7F4F898101E00E942A198D
:1006A000882311F023E029C0CC5CDD4F888199813B
:1006B000C453D24085559A4A11F022E01EC0C45955
:1006C000DF4F88819981AA81BB81CC56D040B07020
:1006D00086549144A445B04011F420E00EC020E0BF
:1006E000C857DF4F88819981AA81BB81B070865439
:1006F0009144A445B04009F021E0822FDF91CF91D1
:100700000F9108952F923F924F925F926F927F9236
:100710008F929F92AF92BF92CF92DF92EF92FF9211
:100720000F931F93DF93CF93CDB7DEB72A970FB602
:10073000F894DEBF0FBECDBFFC019B01F42EA0815B
:10074000B1818C91082F10E0005310400A30110540
:1007500048F411968C9111978A3321F41296B18343
:10076000A08304C08091B400082F10E0D9011D922D
:100770001C920230110510F08BE06CC2F801EE0FF4
:10078000FF1FE255FF4F408151815A874987452B12
:1007900011F48CE05FC2E985FA85D901ED93FC93F1
:1007A0008081882359F081810E94231980FD06C031
:1007B000FF2009F44CC282FD48C249C2A985BA850E
:1007C0001C9211960C93802F0E94571880FF02C034
:1007D00083E040C2FF2011F082FD37C289859A85EF
:1007E00040E050E060E070E00E944303813021F07F
:1007F00022243324210112C0E985FA85EC50FE4FF2
:100800008481882309F425C220843184428453845E
:1008100089859A85B201A1010E944303833011F4B6
:1008200081E018C2882309F014C2E985FA85EF5BDC
:10083000FF4F80819181E154F040FA87E987805031
:10084000924009F006C229853A85245B3F4FD901C1
:100850008D919C911197AC54B040BA87A9875C01E7
:10086000CC24DD24A114B104C104D10459F4A65A46
:10087000BF4FAD90BD90CD90DC901397AA55B0407E
:10088000BA87A987E985FA85A68EB78EC0A2D1A2BC
:10089000EA5BFF4F4081E654F040FA87E9874383E3
:1008A000842F8150823008F0D4C1ED5BFF4F20814E
:1008B000E354F040FA87E9872283222309F4C9C16F
:1008C00030E0C901019782239323892B09F0C1C12C
:1008D000E95BFF4F80809180E754F040FA87E98719
:1008E00091868086C4018F709070892B09F0B1C108
:1008F000E75BFF4F80819181E954F040FA87E987F7
:100900007C0100E010E0E114F1040105110551F44F
:10091000EA5AFF4FE080F18002811381E655F040F2
:10092000FA87E98729853A852C5B3F4FD9016D907D
:100930007C901197A454B040BA87A98761147104C0
:1009400009F487C1242F30E040E050E0C601B50132
:100950000E94DA1C69837A838B839C83930140E035
:1009600050E02D833E834F835887E4E0969487942C
:10097000EA95E1F75401CC24DD24A20EB31EC41E77
:10098000D51EA60EB71EC81ED91EEA14FB040C0500
:100990001D0508F45EC1EA18FB080C091D09A985AC
:1009A000BA8512962C9130E040E050E0C801B701C2
:1009B0000E940D1DC901DA010097A105B10509F4D6
:1009C00048C1863FEFE09E07E0E0AE07E0E0BE07EB
:1009D00018F4992493940DC0863FFFEF9F07F0E031
:1009E000AF07F0E0BF0718F043E0942E02C032E0FA
:1009F000932E22E0E22EF12C012D112DE80EF91E8E
:100A00000A1F1B1FA985BA855A96ED92FD920D9378
:100A10001C935D97FD0122A233A244A255A28D81B1
:100A20009E81AF81B885820D931DA41DB51D86A33F
:100A300097A3A0A7B1A7A20CB31CC41CD51CA6A643
:100A4000B7A6C0AAD1AA20853185F3E09F16F1F49C
:100A5000232B09F0FEC029853A852E593F4FF90115
:100A600080819181A281B381E256F040FA87E987C3
:100A700082A793A7A4A7B5A7A8019701F2E0220F28
:100A8000331F441F551FFA95D1F733C0232B09F4A8
:100A9000E0C029813A814B815C81820F931FA41FA2
:100AA000B51FE985FA8582A793A7A4A7B5A7D801A2
:100AB000C701880F991FAA1FBB1FF2E09F1619F4E8
:100AC0009C01AD0116C09C01AD012E0D3F1D401FC4
:100AD000511F569547953795279581E090E0A0E006
:100AE000B0E0E822F9220A231B232E0D3F1D401FF0
:100AF000511F21503E4F4F4F5F4F69E0569547952C
:100B0000379527956A95D1F7E985FA85868D978D72
:100B1000A0A1B1A182179307A407B50708F499C053
:100B20008FEF9FEFAFEFBFEF86879787A08BB18BDB
:100B30001286138614861586B3E09B1609F065C0ED
:100B40001582EA59FF4F20813181E656F040FA873D
:100B5000E98740E050E0220D331D441D551D228BD6
:100B6000338B448B558BBF016A5C7F4F818101E0E1
:100B70000E942A19882309F048C0E985FA85EC5CAF
:100B8000FD4F80819181E453F240FA87E9878555D2
:100B90009A4A09F03AC0E985FA8586A997A9A0ADD5
:100BA000B1AD82559245A146B14479F529853A8582
:100BB000265E3D4FF90180819181A281B381EA5186
:100BC000F240FA87E98782579247A144B146E9F497
:100BD00029853A852E5D3D4FF90180819181A28161
:100BE000B381E252F24082879387A487B587E25EA1
:100BF000FD4F80819181A281B381EE51F240FA874D
:100C0000E98786879787A08BB18BA985BA859C9247
:100C10008091B2009091B30001969093B3008093BD
:100C2000B20017969C938E931697E985FA8512AABF
:100C300013AA14AA15AA1482A985BA8556961D92DC
:100C40001D921D921C92599702C08AE003C080E059
:100C500001C08DE02A960FB6F894DEBF0FBECDBF5F
:100C6000CF91DF911F910F91FF90EF90DF90CF9088
:100C7000BF90AF909F908F907F906F905F904F90BC
:100C80003F902F900895CF92DF92EF92FF920F93B3
:100C9000CF93DF93EC016A017B018AA99BA9ACA9E0
:100CA000BDA9481759076A077B0711F480E016C0F1
:100CB000CE010E94C202882381F4BE016A5C7F4F8C
:100CC0008981A701960101E00E942A19882329F44D
:100CD000CAAADBAAECAAFDAA01C081E0DF91CF91EC
:100CE0000F91FF90EF90DF90CF9008950F931F9397
:100CF000CF93DF93EC010E942403982F882309F0FF
:100D0000A1C08C8185FF9EC04A8D5B8D6C8D7D8DD1
:100D1000888199810E944306982F882309F092C008
:100D20000E8D1F8DF8018385806283878A859B8560
:100D3000AC85BD85848F958FA68FB78F8E859F8557
:100D4000A889B989938F828FCD01AA27BB27958B5C
:100D5000848B0E949015F801668B778B808F918F22
:100D6000138A128A8C818F7D8C83E881F98181E0DE
:100D700084830990D881C02DCE010E94C202982F91
:100D8000882309F05FC08881833009F052C08D81CB
:100D9000882309F44EC01AAA1BAA1CAA1DAABE01C8
:100DA0006A5C7F4FFB0180E092E001C011920197E5
:100DB0002FEF8F3F9207D1F7CC5CDD4F85E59AEAA4
:100DC00099838883C453D24082E592E5A1E6B1E4D9
:100DD0008EAB9FABA8AFB9AFC65EDD4F82E792E79F
:100DE000A1E4B1E688839983AA83BB83CA51D24028
:100DF0008E859F85A889B989C25EDD4F88839983D6
:100E0000AA83BB83CE51D2408A859B85AC85BD85A4
:100E1000CE5DDD4F88839983AA83BB83C252D240C3
:100E20002A893B894C895D89898101E00E94821968
:100E30001D82898160E040E050E00E94F21981113A
:100E400081E0982F892FDF91CF911F910F91089505
:100E5000CF93DF93EC010E947606882311F4198268
:100E60001882DF91CF9108958F929F92AF92BF9297
:100E7000CF92DF92EF92FF920F931F93CF93DF9366
:100E8000EC016A017B0148015901423051056105BD
:100E9000710508F4D1C08A8D9B8DAC8DBD8D48172E
:100EA00059076A077B0708F0C7C08881823009F4B8
:100EB00070C0833009F48CC0813011F022E0B9C0D9
:100EC0008A0116950795040F151FA801452F552770
:100ED000469560E070E08EA19FA1A8A5B9A5480F36
:100EE000591F6A1F7B1FCE010E944306282F8823AB
:100EF00009F09FC0D801B17091E0E92EF12CEC20EF
:100F0000FD20E114F10451F0FE01EA0FFB1F86A958
:100F10008F70982D9295907F982B01C0982DAC0FD3
:100F2000BD1FD6969C930F5F1F4F81E08C83A80155
:100F3000452F5527469560E070E08EA19FA1A8A59A
:100F4000B9A5480F591F6A1F7B1FCE010E94430697
:100F5000282F882309F06DC0A8015170EF2849F0AF
:100F600014E0B694A794979487941A95D1F7682DB6
:100F70000BC0FE01E40FF51F66A9607FBB27AB2DF8
:100F80009A2D892D8F70682B4C0F5D1FFA0166AB6F
:100F900050C0452F562F672F77278EA19FA1A8A558
:100FA000B9A5480F591F6A1F7B1FCE010E94430637
:100FB000282F882309F03DC0CC0CDD1CEE1CFF1C43
:100FC000F601F170F696EC0FFD1F9182808231C020
:100FD000E7E07695679557954795EA95D1F78EA105
:100FE0009FA1A8A5B9A5480F591F6A1F7B1FCE0155
:100FF0000E944306282F8823E1F432E0CC0CDD1C4C
:10100000EE1CFF1C3A95D1F7F601F170F696EC0F45
:10101000FD1F80819181A281B38180709070A0704A
:10102000B07F88299929AA29BB2980839183A2832B
:10103000B38381E08C8301C022E0822FDF91CF91C6
:101040001F910F91FF90EF90DF90CF90BF90AF90E6
:101050009F908F900895BF92CF92DF92EF92FF9270
:101060000F931F93CF93DF936C017A018B01423072
:1010700051056105710508F4ACC0F601828D938DB0
:10108000A48DB58D481759076A077B0708F0A1C0E2
:101090008081823009F457C0833009F474C08130F4
:1010A00009F09CC0EA01D695C795C40FD51FAE01C3
:1010B000452F5527469560E070E0F60186A197A17F
:1010C000A0A5B1A5480F591F6A1F7B1FC6010E942A
:1010D0004306882309F082C0FE01F170EC0DFD1D6E
:1010E000B6A82196AE01452F5527469560E070E0E1
:1010F000F60186A197A1A0A5B1A5480F591F6A1FA7
:101100007B1FC6010E944306882309F067C06B2D30
:1011100070E0D170CC0DDD1D9EA980E0682B792B8D
:10112000C70181709070892B39F0B4E0769567958E
:10113000BA95E1F79B0124C09B0140E050E03F706D
:10114000407050704FC0452F562F672F7727F601FC
:1011500086A197A1A0A5B1A5480F591F6A1F7B1FA3
:10116000C6010E9443068823C9F5EE0CFF1C001F30
:10117000111FF701F170EC0DFD1D86A997A99C01C7
:1011800040E050E02FC0E7E076956795579547958A
:10119000EA95D1F7F60186A197A1A0A5B1A5480FC0
:1011A000591F6A1F7B1FC6010E9443068823B1F4A2
:1011B00042E0EE0CFF1C001F111F4A95D1F7F7010A
:1011C000F170EC0DFD1D26A937A940AD51AD5F7042
:1011D00009C021E030E040E050E004C02FEF3FEFD5
:1011E0004FEF5FEFB901CA01DF91CF911F910F91CE
:1011F000FF90EF90DF90CF90BF9008954F925F9255
:101200006F927F928F929F92AF92BF92CF92DF9216
:10121000EF92FF920F931F93CF93DF93EC012A017C
:101220003B01411551056105710599F48A849B8440
:10123000AC84BD8481149104A104B10409F18A8DA8
:101240009B8DAC8DBD8D88169906AA06BB06C0F491
:101250001CC00E942B089B01AC0162307105810506
:10126000910508F48AC08A8D9B8DAC8DBD8D2817A1
:1012700039074A075B0708F48EC05301420105C0D5
:1012800041E0842E912CA12CB12C750164010894AD
:10129000C11CD11CE11CF11C8A8D9B8DAC8DBD8DB8
:1012A000C816D906EA06FB0660F022E08216910411
:1012B000A104B10408F46BC032E0C32ED12CE12CA0
:1012C000F12CCE01B701A6010E942B089B01AC01B5
:1012D0006115710581059105A9F02F3F8FEF380742
:1012E0008FEF48078FEF580709F455C021303105BB
:1012F0004105510509F44FC0C814D904EA04FB04A0
:1013000031F645C0BC2CAD2C9E2C8F2CCE01A601F5
:10131000B7010FEF1FEF2FEF3FE00E943407882344
:1013200051F5411451046104710449F0CE01B30137
:10133000A201860197010E9434078823E1F4BA864E
:10134000AB869C868D868E859F85A889B9898F3FBF
:101350002FEF92072FEFA2072FEFB20749F0019767
:10136000A109B1098E879F87A88BB98B81E08D83F6
:10137000A701960110C0813029F021E030E040E063
:1013800050E009C02FEF3FEF4FEF5FEF04C020E0C8
:1013900030E040E050E0B901CA01DF91CF911F91E8
:1013A0000F91FF90EF90DF90CF90BF90AF909F9004
:1013B0008F907F906F905F904F9008952F923F9203
:1013C0004F925F926F927F928F929F92AF92BF9255
:1013D000CF92DF92EF92FF920F931F93DF93CF9301
:1013E00000D000D00F92CDB7DEB79D838C837A01F9
:1013F0008B010E9424038983882309F0ADC1AC814D
:10140000BD8114968C9187FD64C1EC81FD8162845D
:101410007384848495846E147F048006910610F48E
:1014200081FF02C037014801AC81BD811696ED9065
:10143000FD900D911C911997FD011682178210865F
:101440001186611471048104910409F452C18081F0
:1014500091819B838A83DC0112968C91A82EBB24F8
:10146000CC24DD24F9E0AA0CBB1CCC1CDD1CFA95B5
:10147000D1F7E114F10401051105C1F117012801AB
:1014800008942108310841085108C401B301615092
:10149000704080409040A60195010E940D1D790189
:1014A0008A01C201B101A60195010E940D1DE2163B
:1014B000F30604071507D0F088279927DC018A195D
:1014C0009B09AC09BD0982219321A421B521EC819E
:1014D000FD8186839783A087B187681A790A8A0A73
:1014E0009B0A42895389648975893EC0AC81BD815C
:1014F0001E964D915D916D917C91519741155105CD
:101500006105710549F58A819B8140E050E060E00A
:1015100070E00E94FE08AB01BC014130510561053D
:10152000710509F45CC04F3F8FEF58078FEF6807D4
:101530008FEF780759F4AC81BD8114968C91149784
:10154000806814968C93B1E0B98306C1EC81FD816B
:1015500046875787608B718BAC81BD8152964D93C6
:101560005D936D937C935597411551056105710508
:1015700009F056C0BEC0EC81FD818481208131819B
:1015800081FF0DC0C9010E94FE08AB01BC014115DD
:1015900051056105710541F43501460147C0C90196
:1015A0000E942B08AB01BC014F3FFFEF5F07FFEF2D
:1015B0006F07FFEF7F0709F4BECF42305105610589
:1015C000710568F0AC81BD81ED91FC91828D938DA8
:1015D000A48DB58D481759076A077B0740F0EC8149
:1015E000FD81848180688483F2E0F983B5C0AC8199
:1015F000BD8152964D935D936D937C935597FD01FC
:1016000086819781A085B1858A0D9B1DAC1DBD1D6E
:1016100086839783A087B1876A187B088C089D080A
:10162000A614B704C804D90408F4A5CFEC81FD8141
:1016300086819781A085B185860D971DA81DB91D4E
:1016400086839783A087B187D401C3019170A0706E
:10165000B0700097A105B10509F44BC0C080D180DE
:10166000EEEFEE2EEFEFFE2EEFEF0E2FEFEF1E2F31
:10167000E40EF51E061F171FF601828D938DA48DB3
:10168000B58D0297A109B109E816F9060A071B07EB
:10169000C0F4228130E040E050E0C801B7010E9470
:1016A000DA1C9B01AC01F60186A597A5A0A9B1A9FA
:1016B000280F391F4A1F5B1F2115310541055105B0
:1016C00051F4AC81BD8114968C9114978068149666
:1016D0008C93B2E039CF8401730169E016950795C8
:1016E000F794E7946A95D1F7E20EF31E041F151FD5
:1016F00003C0EE24FF248701EC81FD818681978160
:10170000A085B1859170A070B0700097A105B1055A
:1017100069F086899789A08DB18DE816F9060A07C8
:101720001B0721F0E68AF78A008F118FEC81FD817B
:10173000268137814085518582859385A485B5852D
:1017400082179307A407B50738F4228733874487A5
:10175000558784818062848389810F900F900F90D8
:101760000F900F90CF91DF911F910F91FF90EF900D
:10177000DF90CF90BF90AF909F908F907F906F90B1
:101780005F904F903F902F900895AF92BF92CF926D
:10179000DF92EF92FF920F931F93CF93DF935C0141
:1017A0006B01DC0115967C936E93149716964D9100
:1017B0005D916D917C9119974130510561057105DD
:1017C00009F4D3C0ED91FC91828D938DA48DB58DDC
:1017D000481759076A077B0708F0C7C0411551052C
:1017E0006105710581F58081833049F442A553A5D7
:1017F00064A575A5411551056105710521F5F50132
:1018000012861386148615860190F081E02D80855E
:101810009185C816D90608F0A8C0C60124E096959F
:1018200087952A95E1F7A0E0B0E022A533A544A56D
:1018300055A5820F931FA41FB51FF50186879787B3
:10184000A08BB18B7AC08281082F10E094E0000F4A
:10185000111F9A95E1F724C0CE010E942B08AB011D
:10186000BC014F3FFFEF5F07FFEF6F07FFEF7F0701
:1018700011F481E07BC0423051056105710508F427
:1018800074C0D501ED91FC91828D938DA48DB58DA1
:10189000481759076A077B0708F067C0C01AD10AC2
:1018A000F501C081D181C016D106B0F6D5011A96D6
:1018B0004D935D936D937C931D978EEFE82E8FEF84
:1018C000F82E8FEF082F8FEF182FE40EF51E061F4E
:1018D000171F8A8D9B8DAC8DBD8D0297A109B10913
:1018E000E816F9060A071B0728F020E030E040E080
:1018F00050E012C02A8130E040E050E0C801B7015A
:101900000E94DA1C9B01AC018EA59FA5A8A9B9A9CC
:10191000280F391F4A1F5B1FC601B4E096958795B3
:10192000BA95E1F7A0E0B0E0280F391F4A1F5B1F0E
:10193000F50126873787408B518BFFE0CF22DD24CE
:10194000A5E0CC0CDD1CAA95E1F786E390E0C80E7B
:10195000D91ED5018D919C9111978C0D9D1D53968B
:101960009C938E93529780E001C082E0DF91CF91EB
:101970001F910F91FF90EF90DF90CF90BF90AF90AD
:1019800008954F925F926F927F928F929F92AF9243
:10199000BF92CF92DF92EF92FF920F931F93CF935C
:1019A000DF93EC016B016C807D800894611C711CDD
:1019B0006114710409F444C18E859F85A889B98991
:1019C0000097A105B10509F43BC11FE0412E512C40
:1019D000462057204114510409F01FC10196A11D52
:1019E000B11D8E879F87A88BB98B4A855B856C85D7
:1019F0007D85E881F981411551056105710539F44D
:101A0000808591856816790608F407C119C182811D
:101A100090E001979301A4E036952795AA95E1F708
:101A200082239323892B09F0F8C0CF010E942B0851
:101A30007B018C01623071058105910508F402C1BA
:101A40008FEFE8168FEFF8068FEF08078FEF180774
:101A500009F4FAC0E881F981828D938DA48DB58D4A
:101A6000E816F9060A071B0708F49EC0CD2809F4FA
:101A7000E7C04A855B856C857D85CF010E94FE08A5
:101A80007B018C01611571058105910511F487E0D9
:101A9000DCC091E0E916F1040105110509F4D2C09A
:101AA000AFEFEA16AFEFFA06AFEF0A07AFEF1A078C
:101AB00009F4CAC0888199810E94C202882309F072
:101AC000C3C0E881F981F69680E092E001C01192EE
:101AD0000197BFEF8F3F9B07D1F7888099804EEF2A
:101AE000A42E4FEFB42E4FEFC42E4FEFD42EAE0CDA
:101AF000BF1CC01ED11EF401828D938DA48DB58DA7
:101B00000297A109B109A816B906CA06DB0628F092
:101B100020E030E040E050E015C0D40112962C9156
:101B200030E040E050E0C601B5010E94DA1C9B01A4
:101B3000AC01F40186A597A5A0A9B1A9280F391F6A
:101B40004A1F5B1FD401D2962D933D934D935C9316
:101B5000D597DD24CC24C39416C0C4828881998192
:101B60000E94C202882309F06FC0E881F98182A92E
:101B700093A9A4A9B5A90196A11DB11D82AB93ABF0
:101B8000A4ABB5ABD394E881F9818281D81628F350
:101B900082A993A9A4A9B5A98D199109A109B1098F
:101BA00082AB93ABA4ABB5ABEA86FB860C871D87F3
:101BB000C880D9808EEF9FEFAFEFBFEFE80EF91E20
:101BC0000A1F1B1FF601828D938DA48DB58D029780
:101BD000A109B109E816F9060A071B0728F020E059
:101BE00030E040E050E015C0D60112962C9130E074
:101BF00040E050E0C801B7010E94DA1C9B01AC0133
:101C0000F60186A597A5A0A9B1A9280F391F4A1FDB
:101C10005B1F2E873F87488B598B7D826C8235E016
:101C2000440C551C3A95E1F786E390E0480E591EA6
:101C300088819981840D951D9B8B8A8B80E005C0DE
:101C400084E003C082E001C081E0DF91CF911F9169
:101C50000F91FF90EF90DF90CF90BF90AF909F904B
:101C60008F907F906F905F904F9008952F923F924A
:101C70004F925F926F927F928F929F92AF92BF929C
:101C8000CF92DF92EF92FF920F931F93DF93CF9348
:101C900000D000D0CDB7DEB79C838B83162F072FE3
:101CA0003A013A832983D9011D921C920E94240390
:101CB000882E882309F0E9C1EB81FC81848187FDAE
:101CC0007EC081FD03C077E0872EDFC1AB81BC8180
:101CD0001A962D913D914D915C911D97C301A0E005
:101CE000B0E0820F931FA41FB51F82179307A407AC
:101CF000B50710F466247724812F902F9C011901D9
:101D0000442443949DC1EB81FC8126813781408529
:101D10005185DA01C9019170A070B0700097A105DA
:101D2000B10509F033C10190F081E02DDA01C9015C
:101D300069E0B695A795979587956A95D1F79280B2
:101D40009A94982209F04DC021153105410551059D
:101D5000D9F4AB81BC811E966D917D918D919C9142
:101D600051976115710581059105F9F4CF0140E0A6
:101D700050E060E070E00E94FE08EB81FC81668725
:101D80007787808B918B0BC0AB81BC8152964D9134
:101D90005D916D917C915597CF010E94FE08611570
:101DA00071058105910509F44FC161307105810507
:101DB000910541F4EB81FC8184818068848332E069
:101DC000832E63C16F3FFFEF7F07FFEF8F07FFEFAA
:101DD0009F0709F4C4C0EB81FC81628B738B848BF9
:101DE000958BAB81BC81ED91FC91119722A933A910
:101DF00044A955A95696ED90FD900D911C915997C7
:101E00002E153F054007510731F4CF010E94C20251
:101E1000882309F0CFC0AB81BC810D911C91119733
:101E200052962D913D914D915C91559722503040A5
:101E300040405040F801828D938DA48DB58D02975E
:101E4000A109B109281739074A075B07B8F452807E
:101E5000652D70E080E090E00E94DA1C9B01AC01EF
:101E6000F80186A597A5A0A9B1A9280F391F4A1F77
:101E70005B1F211531054105510549F4AB81BC813A
:101E800014968C911497806814968C9398CF69015E
:101E90007A01C90CD11CE11CF11C5301AB2CBB24F1
:101EA000A694A114B10409F446C0292D30E0C5015F
:101EB000820F931F652D70E06817790718F45B0196
:101EC000A21AB30AF8018181B101A70196010A2D76
:101ED0000E948219882309F042C0AB81BC81ED9138
:101EE000FC9122A933A944A955A92C193D094E09F1
:101EF0005F09C501A0E0B0E0281739074A075B0772
:101F0000A8F499E0220F331F441F551F9A95D1F76B
:101F1000B101620F731FCF01C69640E052E00E94EC
:101F20007502AB81BC81ED91FC9114828501102F6B
:101F30000027110F68C0EB81FC8126813781408525
:101F4000518582859385A485B585281739074A0769
:101F50005B07B0F0C8010E94C202882349F0AB8140
:101F6000BC8114968C911497806814968C9327C02A
:101F7000AB81BC81ED91FC91C2AAD3AAE4AAF5AAD7
:101F8000EB81FC81C68AD78AE08EF18EAB81BC8161
:101F90001696ED90FD900D911C91199756964D91C6
:101FA0005D916D917C9159978D919C910E94430612
:101FB000882341F0EB81FC818481806884838824BC
:101FC000839463C0C701917020E032E0281B390B75
:101FD00083012615370508F48901AB81BC8116966B
:101FE0002D913C91179731702A5C3F4F8D919C91B8
:101FF000820F931FB101A8010E947502AB81BC81C1
:10200000ED91FC914482200E311EC801A0E0B0E0A9
:10201000EB81FC812681378140855185280F391F4E
:102020004A1F5B1F2683378340875187E981FA81E6
:1020300080819181800F911F91838083601A710A42
:102040006114710409F05FCEAB81BC8116962D91AD
:102050003D914D915C9119971A968D919D910D909E
:10206000BC91A02D82179307A407B50730F4EB812C
:10207000FC812287338744875587AB81BC811496C6
:102080008C911497806214968C93882D0F900F90EA
:102090000F900F90CF91DF911F910F91FF90EF90D4
:1020A000DF90CF90BF90AF909F908F907F906F9078
:1020B0005F904F903F902F900895AF92BF92CF9234
:1020C000DF92EF92FF920F931F93CF93DF93EC0178
:1020D0007B01FB0180818F3211F08C3541F4089433
:1020E000E11CF11C1E821F82188619860AC0E88135
:1020F000F98186899789A08DB18D8E839F83A8876A
:10210000B987F7018081803268F4CE0160E070E029
:102110000E94C50B482F1B8A1A8A1FC10894E11C14
:10212000F11C04C0E0E2BE2E75E0A72EF70180810D
:102130008F32A1F38C3591F30C891D89F8018BE066
:1021400090E001C0B19201972FEF8F3F9207D1F736
:10215000F70180818E3241F060E070E0CC24DD2414
:10216000A8E0B0E030E021C0D80180E090E0F701C5
:10217000E80FF91FE0810196EE3231F483309105CA
:1021800009F4E8C0ED93F3CFEF3229F0EC3539F0E4
:10219000E13208F0DFC0E13210F424E201C020E2B5
:1021A000E80EF91EF8012387E4C0F701EC0DFD1DD0
:1021B00020810894C11CD11C2132D8F12F3209F49E
:1021C000E2C02C3509F4DFC02E3219F06A177B0704
:1021D00068F0189709F0BEC02E3209F0BBC0330F6B
:1021E000330F68E070E0ABE0B0E0DFCF27FDB2C0B6
:1021F000422F50E0E4E9F0E001C03196808188236D
:1022000029F090E084179507C1F7A4C0822F81546C
:102210008A3110F4326006C0822F81568A3110F460
:1022200031602052F801E60FF71F20836F5F7F4F68
:10223000BCCF44E0672B09F48DC0F8018081853E56
:1022400009F4A082189711F4330F330F232F30E0D5
:10225000C90183709070019709F440612C7030704F
:102260002430310509F44860EC0CFD1CF80143876B
:1022700080C04E855F8568897989888199810E94AF
:102280004306482F882321F5EA89FB89808188232A
:1022900011F444E01DC0838583FD14C0DF018C89E7
:1022A0009D899C01F9012BE030E0215030408FEFF7
:1022B0002F3F380769F09C918081981719F4119687
:1022C0003196F3CFCE0160E070E00E94C10C56C0A1
:1022D000EC89FD8983854423B1F04430F1F590E029
:1022E0009C012470307085FF0BC01E821F821886EF
:1022F00019861B8A1A8A232B09F418CF40E02DC0B7
:10230000232B51F12AC082FD28C0AA89BB891B96C4
:102310008C911B9784FF20C05A968D919C915B975E
:102320009C0140E050E0E881F9818081833069F4CC
:1023300054968D919C915597A0E0B0E0DC019927CF
:102340008827282B392B4A2B5B2B2E833F834887EA
:102350005987ECCE46E001C045E0842FDF91CF9154
:102360001F910F91FF90EF90DF90CF90BF90AF90B3
:102370000895CE0160E070E00E94C50B482F8823CD
:1023800009F477CFA5CF40E055CF2F923F924F92DF
:102390005F926F927F928F929F92AF92BF92CF92F5
:1023A000DF92EF92FF920F931F93DF93CF93CDB7FE
:1023B000DEB7AE970FB6F894DEBF0FBECDBF9EA7B7
:1023C0008DA77CA36BA3892B19F429E02AA7B2C19E
:1023D000ADA5BEA51D921C92B42FBF71B9A78E01E9
:1023E000035F1F4F4E71CE018396B8010E94820396
:1023F0008AA7882309F09EC1CE0101969AA389A3DA
:102400006BA17CA1C8010E945D10182FEF8DF8A16F
:10241000FCA7EBA7882319F4EF2B09F416E0F9A524
:102420002F2F30E0C9018C719070892B09F40FC1F6
:10243000112309F453C0143009F045C08DE0E82E93
:10244000F12CEC0EFD1EC70160E070E00E94C50B90
:10245000182F8823C1F5C701FE2C092F4B8D5C8DE9
:102460006D8D7E8D8D859E850E944306182F882355
:1024700051F5EF8DF8A1E081E53E09F495C1EE2319
:1024800009F492C18F2D902F61E070E00E94C10C81
:10249000182F882319F317C0EF8DF8A180E290E080
:1024A00001C0119201972FEF8F3F9207D1F769A1D9
:1024B0007AA18F8D98A14BE050E00E947502ED85C6
:1024C000FE8581E084838F8D98A19CA78BA7112323
:1024D00009F068C199A5986099A709C0ABA5BCA5EA
:1024E0001B968C91817109F05CC1F2FD3DC1B9A5CB
:1024F000B3FFBCC00E949015EBA5FCA5668777874B
:10250000808B918B1386ABA5BCA55C961D921D920A
:102510001D921C925F972D843E84FD017A965A96F7
:102520008D919C915B976C01EE24FF24D1018C91DD
:10253000833079F4ABA5BCA554968D919C915597A9
:10254000A0E0B0E0DC0199278827C82AD92AEA2A26
:10255000FB2A11821082EBA5FCA5158A148A81E062
:10256000D10114968C931497C114D104E104F104A1
:1025700009F47CC0D2968D919D910D90BC91A02DB7
:102580008DA39EA3AFA3B8A7B2E0CB16D104E104FC
:10259000F10408F404C1F101828D938DA48DB58DF1
:1025A000C816D906EA06FB0608F0F9C0460157012D
:1025B00042C0C101B501A4010E942B082B013C01BE
:1025C000611571058105910509F4D0C0613071056F
:1025D0008105910509F4E3C06F3F2FEF72072FEFDC
:1025E00082072FEF920709F4D8C0C101B501A401F9
:1025F00000E010E020E030E00E943407182F88232C
:1026000009F0D0C0F10186859785A089B1898F3FF7
:10261000FFEF9F07FFEFAF07FFEFBF0751F00196F6
:10262000A11DB11DF10186879787A08BB18B21E099
:10263000258353014201F101828D938DA48DB58DC7
:1026400088169906AA06BB0608F4B3CF8FC01123DB
:1026500009F0A8C0ABA5BCA51B968C9184FF02C055
:1026600014E0A0C0F1FF02C080FD9BC0B9A5B3FF7C
:1026700002C0B062B9A7ED85FE8522A933A944A99D
:1026800055A9ADA5BEA55A962D933D934D935C9348
:102690005D978BA59CA55F969C938E935E9799A55D
:1026A00014969C93ABA5BCA55A968D919C915B9773
:1026B0009C0140E050E08081833069F454968D9114
:1026C0009C915597A0E0B0E0DC0199278827282B42
:1026D000392B4A2B5B2BADA5BEA51E962D933D93A2
:1026E0004D935C935197ABA5BCA55C962D913D9104
:1026F0004D915C915F97ADA5BEA51A962D933D9324
:102700004D935C931D9716961D921D921D921C92DF
:10271000199756961D921D921D921C9259971196CB
:10272000FC93EE93ED85FE858681978113969C93AD
:102730008E9312978AA5AE960FB6F894DEBF0FBEA1
:10274000CDBFCF91DF911F910F91FF90EF90DF9060
:10275000CF90BF90AF909F908F907F906F905F9041
:102760004F903F902F90089518E01CC0ED85FE8596
:102770000894C108D108E108F108C286D386E4862E
:10278000F586CF014DA15EA16FA178A50E944306F9
:10279000182F882309F46ACF05C011E003C012E0A6
:1027A00001C017E01AA7C6CF4B8D5C8D6D8D7E8D55
:1027B0008D859E850E944306182F882309F46CCED0
:1027C00082CE3F924F925F926F927F928F929F92B2
:1027D000AF92BF92CF92DF92EF92FF920F931F932F
:1027E000DF93CF9300D000D0CDB7DEB79C838B832F
:1027F000162F072F3A013A832983D9011D921C9283
:102800000E942403882E882309F073C1EB81FC8188
:10281000848187FD68C080FD03C007E0802E69C108
:10282000AB81BC811A962D913D914D915C911D9784
:1028300016968D919D910D90BC91A02D281B390B62
:102840004A0B5B0BC301A0E0B0E0281739074A0729
:102850005B0708F43901812F902F9C01290145C1A4
:10286000EB81FC812681378140855185DA01C901E0
:102870009170A070B0700097A105B10509F0E1C09A
:102880000190F081E02DDA01C90119E0B695A79514
:10289000979587951A95D1F792809A949822A9F5E1
:1028A000211531054105510549F4AB81BC811E96C6
:1028B0006D917D918D919C9151970BC0AB81BC81A5
:1028C00052964D915D916D917C915597CF010E94EB
:1028D0002B08623071058105910540F4EB81FC8184
:1028E000848180688483E2E08E2E03C16F3FFFEF16
:1028F0007F07FFEF8F07FFEF9F0709F467C0EB81AA
:10290000FC81628B738B848B958BAB81BC810D9129
:102910001C91119752962D913D914D915C91559737
:102920002250304040405040F801828D938DA48D5C
:10293000B58D0297A109B109281739074A075B0726
:10294000B8F43280632D70E080E090E00E94DA1CE1
:102950009B01AC01F80186A597A5A0A9B1A9280FF4
:10296000391F4A1F5B1F211531054105510549F4E7
:10297000AB81BC8114968C911497806814968C93CB
:10298000B2CF69017A01C90CD11CE11CF11C5301C1
:10299000AB2CBB24A694A114B10409F44CC0292D7E
:1029A00030E0C501820F931F632D70E0681779072F
:1029B00018F45B01A21AB30AF8018181B201A701E0
:1029C00096010A2D0E942A19882349F0AB81BC8107
:1029D00014968C911497806814968C934BC0AB819D
:1029E000BC81ED91FC918481882301F122A933A956
:1029F00044A955A92C193D094E095F09C501A0E05C
:102A0000B0E0281739074A075B0780F469E0220F16
:102A1000331F441F551F6A95D1F7C201820F931FC0
:102A2000F696BF0140E052E00E9475028501102F2A
:102A30000027110F3DC0EB81FC81C68AD78AE08E4A
:102A4000F18EAB81BC811696ED90FD900D911C919D
:102A5000199756964D915D916D917C9159978D91F5
:102A60009C910E944306882341F0EB81FC81848184
:102A700080688483882483943CC0C701917020E0DF
:102A800032E0281B390B83012615370508F489012C
:102A9000AB81BC8116968D919C9117979170C696CB
:102AA0006D917C91680F791FC201A8010E94750287
:102AB000400E511EC801A0E0B0E0EB81FC812681F0
:102AC000378140855185280F391F4A1F5B1F268398
:102AD000378340875187E981FA8180819181800F16
:102AE000911F91838083601A710A6114710409F047
:102AF000B7CE882D0F900F900F900F90CF91DF9150
:102B00001F910F91FF90EF90DF90CF90BF90AF900B
:102B10009F908F907F906F905F904F903F9008951F
:102B20006BE370E489E59DE10895EF92FF920F93C6
:102B30001F93CF93DF937C018B01C0E0D0E0015065
:102B400010400E94251C8D30A9F0883031F4209768
:102B5000C1F321970E94491CF4CF803290F3C01733
:102B6000D1077CF7F701EC0FFD1F808321960E94AF
:102B70006701E7CFCE0DDF1D18828AE00E94491C55
:102B8000DF91CF911F910F91FF90EF9008951F93C8
:102B9000DF93CF9300D000D0CDB7DEB78FEF8BBBE4
:102BA00088BB85BB82BB8BE983BD8DE085BD89B7C2
:102BB000806889BF789460E875E280E090E00E94C8
:102BC000FF1B89E49CE19093AD008093AC008EE5FF
:102BD00092E00E94780180E00E945718882329F033
:102BE0008EE492E00E947801FFCF88E392E00E9499
:102BF000780180E064E471E00E94A102882329F05A
:102C000084E292E00E947801FFCF84E092E00E948B
:102C1000780180E993E063EA70E041E10E94C51128
:102C2000882329F086EE91E00E947801FFCF85ECA1
:102C300091E00E9478011A8219821C821B8280E92D
:102C400093E066EB73E04FEF50E09E012F5F3F4F44
:102C50000E94E113882309F500D000D085EB91E0B4
:102C6000EDB7FEB79283818389819A8194838383B0
:102C70000E94110210E00F900F900F900F9003C070
:102C80001F5F0E94491CE12FF0E0EA54FC4F808155
:102C90008823B1F782EB91E002C080EA91E00E94C4
:102CA000780180E993E00E942807882329F08DE8C5
:102CB00091E00E947801FFCF8FE791E00E947801B8
:102CC00087E691E00E94780186EB93E06FEF70E079
:102CD0000E94951584E691E00E9478018091B603E8
:102CE000893529F086E591E00E947801FFCF82E4E2
:102CF00091E00E94780186EB93E06FEF70E00E9414
:102D000095158FE391E00E9478018091B603893593
:102D100071F480E993E063EA70E04AE00E94C51133
:102D2000882389F181E291E00E947801FFCF80E958
:102D300093E063EA70E042E10E94C511882329F024
:102D400083E091E00E947801FFCF40919A03509177
:102D50009B0360919C0370919D0380E993E00E9426
:102D6000DE09882381F08EEE90E00E94780180E9F0
:102D700093E00E942807882329F08BED90E00E94C1
:102D80007801FFCFFFCF81EC90E00E9478018CEAC0
:102D900090E00E94780186EB93E06FEF70E00E9474
:102DA000951589EA90E00E947801E6EBF3E020E0D7
:102DB00030E08191922F632F2F5F3F4F8823C9F717
:102DC000492F562F99836A8380E993E066EB73E07D
:102DD0009E012D5F3F4F0E94360E882321F086E929
:102DE00090E00E94780100D000D083E890E0EDB739
:102DF000FEB79283818389819A81948383830E9421
:102E000011020F900F900F900F9080E993E00E94B5
:102E10002807882329F080E790E00E947801FFCFFF
:102E200082E690E00E94780184E590E00E947801BB
:102E3000FFCF1F920F920FB60F9211242F933F9343
:102E40004F935F936F937F938F939F93AF93BF93B2
:102E5000EF93FF938091B0039091B103019690930B
:102E6000B1038093B0030E94EB1BFF91EF91BF91E0
:102E7000AF919F918F917F916F915F914F913F9112
:102E80002F910F900FBE0F901F9018956AE070E081
:102E90000E94F91C6093B6002FEF2FB9779BFECFED
:102EA0009FB19F3F21F08091B6008823B1F720E0C9
:102EB00030E09F3F11F421E030E0C9010895C4984B
:102EC0008FEF8FB9779BFECF8FB184EF91E00E9497
:102ED0004617892B19F021E030E008C0C49A8FEF23
:102EE0008FB9779BFECF8FB120E030E0C901089504
:102EF000FC0184E18093B5009FEF9FB9779BFECFE3
:102F00008FB18F3F29F48091B5008823B1F71FC09E
:102F10008E3FE9F49FEF9FB9779BFECF8FB18083FF
:102F20009FB9779BFECF8FB181836250704011F0C3
:102F30003296F1CF8FEF8FB9779BFECF8FB18FEFA6
:102F40008FB9779BFECF8FB121E030E002C020E047
:102F500030E0C90108951F93CF93DF93EC01162F42
:102F600084EF91E00E944617892B19F420E030E0AD
:102F700030C01FB9779BFECF8FB11D3F19F421E000
:102F800030E027C020E032E088818FB9779BFECF08
:102F900089818FB9779BFECF2250304011F0229665
:102FA000F3CF8FEF8FB9779BFECF8FB18FEF8FB9B4
:102FB000779BFECF8FB18FEF8FB9779BFECF8FB10D
:102FC00090E08F71853009F091E081E09827292FFA
:102FD00030E0C901DF91CF911F910895DF92EF9208
:102FE000FF920F931F93D82E7A018B0187FF0CC09D
:102FF00087E340E050E060E070E00E94EE1782302E
:1030000008F04FC08FE7D822C49A8FEF8FB9779B13
:10301000FECF8FB10E945F17892B11F48FEF41C053
:103020008D2D80648FB9779BFECF8FB1812F99272B
:10303000AA27BB278FB9779BFECF8FB1C801AA27DC
:10304000BB278FB9779BFECF8FB1BB27A12F902FC6
:103050008F2D8FB9779BFECF8FB1EFB8779BFECFC7
:103060008FB1DD2011F485E906C088E0D81611F48F
:1030700087E801C081E08FB9779BFECF8FB18CE0EC
:10308000D81629F48FEF8FB9779BFECF8FB19AE0D6
:103090002FEF2FB9779BFECF8FB187FF02C09150E2
:1030A000C1F71F910F91FF90EF90DF900895EF927D
:1030B000FF920F931F93DF93CF9300D000D0CDB733
:1030C000DEB7882311F081E0B3C01DB88091AA005B
:1030D00081FDACC088B3806A88BB87B3806B87BB37
:1030E00092E59DB981E08EB99DB98AE09FEF9FB9C5
:1030F000779BFECF2FB18150D1F740E050E060E0E8
:1031000070E00E94EE17813009F07CC084E6809365
:10311000B50088E04AEA51E060E070E00E94EE17F6
:10312000813009F048C07E010894E11CF11C870140
:103130009FEF9E012B5F3F4F9FB9779BFECF8FB1D3
:10314000F80181938F01E217F307B1F78B8181308A
:1031500009F058C08C818A3A09F054C08091B500BA
:10316000882349F089EA40E050E060E070E40E9482
:10317000EE17882399F78091B500882309F442C09F
:103180008AE340E050E060E070E00E94EE178823A0
:10319000C9F59FEF9FB9779BFECF8FB1F701819360
:1031A0007F01E017F107B1F7898186FD02C014E0C5
:1031B0002AC01CE028C089EA40E050E060E070E0EE
:1031C0000E94EE17823018F001E011E002C009EA17
:1031D00012E08091B500882349F0802F40E050E054
:1031E00060E070E00E94EE17882399F78091B500A7
:1031F000882341F080E140E052E060E070E00E940E
:10320000EE17811110E01093B700C49A8FEF8FB9B9
:10321000779BFECF8FB1112341F08091AA008E7F62
:103220008093AA0080E58DB901C01DB88091AA00E5
:103230000F900F900F900F90CF91DF911F910F91F2
:10324000FF90EF900895882311F081E00895809118
:10325000AA0008950F93CF93DF93EB01882309F021
:103260004BC0002309F448C08091AA0080FF02C02F
:1032700003E043C08091B70083FD07C069E0220FDF
:10328000331F441F551F6A95D1F7013089F481E13E
:10329000BA01A9010E94EE17882321F5CE0160E052
:1032A00072E00E94781700E0892BE1F401E01AC077
:1032B00082E1BA01A9010E94EE17882399F4CE0198
:1032C00060E072E00E947817892B29F0015019F014
:1032D000C050DE4FF4CF8CE040E050E060E070E0A2
:1032E0000E94EE17C49A8FEF8FB9779BFECF8FB1F4
:1032F000002319F001E001C004E0802FDF91CF919D
:103300000F910895CF92DF92EF92FF920F93CF9398
:10331000DF93EB0169017A01882309F059C000238A
:1033200009F456C08091AA0080FF02C003E051C09A
:103330008091AA0082FF02C002E04BC08091B700DA
:1033400090E083FD07C079E0CC0CDD1CEE1CFF1C77
:103350007A95D1F7013069F488E1B701A6010E949E
:10336000EE17882359F5CE016EEF0E94AB1700E0EF
:1033700022C086709070892B39F0402F50E060E0B9
:1033800070E087E90E94EE1789E1B701A6010E946B
:10339000EE17882399F4CE016CEF0E94AB17892BAE
:1033A00029F0015019F0C050DE4FF5CF80E090E0D9
:1033B0006DEF0E94AB17892B09F401E0C49A8FEFDF
:1033C0008FB9779BFECF8FB1002319F001E001C0C8
:1033D00004E0802FDF91CF910F91FF90EF90DF906D
:1033E000CF900895CF92DF92EF92FF920F931F93A9
:1033F000DF93CF93CDB7DEB760970FB6F894DEBFFB
:103400000FBECDBF8A01882309F0D4C1653071F4A5
:10341000FA018081882321F0813009F0CBC102C0FC
:103420001DB802C0FA01818320E0C5C18091AA00C5
:1034300080FF02C023E0BFC16A3009F470C16B3065
:1034400050F46130C9F06130A0F0633009F484C0F9
:10345000643069F411C16C3009F468C16C3008F44F
:1034600063C16D3009F46FC16E3009F485C124E089
:103470009AC10E945F1793C189E040E050E060E08C
:1034800070E00E94EE17882309F08CC1CE010196EE
:1034900060E170E00E947817892B09F483C189816B
:1034A0008295869586958370288569857A85813091
:1034B00001F530E040E050E02F7330704070507004
:1034C000A901332722272F5F3F4F4F4F5F4F962F82
:1034D00080E0870F911DA0E0B0E0280F391F4A1F40
:1034E0005B1FFAE0220F331F441F551FFA95D1F7D7
:1034F0002DC0629566956695637030E0220F331F8C
:10350000220F331F260F311D2F5F3F4F8F8190E019
:1035100083709070982F8827990F990F280F391F63
:1035200040E050E08E818F706B85661F6627661FB6
:10353000860F8E5F7370770F870F90E0099704C036
:10354000220F331F441F551F8A95D2F7F80120839D
:1035500031834283538338C08091B700F82E82FFB5
:1035600035C08DE840E050E060E070E00E94EE176A
:10357000882309F017C18FEF8FB9779BFECF8FB1EA
:10358000CE01019660E170E00E947817892B09F462
:1035900009C180E39FEF9FB9779BFECF2FB1815088
:1035A000D1F72B8522952F7080E190E0A0E0B0E06C
:1035B00004C0880F991FAA1FBB1F2A95D2F7F801D4
:1035C00080839183A283B38320E0EDC089E040E053
:1035D00050E060E070E00E94EE17882309F0E2C03E
:1035E000CE01019660E170E00E947817892B09F402
:1035F000D9C04B858C85F1FE1BC0881F8827881F8A
:1036000090E00196242F30E02F733070220F331F8B
:10361000820F931F2E85229526952695237030E0E4
:103620002150304002C0880F991F2A95E2F721C02F
:10363000282F30E023703070B3E0220F331FBA958B
:10364000E1F7829586958770280F311D2F5F3F4FD8
:10365000842F90E08C7790709595879595958795B8
:103660000196AC01249FC001259F900D349F900DC1
:103670001124A0E0B0E0A3CF8091B700C82EDD24D4
:10368000C60186709070892B09F48CC080E06BE0D5
:10369000AE014F5F5F4F0E94F219882309F082C08C
:1036A0008981829586958695837019F48B8586FF2E
:1036B00079C0F8014081518162817381E480F58095
:1036C00006811781C3FC0EC0F9E0440F551F661F29
:1036D000771FFA95D1F7E9E0EE0CFF1C001F111FD0
:1036E000EA95D1F780E20E94EE17882309F05AC0CC
:1036F00081E2B801A7010E94EE17882309F052C0A9
:1037000086E240E050E060E070E00E94EE1788231F
:1037100009F048C080E395E70E94461740C08091B9
:10372000B700FA01808350CF89E001C08AE040E011
:1037300050E060E070E00E94EE17882399F5C80120
:1037400060E170E02AC08AE340E050E060E070E0B1
:103750000E94EE17882331F5F8019FEF98012D5F45
:103760003F4F9FB9779BFECF8FB18083E217F3075E
:1037700009F42ACF3196F5CF8DE840E050E060E0C3
:1037800070E00E94EE17882369F48FEF8FB9779B62
:10379000FECF8FB1C80160E470E00E94781720E08E
:1037A000892B09F421E0C49A8FEF8FB9779BFECF64
:1037B0008FB101C024E0822F60960FB6F894DEBF6F
:1037C0000FBECDBFCF91DF911F910F91FF90EF9072
:1037D000DF90CF9008958091B500882319F0815033
:1037E0008093B5008091B600882319F081508093B2
:1037F000B6008091AA00897F8093AA0008959B015A
:10380000AC011AB8919A899A8898909810920301FD
:1038100010920201E0E0F1E0118210821292129205
:103820001092BD001092BC00EAEBF0E01182108211
:103830001292129260E472E48FE090E00E940D1DFB
:10384000215029B988E98AB908958091020190919F
:103850000301892BD1F3409100015091010150E007
:10386000FA01E250FF4F8681F894209102013091D5
:1038700003012150304030930301209302017894DA
:103880004F5F5F4F4F7350705093010140930001A1
:103890000895482F8091BC009091BD00803491051F
:1038A000C8F72091B8003091B90030E0F901E85430
:1038B000FF4F4683F8948091BC009091BD00019623
:1038C0009093BD008093BC0088EB8AB978942F5FF9
:1038D0003F4F2F7330703093B9002093B800089594
:1038E0001F920F920FB60F9211242F938F939F93D5
:1038F000EF93FF932CB180910201909103018034EA
:10390000B0F48F5F90E09093030180930201809167
:10391000FE009091FF0090E0FC01E250FF4F2683F3
:1039200001968F7390709093FF008093FE00FF913B
:10393000EF919F918F912F910F900FBE0F901F903D
:1039400018951F920F920FB60F9211242F933F9349
:103950008F939F93EF93FF938091BC009091BD0054
:10396000382F8823D1F03150832F90E09093BD0001
:103970008093BC008091BA009091BB0090E0FC0164
:10398000E854FF4F26812CB901968F739070909365
:10399000BB008093BA00332311F488E98AB9FF9100
:1039A000EF919F918F913F912F910F900FBE0F90AC
:1039B0001F901895629FD001739FF001829FE00DC8
:1039C000F11D649FE00DF11D929FF00D839FF00D9E
:1039D000749FF00D659FF00D9927729FB00DE11D4A
:1039E000F91F639FB00DE11DF91FBD01CF01112427
:1039F0000895AA1BBB1B51E107C0AA1FBB1FA61736
:103A0000B70710F0A61BB70B881F991F5A95A9F787
:103A100080959095BC01CD010895A1E21A2EAA1BB4
:103A2000BB1BFD010DC0AA1FBB1FEE1FFF1FA2176E
:103A3000B307E407F50720F0A21BB30BE40BF50B6B
:103A4000661F771F881F991F1A9469F760957095F4
:103A5000809590959B01AC01BD01CF010895F8942C
:023A6000FFCF96
:103A6200EBFE904D53444F53352E30004E4F204EB7
:103A7200414D452020202046415433322020200051
:103A82004E4F204E414D45202020204641542020BB
:103A920020202000222A2B2C3A3B3C3D3E3F5B5DFE
:0C3AA2007C7F0053442E747874000100F7
:00000001FF
