:100000000C9438000C9455000C9455000C94550039
:100010000C9455000C9455000C9455000C9455000C
:100020000C9455000C9455000C9455000C945500FC
:100030000C9455000C947B010C943F010C945500DA
:100040000C9455000C9455000C9455000C945500DC
:100050000C9455001B5B324A001B5B3B48001B5B4A
:100060003F32356C001B5B3F323568001B5B6D0017
:1000700011241FBECFE5D8E0DEBFCDBF11E0A0E662
:10008000B0E0EEE7F6E002C005900D92A833B107AC
:10009000D9F711E0A8E3B1E001C01D92AF35B10777
:1000A000E1F70E94AA020C943D030C9400001F93F8
:1000B000182F8BE10E9413018BE50E94130184E34A
:1000C0000E941301812F805D0E9413018DE60E9422
:1000D00013011F9108951F93182F8BE10E941301A4
:1000E0008BE50E94130183E30E941301812F805D41
:1000F0000E9413018DE60E9413011F910895FF9243
:100100000F931F93182F062FF42E8BE10E941301DB
:100110008BE50E941301812F805D0E9413018BE308
:100120000E94130183E30E941301802F805D0E94CF
:1001300013018BE30E94130184E30E9413018F2DAE
:10014000805D0E9413018DE60E9413011F910F91A3
:10015000FF900895FF920F931F93F82E062F10E043
:1001600004C08F2D0E9413011F5F1017D0F31F9141
:100170000F91FF900895AF92BF92CF92DF92EF92CE
:10018000FF920F931F93E82EA62E8BE10E9413017E
:100190008BE50E941301FF2400E010E0C801B701C5
:1001A0004AE050E00E949C018BE30E941301BB24B3
:1001B000CC24DD24C601B5014AE050E00E949C0138
:1001C00088E40E9413011F910F91FF90EF90DF9040
:1001D000CF90BF90AF900895882319F08EE590E0FE
:1001E00002C085E690E00E94310108951F93182F08
:1001F0008CE690E00E943101812F0E94EC0084E5A2
:1002000090E00E94310189E590E00E9431011F9148
:10021000089590BD89B988E18AB986E880BD8AB120
:1002200088698AB90895282F909138019F5F91704D
:10023000809139019817E1F3E92FF0E0E65CFE4F79
:10024000208390933801559A0895CF93DF93EC0162
:1002500002C00E94130189918823D9F7DF91CF91C1
:100260000895CF93DF93EC0102C00E941301FE01B9
:10027000219684918823C9F7DF91CF9108951F9229
:100280000F920FB60F9211248F939F93EF93FF93CA
:100290009091380180913901981771F0809139015E
:1002A0008F5F817080933901E0913901F0E0E65C65
:1002B000FE4F80818CB901C05598FF91EF919F91BD
:1002C0008F910F900FBE0F901F90189590913C0149
:1002D00080913D01981711F480E0089580913D01CF
:1002E0008F5F8F7180933D01E0913D01F0E0E25C12
:1002F000FE4F808108951F920F920FB60F92112426
:100300008F939F93EF93FF939CB1E0913C01EF5F3C
:10031000EF7180913D01E81731F0E0933C01F0E08E
:10032000E25CFE4F9083FF91EF919F918F910F9030
:100330000FBE0F901F9018950F931F93DF93CF93CD
:10034000CDB7DEB761970FB6F894DEBF0FBECDBF55
:100350009A018E010F5F1F4FA8010E94D702C801AA
:100360000E94250161960FB6F894DEBF0FBECDBF87
:10037000CF91DF911F910F91089580E00E94F600C8
:1003800080E060E043E00E947F0082E065E00E9440
:10039000BB0080E690E00E94250180E066E040E03E
:1003A0000E947F0084E065E00E94BB0080E790E04F
:1003B0000E94250185E065E00E94BB0085E890E091
:1003C0000E94250186E065E00E94BB0086E990E07E
:1003D0000E94250180E067E040E00E947F0088E005
:1003E00065E00E94BB0089EA90E00E942501089523
:1003F000CF93DF9381E00E94F60080E067E040E069
:100400000E947F0082E065E00E94BB008FEB90E0DD
:100410000E94250183E065E00E94BB008DE265E15A
:100420000E94AA0085E065E00E94BB008DE265E1C4
:100430000E94AA00C4E1D1E080E063E040E00E94B5
:100440007F0084E067E00E94BB0083ED90E00E94A3
:10045000250184E061E10E94BB0081E061E044E0AD
:100460000E947F008CED90E00E94250160915E016A
:100470006F5F60935E01615070E080E090E04AE061
:1004800050E00E949C018CED90E00E94250180E0EC
:1004900063E040E00E947F008EED90E00E94250125
:1004A00088EE93E0FE013197F1F70197D9F70E94AA
:1004B0006601813709F0C0CF0E94BD01DF91CF9165
:1004C000089581E00E94F60080E067E040E00E942D
:1004D0007F0082E065E00E94BB0083EE90E00E9416
:1004E000250184E00E94570083E065E00E94BB0084
:1004F00080E265E10E94AA0085E065E00E94BB0001
:1005000080E265E10E94AA0080E063E040E00E9492
:100510007F0084E067E00E94BB0083ED90E00E94D2
:10052000250184E061E10E94BB0081E061E040E0E0
:100530000E947F0085EF90E00E94250180E063E04B
:1005400040E00E947F000E9466018137E1F70E942F
:10055000BD01089583E290E00E940901789480E053
:100560000E94F6008EEF90E00E94250180E197E264
:1005700024E131E0F9013197F1F70197D9F70E94B1
:10058000BD010E946601813319F40E946102F9CF16
:10059000823319F40E94F801F4CF833391F780E09D
:1005A0000E94F60081E191E00E942501FFCFFA014F
:1005B000CF93FF93EF93223044F1253234F5C22FCD
:1005C000E894CA3049F497FB3EF490958095709575
:1005D00061957F4F8F4F9F4F2C2F332744275527EF
:1005E000FF93EF930E941B03EF91FF91605D6A33CD
:1005F0000CF0695D6193B901CA01605070408040A0
:10060000904051F716F4CDE2C19310828F919F91E3
:10061000CF910C940B03DC01FC01672F71917723C0
:10062000E1F7329704C07C916D9370836291AE17AD
:10063000BF07C8F30895A1E21A2EAA1BBB1BFD0138
:100640000DC0AA1FBB1FEE1FFF1FA217B307E407B1
:10065000F50720F0A21BB30BE40BF50B661F771F09
:10066000881F991F1A9469F76095709580959095E9
:0E0670009B01AC01BD01CF010895F894FFCFAE
:10067E00202020204D2045204E20552020202000D7
:10068E00312E20706F6B61BF20776172746F9CE6A4
:10069E002041444300322E20706F6B61BF206C6985
:1006AE00637A6E696B00332E207A616B6FF1637A19
:1006BE002070726F6772616D007779626965727A08
:1006CE00206F70636AEA2028312D33293A200020EA
:1006DE004C69637A6E696B202D2041546D6567619C
:1006EE00333200576172746F9CE63A00200020206E
:1006FE002020002020204E617069EA636965204148
:10070E00444330200020322C3534205620002A2A33
:10071E002A2A2A2A207374617274202A2A2A2A2AE3
:10072E00007779B3B9637A2075727AB9647A656E97
:10073E006965206C7562206E6163699C6E696A20C2
:08074E00726573657420000060
:00000001FF
