:100000000C942A000C9447000C9447000C94470071
:100010000C9447000C9447000C9447000C94470044
:100020000C9447000C9447000C9447000C94470034
:100030000C9447000C9447000C9447000C94470024
:100040000C9447000C9447000C9447000C94470014
:100050000C94470011241FBECFE5D8E0DEBFCDBF12
:1000600010E0A0E6B0E0EAE9F1E002C005900D92F0
:10007000A639B107D9F720E0A6E9B0E001C01D928A
:10008000A839B207E1F70E9449000C94CB000C9408
:1000900000001092970081E090E01FC0F0E0E05A6D
:1000A000FF4F2081E22FE695E695E695F0E0EE0F12
:1000B000FF1FE058FF4F0190F081E02D4291277023
:1000C000BC0102C0660F771F2A95E2F7462B4083DA
:1000D000209197002F5F20939700E0919700E032E6
:1000E000E8F281E090E0109297004FC0F0E0E05A13
:1000F000FF4F2081E22FE695E695E695F0E0EE0FC2
:10010000FF1FE058FF4F0190F081E02D40812770E4
:10011000BC0102C0660F771F2A95E2F7462B408389
:100120007FEF21EE34E0715020403040E1F700C015
:100130000000E0919700F0E0E05AFF4F2081E22FAD
:10014000E695E695E695F0E0EE0FFF1FE058FF4FCD
:100150000190F081E02D40812770BC0102C0660F44
:10016000771F2A95E2F79B012095242320837FEFB8
:1001700020E732E0715020403040E1F700C000003D
:10018000209197002F5F20939700E0919700E03235
:0A01900008F0A9CFABCFF894FFCF21
:10019A00010102030405060708090A0B0C0D0E0FDC
:1001AA00101112131415161718191A1B1C1D1E1FCD
:1001BA003B0038003500320038003800380038007B
:0601CA0038003800380087
:00000001FF
