S016000072666D31325F7472616E736D69742E7372656395
S11300000C942A000C9447000C9447000C9447006D
S11300100C9447000C9447000C9447000C94470040
S11300200C9447000C9447000C9447000C94470030
S11300300C9447000C9491010C94B9010C94470062
S11300400C9447000C9447000C9447000C94470010
S11300500C94470011241FBECFE5D8E0DEBFCDBF0E
S113006010E0A0E6B0E0E8E0F4E002C005900D92F4
S1130070AC37B107D9F710E0ACE7B0E001C01D928E
S1130080A23EB107E1F70E9449000C9402020C94CD
S11300900000CF93DF930E94B70080E09EEF0E94A0
S11300A0C10084EC99E020E931E0F9013197F1F7DE
S11300B00197D9F780E895E20E945E01789480E682
S11300C090E00E94850187EE90E80E94C10089E0DB
S11300D092E80E94C10080E496EA0E94C10087E48D
S11300E096EC0E94C10080EA94E90E94C1008CEA67
S11300F092EC0E94C10081E89AEC0E94C10084ED58
S11301009EEC0E94C10083E894EC0E94C10080E54B
S113011098E90E94C10087E19CEC0E94C10080E044
S113012090EE0E94C10080E098EC0E94C10080EC37
S113013090EC0E94C100C0E9D1E082E790E060ED5C
S11301400E94D80081E890E060E40E942D0181E8DB
S113015090E00E94850189E790E00E94850188E88B
S113016093E1FE013197F1F70197D9F7E6CF87B311
S1130170806B87BBC69A8DB181658DB9AD9AA59AFE
S11301800895AD989FB9779BFECF9FB18FB9779BA8
S1130190FECF8FB1AD9A392F20E0280F311DC90150
S11301A00895AD9885E08A95F1F7B69BFECF089542
S11301B00F931F93CF93DF93EC01062F89E392E80B
S11301C00E94C10080E29EE40197F1F70E94D100F1
S11301D08AEA98EB0E94C1000E94D1008AEA98EB57
S11301E00E94C1000E94D1008AEA98EB0E94C100DB
S11301F00E94D1008DE298EB0E94C1000E94D100C0
S113020010E0C80101C090E0986B0E94C1000E94F8
S1130210D10089918823B9F780E098EB0E94C1004E
S11302200E94D1008AEA98EB0E94C1000E94D1008A
S11302308AEA98EB0E94C1000E94D1008AEA98EBF6
S11302400E94C1000E94D10081E092E80E94C10096
S1130250DF91CF911F910F9108950F931F93CF9327
S1130260DF93EC01062F89EC92E80E94C10080E242
S11302709EE40197F1F781E89AEC0E94C10083E8BB
S11302809AEC0E94C10010E00E94D10080E090EB43
S11302900E94C10088831F5F101710F021961882F6
S11302A08881882311F02196EFCF81E092E80E94A3
S11302B0C100DF91CF911F910F9108959C0140E0FF
S11302C050E060E472E48FE090E00E94E00121508D
S11302D0304030BD29B988E18AB986E880BD8AB149
S11302E088698AB90895282F90917E009F5F9F7036
S11302F080917F009817E1F3E92FF0E0EE53FF4F70
S1130300208390937E00559A0895CF93DF93EC0158
S113031002C00E94730189918823D9F7DF91CF919C
S113032008951F920F920FB60F9211248F939F93EB
S1130330EF93FF9390917C009F5F9F7080917D006D
S1130340981751F090937C00E0917C00F0E08CB120
S1130350EE52FF4F808304C081E0809380008CB113
S1130360FF91EF919F918F910F900FBE0F901F906F
S113037018951F920F920FB60F9211248F939F938B
S1130380EF93FF9390917F0080917E00981771F016
S113039080917F008F5F8F7080937F00E0917F005A
S11303A0F0E0EE53FF4F80818CB901C05598FF9166
S11303B0EF919F918F910F900FBE0F901F90189502
S11303C0A1E21A2EAA1BBB1BFD010DC0AA1FBB1F55
S11303D0EE1FFF1FA217B307E407F50720F0A21BC7
S11303E0B30BE40BF50B661F771F881F991F1A9434
S11303F069F760957095809590959B01AC01BD015E
S10B0400CF010895F894FFCF29
S113040852464D313242202D204D41535445520D10
S10F04180A005369656D6B61000D0A0059
S9030000FC
