:100000000C94B5000C94CA000C94CA000C94CA005D
:100010000C94CA000C94CA000C94CA000C94CA0038
:100020000C94CA000C94CA000C94CA000C94CA0028
:100030000C94CA000C94CA000C94CA000C94CA0018
:100040000C94CA000C94CA000C94CA000C94CA0008
:100050000C94CA000C94CA000C94CA000C94CA00F8
:100060000C94CA000C94CA006E616E00696E660042
:1000700000407A10F35A00A0724E18090010A5D45F
:10008000E80000E87648170000E40B54020000CABC
:100090009A3B000000E1F505000080969800000002
:1000A00040420F000000A086010000001027000061
:1000B0000000E803000000006400000000000A00E7
:1000C000000000000100000000002C76D888DC67EA
:1000D0004F0823DFC1DFAE59E1B1B796E5E3E45342
:1000E000C63AE651997696E8E6C28426EB898C9B5F
:1000F00062ED407C6FFCEFBC9C9F40F2BAA56FA5FF
:10010000F490055A2AF75C936B6CF9676DC11BFC80
:10011000E0E40D47FEF520E6B500D0ED902E03009B
:10012000943577050080841E080000204E0A0000E8
:1001300000C80C333333330F986E12831141EF8DA7
:100140002114893BE65516CFFEE6DB18D1844B38E7
:100150001BF77C1D901DA4BBE424203284725E2218
:100160008100C9F124ECA1E53D2711241FBECFEF8A
:10017000D8E0DEBFCDBF11E0A0E0B1E0EAE4F3E1FA
:1001800002C005900D92AA32B107D9F70E943E0233
:100190000C94A3090C940000CF92DF92EF92FF928F
:1001A0000F931F93CF93DF931F92CDB7DEB7D82E57
:1001B000162FF42EE22EE60EC62E082F0150040F45
:1001C0000DC041E06C2D8D2D29830E94530341E029
:1001D0006C2D802F0E945303C3942981CE10F1CF40
:1001E000FD0C012F0150020F0BC041E0612F8D2D3E
:1001F0000E94530341E0602F8D2D0E945303D3943E
:10020000DF10F3CF0F90DF91CF911F910F91FF90EF
:10021000EF90DF90CF9008953F924F925F926F9250
:100220007F928F929F92AF92BF92CF92DF92EF9286
:10023000FF920F931F93CF93DF93982E862E042F58
:1002400010E0CC27DD27C01BD10BCC0FDD1F219682
:10025000E12CF12CAA24A394B12CC12CD12C4C2C30
:10026000480C502E590C41E0642D852D0E945303FB
:10027000392C301A41E0642D832D0E945303482C01
:100280004C1841E0642D832D0E94530341E0642DFE
:10029000852D0E945303402E480C5C2C590C41E0E4
:1002A000642D852D0E945303892D8C19682E41E001
:1002B000642D0E945303882D801B782E41E0682F07
:1002C000862D0E94530341E0672D852D0E94530324
:1002D0008FEFC81AD80AEA0CFB1C82E0A80EB11CEA
:1002E0009701220F331F2C0F3D1F121613062CF4FB
:1002F00001501109EC0EFD1E22960C151D050CF087
:10030000AECFDF91CF911F910F91FF90EF90DF90D3
:10031000CF90BF90AF909F908F907F906F905F90A5
:100320004F903F9008952F923F924F925F926F921D
:100330007F928F929F92AF92BF92CF92DF92EF9275
:10034000FF920F931F93CF93DF9300D000D0CDB7D0
:10035000DEB78C013B014A012A01481A590AC9013A
:10036000861B970B9C838B837201EE0CFF1C6C0128
:10037000CC0CDD1C57FE0AC0519441945108F194F5
:10038000E194F10822242A94322C03C022242394DD
:10039000312CEB81FC81F7FF0CC0F195E195F1095F
:1003A000FC83EB83D194C194D108AA24AA94BA2CDB
:1003B00003C0AA24A394B12C41E0662D802F298389
:1003C0003A830E94530329813A814114510429F44C
:1003D0008B819C81892B01F53AC0EB81FC814E1603
:1003E0005F06D4F020E030E0020D131D2C0D3D1D02
:1003F0004216530624F46A0C7B1C2E193F0941E077
:10040000662D802F29833A830E94530329813A81E4
:100410000815190549F71BC0812C912C6A0C7B1C0F
:100420008E0C9F1C8B819C818815990524F4020DEC
:10043000131D8C189D0841E0662D802F29833A8377
:100440000E94530329813A816216730639F70F908F
:100450000F900F900F90DF91CF911F910F91FF9010
:10046000EF90DF90CF90BF90AF909F908F907F9054
:100470006F905F904F903F902F9008958FEF84B9C9
:1004800085B1C0E28C2785B90E94340485B18C27E0
:1004900085B90E94E7030E94D7030E94C70360E06A
:1004A00080E00E94440381E091E00E94BB0362E08F
:1004B00080E00E94440384E191E00E94BB0344E198
:1004C00060E280E20E940C0144E160E28CE60E945E
:1004D0000C0120E440E860E080E00E94CC0020E4D1
:1004E00042E060E089E60E94CC002FE130E04FE777
:1004F00050E06FE170E080E090E00E9493012FEF08
:1005000083E294EF215080409040E1F700C000006A
:100510000E94E7032FEF89E698E121508040904048
:10052000E1F700C000000E94D7032FEF89E698E1B1
:10053000215080409040E1F700C000000E94C703B6
:100540002FEF89E698E1215080409040E1F700C00C
:100550000000C0E0D0E285B18D2785B92FEF80E79C
:1005600092E0215080409040E1F700C00000CF5F52
:100570008C2F880F682F6C0F6F7341E08E770E946D
:1005800053036C2F62956F708C2F8F700E94440301
:100590008C2F825E0E94AA036C2F6F73262F30E08F
:1005A0004FE750E070E080E090E00E949301D3CFED
:1005B000CF93DF931F92CDB7DEB7198204C000003E
:1005C00089818F5F898389818031C8F30F90DF91A2
:1005D000CF9108958FEF8AB98FE387B988B18F6380
:1005E00088B908951AB888B18E7E88B90E94D80259
:1005F00089B19FEF9AB998B1916198B90895CF9355
:10060000C82F0E94F2028370E1F3CBB988B1867FD4
:1006100088B90E94D80288B1896088B9CF910895BD
:10062000CF93C82F0E94F2028370E1F3CBB988B157
:10063000847F88B90E94D80288B18B6088B9CF9135
:1006400008950E94F2028370E1F31AB888B18C7E9B
:1006500088B90E94D80289B198B1936198B99FEF87
:100660009AB90895CF93DF931F92CDB7DEB79983E0
:100670000E9410039981892F0E94100384E20F9039
:10068000DF91CF910C94FF0220E1629FB001112411
:100690009B01280F311DC9010C9432030E941003E5
:1006A00080EC0C94FF02CF93DF93C82FD42F282F18
:1006B00026952695269530E0C90180589F4F20E168
:1006C000629F800D911D11240E94320385EC0E94CF
:1006D000FF020E9421034C2F50E040955095477037
:1006E000552721E030E0042E01C0220F0A94EAF7DA
:1006F000DD2311F0282B02C020952823822FDF91C3
:10070000CF910C944E03EF92FF921F93CF93DF9300
:1007100000D0CDB7DEB790E09E5F23E0880F991F31
:100720002A95E1F769837A830E9432036981E62E74
:100730007A81F72E18E0F70181917F010E944E0324
:100740001150C9F70F900F90DF91CF911F91FF903B
:10075000EF90089580520C944E03CF93DF93EC01F9
:1007600002C00E94AA03FE01219684918111F9CF53
:10077000DF91CF910895CF93DF93EC0102C00E94E7
:10078000AA0389918111FBCFDF91CF910895CF9377
:10079000DF9380E890E00E943203C0E0D4E080E084
:1007A0000E944E032197D9F7DF91CF910895CF93FF
:1007B000DF9380E090E10E943203C0E0D8E080E067
:1007C0000E944E032197D9F7DF91CF910895CF93DF
:1007D000DF9380E090E00E943203C0E8D0E080E048
:1007E0000E944E032197D9F7DF91CF910895869506
:1007F0008695869590E080589F4F20E1629F800DFE
:10080000911D11240C943203CF92DF92EF92FF924C
:100810000F931F93CF93DF93C62E142FD22ED6940F
:10082000D694D694EC01040F14C0612F8C2D0E9435
:10083000F703E12CF12C09C0F701EC0FFD1F8491A7
:100840000E944E038FEFE81AF80AED14A8F31F5F19
:1008500060961013EACFDF91CF911F910F91FF9017
:10086000EF90DF90CF9008950E94EA0242988FE9BE
:100870009FE00197F1F700C00000429A459880E898
:100880000E94100380E00E94100382E40E94FF0295
:1008900080E10E94100380E00E94100383E40E9424
:1008A000FF0280E00E94100380E00E94100380E4B9
:1008B0000E94FF0280E10E94100380E00E9410036A
:1008C00081E40E94FF0282E00E94100380E00E9407
:1008D000100382E20E94FF028EE90E94FF0280E87C
:1008E0000C94FF02A2E1B0E0E8E7F4E00C94F40716
:1008F0007C011B016A01FC0117821682838181FD44
:1009000003C06BC3650105C088248394912C8C0EB1
:100910009D1EF7019381F10193FD859193FF8191D4
:100920001F01882309F455C3853239F493FD85915D
:1009300093FF81911F01853231F4B70190E00E944D
:1009400019095601DFCF712C612C20E02032A8F468
:100950008B3261F028F4803251F0833271F40BC095
:100960008D3239F0803349F4216028C02260246040
:1009700025C0286023C0206121C027FD27C0382F53
:1009800030533A3078F426FF06C0FAE07F9E300DEF
:100990001124732E13C04AE0649E300D1124632E7F
:1009A00020620CC08E3221F426FD13C3206406C0E1
:1009B0008C3611F4206802C0883641F4F10193FDB1
:1009C000859193FF81911F018111C0CF982F95547C
:1009D000933018F42061805E06C0982F95569330AE
:1009E00008F0A4C12F7E26FD02C016E0712EBFE3E1
:1009F0005B2E5222853619F4F0E45F2A07C0863652
:100A000019F440E8542A02C071107A9457FE07C0C6
:100A10005BE3571548F0472C439427E00DC087E06F
:100A2000871530F0272D07C027E0ACE34A2E04C01D
:100A300027E0F7E07F2E412C560194E0A90EB11C6F
:100A4000F6016081718182819381042DA4010E944D
:100A50002B088C0149814C8740FF02C043FF07C02F
:100A600051FC08C052FE09C0E0E2DE2E07C07DE264
:100A7000D72E04C06BE2D62E01C0D12C8C858C7091
:100A8000A1F1DD2011F084E001C083E0861510F0B3
:100A9000612C0BC0681A53FC08C0B70180E290E0DB
:100AA0000E9419096A94C9F7F3CFDD2029F0B70134
:100AB0008D2D90E00E9419095C8553FD03C00CE662
:100AC00010E00CC008E610E009C051108052B701D8
:100AD00090E00E9419090F5F1F4F02C080E1582269
:100AE000F80184918111F1CF71C257FE0EC0400E02
:100AF0004C8544FF04C08A81813309F44A9414145C
:100B00004CF558E0541548F12CC056FC2AC0872DEE
:100B100090E08017910744F00C3F8FEF180724F006
:100B200090E8592A01C07A94772049F0E2E0F0E099
:100B3000EC0FFD1FE70DF11D80818033A1F357FEFF
:100B400010C0472C4394872D90E00817190744F4F0
:100B5000701A07C04424439404C058E0452E01C0D5
:100B6000712C57FE07C0101611063CF498012F5F38
:100B70003F4F05C025E030E002C021E030E0DD203D
:100B800011F02F5F3F4F772031F0472D50E04F5F3E
:100B90005F4F240F351F462D50E02417350714F4FE
:100BA000621A01C0612C852D897049F406C0B70115
:100BB00080E290E00E9419096A946110F8CFDD206C
:100BC00029F0B7018D2D90E00E94190953FC09C04E
:100BD00006C0B70180E390E00E9419096A94611091
:100BE000F8CF57FE56C0680117FF02C0C12CD12CA8
:100BF00020E030E0A801441951095E874D872801A3
:100C00004C185D08480C591C872D90E04427552747
:100C1000481B590B588B4F875FEFC516D50649F413
:100C2000B7018EE290E02A8B398B0E94190939892D
:100C30002A890C151D0554F04D855E854C155D0502
:100C40002CF4F201E20FF31F818101C080E351E037
:100C5000C51AD1082F5F3F4F4F855889C416D50656
:100C60004CF0B70190E02A8B398B0E9419092A8930
:100C70003989D2CFC016D10649F49A81963328F427
:100C8000953321F45C8554FD01C081E3B70190E008
:100C90004AC08A81813319F04C854F7E4C87B70159
:100CA00090E00E941909711005C054FE16C085E439
:100CB00090E015C0B7018EE290E00E94190942E071
:100CC000D42EF401ED0DF11DD394B701808190E095
:100CD0000E9419097A94A9F7E8CF85E690E0B70158
:100CE0000E94190917FD06C00115110541F45C8524
:100CF00054FF05C01195019511098DE201C08BE2E9
:100D0000B70190E00E94190980E303C08F5F0A5089
:100D100011090A301105D4F7B70190E00E941909B2
:100D2000B701C801C0960E94190950C1833631F03D
:100D3000833781F0833509F05EC024C0560182E01C
:100D4000A80EB11CF60180818983CC24C394D12CD8
:100D5000840114C05601F2E0AF0EB11CF60100810F
:100D6000118126FF03C0672D70E002C06FEF7FEF97
:100D7000C8012A8B0E940E096C012A899FE7592E0F
:100D8000522217C05601F2E0AF0EB11CF6010081ED
:100D9000118126FF03C0672D70E002C06FEF7FEF67
:100DA000C8012A8B0E9403096C012A8980E8582E09
:100DB000522A53FC1CC006C0B70180E290E00E949A
:100DC00019096A94862D90E0C816D906A8F30FC0B9
:100DD000F80157FC859157FE81918F01B70190E092
:100DE0000E94190961106A94F1E0CF1AD108C11468
:100DF000D10471F7EBC0843611F0893651F55601F4
:100E000027FF09C044E0A40EB11CF6016081718186
:100E1000828193810AC0F2E0AF0EB11CF6016081BD
:100E20007181882777FD8095982F122F1F7697FF65
:100E300008C090958095709561957F4F8F4F9F4F1B
:100E400010682AE030E0A4010E944509D82ED81885
:100E500040C0122F853721F41F7E2AE030E01FC0EA
:100E6000197F8F36A1F020F4883509F0B2C00BC08D
:100E7000803721F0883709F0ACC001C0106114FF41
:100E800009C0146007C024FF08C0166006C028E02F
:100E900030E005C020E130E002C020E132E0560140
:100EA00017FF09C0F4E0AF0EB11CF601608171813B
:100EB0008281938108C0F2E0AF0EB11CF60160811F
:100EC000718180E090E0A4010E944509D82ED818D5
:100ED0001F7716FF0BC0212F2E7FD71450F414FF5D
:100EE0000AC012FD08C0212F2E7E05C00D2D212F16
:100EF00003C00D2D01C0072D24FF0CC0FE01ED0D18
:100F0000F11D8081803311F4297E08C022FF05C0C5
:100F10000E5F04C0822F867809F00F5F23FD14C096
:100F200020FF0FC07D2C061560F4760C701A062D7C
:100F300008C0B70180E290E02A8B0E9419090F5F78
:100F40002A890615B0F304C0061510F4601A01C012
:100F5000612C24FF12C0B70180E390E02A8B0E942D
:100F600019092A8922FF1EC021FF03C088E590E0ED
:100F700002C088E790E0B7010CC0822F867891F01C
:100F800021FD02C080E201C08BE227FD8DE2B701A6
:100F900090E00E94190906C0B70180E390E00E942A
:100FA00019097A94D714C0F3DA94F401ED0DF11D08
:100FB000B701808190E00E941909D110F5CF06C0D9
:100FC000B70180E290E00E9419096A946110F8CF9D
:100FD00099CCF7012681378102C02FEF3FEFC9017D
:100FE0006296E2E10C9410082F923F924F925F922A
:100FF0006F927F928F929F92AF92BF92CF92DF9229
:10100000EF92FF920F931F93CF93DF93CDB7DEB78D
:10101000CA1BDB0B0FB6F894DEBF0FBECDBF099421
:101020002A88398848885F846E847D848C849B8478
:10103000AA84B984C884DF80EE80FD800C811B8186
:10104000AA81B981CE0FD11D0FB6F894DEBF0FBEB5
:10105000CDBFED010895283008F027E03327DA01ED
:10106000990F311D87FD916000966105710539F476
:1010700032602E5F3D9330E32A95E1F708959F3F5C
:1010800030F080387105610509F03C5F3C5F3D93AD
:10109000913008F08068911DDF93CF931F930F93D9
:1010A000FF92EF92192F987F9695E92F9695969536
:1010B000E90FFF27E653FF4F99273327EE24FF243C
:1010C000A701E70105900894079428F4360FE71E5E
:1010D000F81E491F511D660F771F881F991F069420
:1010E000A1F70590079428F4E70EF81E491F561F34
:1010F000C11D770F881F991F661F0694A1F70590E1
:10110000079428F4F80E491F561FC71FD11D880FDA
:10111000991F661F771F0694A1F70590079420F486
:10112000490F561FC71FD81F990F661F771F881FAB
:101130000694A9F784911095177041F0D695C7953C
:1011400057954795F794E7941A95C1F7E0E7F0E0D3
:1011500068941590159135916591959105907FE270
:101160007395E118F10A430B560BC90BD009C0F770
:10117000E10CF11E431F561FC91FD01D7EF47033B2
:1011800011F48A95E6CFE894015030F0080F0AF484
:101190000027021708F4202F2395022F7A3328F016
:1011A00079E37D932A95E9F710C07D932A9589F616
:1011B000069497956795379517951794E118F10A56
:1011C000430B560BC90BD00998F023957E9173956C
:1011D0007A3308F070E37C932013B8F77E91706146
:1011E0007D9330F0839571E37D9370E32A95E1F769
:1011F0001124EF90FF900F911F91CF91DF919927CC
:1012000087FD90950895FC01059061507040011094
:10121000D8F7809590958E0F9F1F0895FC0161501F
:10122000704001900110D8F7809590958E0F9F1F08
:1012300008950F931F93CF93DF938C01EB018B8164
:1012400081FD03C00FEF1FEF1AC082FF0DC02E817A
:101250003F818C819D812817390764F4E881F981E9
:101260000193F983E88306C0E885F985802F099505
:10127000892B41F78E819F8101969F838E83C801C0
:10128000DF91CF911F910F910895FA01AA2728307D
:1012900051F1203181F1E8946F936E7F6E5F7F4F43
:1012A0008F4F9F4FAF4FB1E03ED0B4E03CD0670FBF
:1012B000781F891F9A1FA11D680F791F8A1F911D12
:1012C000A11D6A0F711D811D911DA11D20D009F462
:1012D00068943F912AE0269F11243019305D3193A4
:1012E000DEF6CF010895462F4770405D4193B3E08D
:1012F0000FD0C9F7F6CF462F4F70405D4A3318F034
:10130000495D31FD4052419302D0A9F7EACFB4E0E4
:10131000A6959795879577956795BA95C9F700979C
:101320006105710508959B01AC010A2E069457953D
:10133000479537952795BA95C9F7620F731F841F94
:0A134000951FA01D0895F894FFCF3B
:10134A0001447A69616C6120577973776965746CB5
:10135A0061637A00303132333435363738393031D7
:0A136A00323334353637383930009D
:00000001FF
