:100000000C942A000C943C000C943C000C943C0092
:100010000C943C000C943C000C943C000C943C0070
:100020000C943C000C943C000C943C000C943C0060
:100030000C943C000C943C000C943C000C943C0050
:100040000C943C000C943C000C943C000C943C0040
:100050000C943C0011241FBECFE5D8E0DEBFCDBF1D
:1000600020E0A0E6B0E001C01D92A636B207E1F79D
:100070000E94B0010C94B3010C940000D998D89858
:10008000DA98DB98DC98DE98DF98DF98D19AD09ADE
:10009000D29AD39AD49AD69AD79AD79A12BA8FEF7D
:1000A00081BB0895DB98DC98DE98DF98813041F0C1
:1000B00028F0823039F0833041F406C0DB9A08958D
:1000C000DC9A0895DE9A0895DF9A0895F8940E94C4
:1000D00052008FEF82BBD99811BAD89ADA9A08C029
:1000E000DA980000000000000000DA9A000000002A
:1000F000000000008799F4CFDA98D8988FEF81BB81
:1001000078940895CF93DF931F92CDB7DEB7F8941C
:1001100069830E946600D998D898DA9A8FEF81BBDC
:10012000698162BB000000000000000000000000C8
:1001300000000000DA9878940F90DF91CF91089535
:10014000F8940E946600D99811BAD89ADA9A0000F9
:10015000000000000000000000000000000080B36C
:10016000DA98D8989FEF91BB78940895882311F07E
:10017000DF980895DF9A0895CF93DF93C0E6D0E02B
:10018000888360E480E00E9482001092620060E454
:1001900081E00E948200109264008881682F6F7352
:1001A00060648295869586958370DF91CF910C94DB
:1001B0008200CF9380936100C82FC86B6C2F80E0C2
:1001C0000E9482006C2F81E0CF910C948200CF932B
:1001D000DF93C0916000C295C695C695C370F89430
:1001E0008C2F0E946600D99A11BAD89ADA9A000028
:1001F0000000000000000000000000000000D0B37C
:10020000DA98D8987894EC2FF0E0EE0FFF1FEE59B3
:10021000FF4F90819F5F9083909160009F5F9093CC
:10022000600097FF0AC0809161008F5F809361003A
:100230000E94D90080E00E94BC008D2FDF91CF91F9
:100240000895CF93DF93D82FC0916000C295C695D3
:10025000C695C370F8948C2F0E946600D99AD898DE
:10026000DA9A8FEF81BBD2BB0000000000000000D3
:100270000000000000000000DA987894EC2FF0E015
:10028000EE0FFF1FEE59FF4F80818F5F80838091BB
:1002900060008F5F8093600087FF0CC080916100D9
:1002A0008F5F809361000E94D90080E0DF91CF9141
:1002B0000C94BC00DF91CF910895CF93C82FC06CF0
:1002C0006C2F80E00E9482006C2F81E0CF910C9413
:1002D0008200CF93C82F862F0E94D9008C2FCF91F8
:1002E0000C94BC00CF93DF93C0E06C2F80E00E94A1
:1002F0006901D0E080E00E942101DF5FD038D1F7B2
:10030000CF5FC83091F7DF91CF91089580E00E94D0
:100310005D0160E080E00E9469011092620010922D
:100320006300109264001092650008950E943E00E0
:1003300080E00E94B6006FE380E00E9482006FE3DD
:1003400081E00E9482000E9472010C948601962F27
:10035000990F960F682F892F880F0C9469010895C3
:0A0360000E943E00FFCFF894FFCF8B
:00000001FF
