:100000000C9496000C94B1000C94B1000C94B100C7
:100010000C94B1000C94B1000C94B1000C94B1009C
:100020000C94B1000C94B1000C94B1000C94B1008C
:100030000C94B1000C94B1000C94B1000C94B1007C
:100040000C94B1000C94B1000C94B1000C94B1006C
:100050000C94B1000C94B1000C94B1000C94B1005C
:100060000C94B1000C94B1000C94B1000C94B1004C
:10007000808182838485868788898A8B8C8D8E8F08
:10008000909100437A6586810000000E010F110FE8
:10009000026102040E1010110E006300000E111F09
:1000A000100E02650C0406040C040E006C0204160B
:1000B00019111111006E02040E1111110E006F02C0
:1000C000040E100E011E007302041F0204081F001C
:1000D0007A04001F0204081F007A0E11111F11116B
:1000E000110241020E15101010110E431F10101EA8
:1000F00010101F02451010141810101F004C02158C
:100100001119151311114E020E15111111110E4F67
:10011000020F14100E01011E53021F0502040810E5
:100120001F5A041F01020408101F5A0011241FBE89
:10013000CFEFD4E0DEBFCDBF11E0A0E0B1E0ECE353
:10014000F5E002C005900D92AE30B107D9F711E08D
:10015000AEE0B1E001C01D92A833B107E1F70C9405
:10016000C2000C940000CF93DF93282FA0E2BEE4DE
:10017000C0E0D0E0CD010197F1F72150D8F7DF9131
:10018000CF910895CFEFD4E0DEBFCDBF8CE381BB2C
:100190008FEC82BB0E94510186E00E947B010E948D
:1001A0005E02BC0183E890E00E9474020E944A0251
:1001B00088EC0E94B300C0E00E9447010E945E02EA
:1001C0002C2F3327BC01C90180599F4F0E94740214
:1001D0000E944A02CF5F0C2F112780E790E00E9417
:1001E00061020817190708F0C0E084E60E94B30016
:1001F000E3CF939A929881E08A95F1F717BA949A8F
:1002000082E08A95F1F786B39498992708950E9421
:10021000F9008823E4F30895982F8FEF87BB98BBEC
:10022000949A81E08A95F1F7949808951F93182F76
:100230000E9407019398929A81E08A95F1F7812FA5
:100240000E940C011F9108951F93182F0E9407010F
:1002500082B3837F82BB81E08A95F1F7812F0E9470
:100260000C011F910895982F80912E01803210F07B
:1002700010922E0180912E01E82FFF27E25FFE4FA2
:1002800090838F5F80932E0180E090E0089510921C
:100290002E0140E250E0BA018EE091E00E946A0235
:1002A00008951F930E94470182B3837F82BB11E0B0
:1002B000812F8A95F1F780E30E940C0188E991E291
:1002C0000197F1F780E30E940C0180E08A95F1F735
:1002D00080E30E940C0188E30E94240188E00E94D0
:1002E0002401812F0E94240186E00E9424010E94A3
:1002F00007011F9108958093370108958091370178
:1003000088600E9424010895882319F480E090E019
:10031000089580E490E0089580932E0108951F933E
:1003200010912E01812F82958F700E9484011F7081
:10033000180F812F80680E9424011F91089520E0EA
:1003400030E08058803210F421E030E0C901089597
:10035000482F30E080E090E0EFE2F1E021912F3F84
:1003600031F0241761F03F5F01963830B8F389E02F
:10037000489FF0011124EF56FF4F8491992708956B
:10038000EF92FF920F931F93CF93DF938EE0E82EAF
:1003900081E0F82E10E048E050E06FEF70E08FE26F
:1003A00091E00E946A020FE1F701C1917F018C2F59
:1003B0000E949F01882379F0C058DD278C2F0E946E
:1003C000A801883040F0183028F4E12FFF27E15DC4
:1003D000FE4FC0831F5F015007FFE6CF812F992793
:1003E000DF91CF911F910F91FF90EF9008950F93A0
:1003F0001F93CF93DF9380E40E94240100E0E02F5D
:10040000FF27E15DFE4FE081EF3F91F089E0E89F3B
:10041000E0011124C757DF4F17E0FE0121968491B8
:100420000E941601115017FFF8CF0F5F083038F304
:10043000DF91CF911F910F910895EF92FF920F934B
:100440001F93CF939EE0E92E91E0F92E00E0802FDC
:100450000E94840180680E9424011FE0F701C1917D
:100460007F018C2F0E949F01882329F08C2F8058B8
:100470000E94A801C82F8C2F0E941601115017FF4F
:10048000EDCF0F5F023018F3CF911F910F91FF90C6
:10049000EF9008950E94C0010E94F70180913701FA
:1004A000847088600E9424010E941D020E948F01B6
:1004B0008091370188600E942401089580E091E0D6
:1004C0000895FC0105900020E9F7809590958E0F26
:1004D0009F1F0895DC0140FF03C001C06D936D9321
:1004E00042505040D8F70895EF92FF920F931F9318
:1004F000CF93DF93EC018B01EE24FF24FB0183817A
:1005000081FD03C08FEF9FEF12C0FE01849188230D
:1005100069F0F80120853185B801F9010995892B29
:1005200019F08FEFE82EF82E2196EFCFC701DF915B
:0C053000CF911F910F91FF90EF90089564
:0E053C0000000002000000003301000000007B
:00000001FF
