:100000000C94B2000C94D7000C94D7000C94D70039
:100010000C94D7000C94D7000C94D7000C94D70004
:100020000C94D7000C94D7000C94B1050C94D70015
:100030000C94D7000C94D7000C94D7000C94D700E4
:100040000C94D7000C94D7000C94D7000C94D700D4
:100050000C94D70020205431202020202020205430
:1000600032006E616E00696E660000407A10F35ACD
:1000700000A0724E18090010A5D4E80000E87648E8
:10008000170000E40B54020000CA9A3B000000E194
:10009000F505000080969800000040420F00000027
:1000A000A08601000000102700000000E803000007
:1000B00000006400000000000A00000000000100D1
:1000C000000000002C76D888DC674F0823DFC1DFF2
:1000D000AE59E1B1B796E5E3E453C63AE6519976F5
:1000E00096E8E6C28426EB898C9B62ED407C6FFC2F
:1000F000EFBC9C9F40F2BAA56FA5F490055A2AF771
:100100005C936B6CF9676DC11BFCE0E40D47FEF579
:1001100020E6B500D0ED902E0300943577050080E1
:10012000841E080000204E0A000000C80C33333340
:10013000330F986E12831141EF8D2114893BE655E0
:1001400016CFFEE6DB18D1844B381BF77C1D901DC3
:10015000A4BBE424203284725E228100C9F124EC25
:10016000A1E53D2711241FBECFE5D8E0DEBFCDBFFE
:10017000E7EAF0E08AEA98E08193EF35F907E1F7E2
:1001800010E0A0E6B0E0EAE8F7E102C005900D92C9
:10019000A038B107D9F720E0A0E8B0E001C01D9277
:1001A000A73AB207E1F70E94F5040C94C30B0C9434
:1001B0000000D79AD69AD59AD49A089580FF02C0A3
:1001C000DC9A01C0DC9881FF02C0DD9A01C0DD9895
:1001D00082FF02C0DE9A01C0DE9883FF02C0DF9A70
:1001E0000895DF980895CF93C82F0E94D900DB9A15
:1001F0008C2F82958F700E94DE00DB98DB9A8C2F0B
:100200000E94DE00DB988FED91E00197F1F700C0CE
:100210000000CF910895DA980C94F300DA9A0C94C8
:10022000F300982F9058983008F487700C940E01C2
:10023000CF93DF93EC0102C00E94110189918111DB
:10024000FBCFDF91CF910895CF93DF93EC0102C0F4
:100250000E941101FE01219684918111F9CFDF9155
:10026000CF910895CF93DF93EC0121960E94750BF7
:10027000982F91509E3F20F40E941101CE01F4CF9F
:10028000DF91CF910895CF93DF93CDB7DEB761971C
:100290000FB6F894DEBF0FBECDBF4AE050E0BE01FE
:1002A0006F5F7F4F0E94960A0E94180161960FB6F9
:1002B000F894DEBF0FBECDBFDF91CF910895CF93ED
:1002C000DF93CDB7DEB761970FB6F894DEBF0FBEF0
:1002D000CDBF20E130E0AE014F5F5F4F0E94B70A13
:1002E0000E94180161960FB6F894DEBF0FBECDBF15
:1002F000DF91CF9108950F931F93CF93DF93EB017D
:100300008770880F880F880F805C0E940B018E0118
:10031000085F1F4F89910E940E01C017D107D1F7C6
:10032000DF91CF911F910F9108950F931F93CF935A
:10033000DF93EB018770880F880F880F805C0E9425
:100340000B018E01085F1F4FFE01219684910E94D0
:100350000E01C017D107C1F7DF91CF911F910F9107
:100360000895EF92FF920F931F93CF93DF93EB01CA
:100370008770880F880F880F805C0E940B018E01A8
:10038000085F1F4F7E018FEFE81AF80ACE010E9426
:10039000750B0E940E01E701E016F10699F7DF9157
:1003A000CF911F910F91FF90EF900895813009F444
:1003B00080E46058860F0C940B0181E00E940B01D1
:1003C0008FE89CE40197F1F700C0000008950E94B7
:1003D000D900D29AD39ADA9ADB9A8FE59AEE0197EE
:1003E000F1F700C00000DB98DA98DB9A83E00E9406
:1003F000DE00DB988FE090E40197F1F700C0000089
:10040000DB9A83E00E94DE00DB988FE891E00197A1
:10041000F1F700C00000DB9A83E00E94DE00DB9869
:100420008FE891E00197F1F700C00000DB9A82E0CD
:100430000E94DE00DB988FE891E00197F1F700C0A1
:10044000000088E20E940B0188E00E940B018CE012
:100450000E940B0186E00E940B010C94DD01FC015F
:10046000680F791F80E048E10FC0219198E0322F9A
:100470003827532F517030FD84278695513009F469
:1004800080682695915099F7E617F70771F7089558
:100490000F931F93CF93DF93CDB7DEB760970FB65F
:1004A000F894DEBF0FBECDBF90E1E0E6F0E0DE01E4
:1004B000119601900D929A95E1F7DB019C911196AE
:1004C000FC91E0E0E92B803179F4DF01AE7FE3E0DD
:1004D000AA0FBB1FEA95E1F7FB019681ECE0F0E083
:1004E000E91BF109EA0FFB1FF7FF07C091E0DA01F2
:1004F0009C93F195E195F10902C0DA011C928832D2
:1005000081F4DB0114968C91982F9076903649F007
:1005100086FF02C0EE7F05C085FF02C0EC7F01C0F0
:10052000E87FCF0144E0969587954A95E1F7D90198
:100530008C93EF70FF27EC0FFD1F8181F801808302
:1005400080E060960FB6F894DEBF0FBECDBFDF919E
:10055000CF911F910F910895882319F0719561959E
:100560007109442319F031952195310962177307F8
:100570004CF081E090E02617370714F080E090E01F
:100580009C0102C02FEF3FEFC90108950F931F9305
:10059000CF93DF93EC018B01B80188810E94650441
:1005A000888381508D3F30F4F8018081883211F0CA
:1005B000803191F7DF91CF911F910F910895FF92B4
:1005C0000F931F93CF93DF93CDB7DEB729970FB665
:1005D000F894DEBF0FBECDBF8FEF898701E810E032
:1005E000F12C1DC0BE016F5F7F4FCE0109960E94A6
:1005F000C60289858F3FC9F08E3FB9F0FE01319662
:1006000020E030E08191D801A20FB31F8C932F5FBF
:100610003F4F28303105B1F7F394085F1F4F8985AC
:10062000882319F084E0F812DDCF8F2D29960FB6BC
:10063000F894DEBF0FBECDBFDF91CF911F910F9118
:10064000FF900895CF93DF93EC010E941E04811167
:100650000FC0BE0184EB0E94B10481E00E943D0402
:10066000C82F0E941E0481E0C11103C080E001C0B8
:1006700081E0DF91CF9108951F93CF93DF93182FDF
:10068000EB010E941E0481110DC00E9415048823F5
:1006900059F0BE0184E40E94B104113039F00E9487
:1006A000180404C081E003C082E001C080E0DF9153
:1006B000CF911F9108956F927F928F929F92AF92E8
:1006C000BF92CF92DF92EF92FF920F931F93CF933F
:1006D000DF93CDB7DEB729970FB6F894DEBF0FBE14
:1006E000CDBF6C015B014A0189010E941E0481118A
:1006F00028C0B6018EEB0E94B104EE24E394F12CE5
:10070000EC0EFD1E3E018AE0680E711C0E94620420
:10071000F70181937F01E615F705C1F769E070E005
:10072000CE0101960E942F0281110DC09401A501F6
:10073000BE016F5F7F4FF60180810E94480280E01A
:1007400003C081E001C083E029960FB6F894DEBFB4
:100750000FBECDBFDF91CF911F910F91FF90EF9012
:10076000DF90CF90BF90AF909F908F907F906F90D1
:1007700008957F928F929F92AF92BF92CF92DF9215
:10078000EF92FF920F931F93CF93DF93CDB7DEB716
:1007900029970FB6F894DEBF0FBECDBF782E6B0140
:1007A0005A0189010E941E04811128C060E070E096
:1007B0008EEB0E94B104EE24E394F12CEC0EFD1EAE
:1007C0004E018AE0880E911C0E946204F701819319
:1007D0007F01E815F905C1F769E070E0CE010196E7
:1007E0000E942F0281110CC09501A601BE016F5F0E
:1007F0007F4F872D0E94480280E003C081E001C046
:1008000083E029960FB6F894DEBF0FBECDBFDF910F
:10081000CF911F910F91FF90EF90DF90CF90BF90FD
:10082000AF909F908F907F90089589B381700895C5
:10083000D89AD09A0895D898D0980895D898D09AF0
:100840008FE797E00197F1F700C000009FB7F89499
:10085000D098E7E0F1E03197F1F700C0000089B3EC
:100860009FBFE7E7F6E03197F1F700C00000C89BB3
:1008700002C08170089581E008959FB7F894D09ADE
:1008800025E02A95F1F700008111D09820E52A95FE
:10089000F1F7C89B80E020EF2A95F1F7D0989FBF31
:1008A0000895CF93DF93C82FD8E08C2F81700E94DA
:1008B0003D04C6958111C068D150B9F78C2FDF91E6
:1008C000CF9108958FEF0C945104DF92EF92FF9235
:1008D0000F931F93CF93DF93E82EEB010E941E042A
:1008E000811131C080EF0E945104F12C10E498EF87
:1008F000D92ED10E81E00E943D04082F81E00E9494
:100900003D04882319F0002369F020C001110AC0BA
:100910001E1530F0888180FF05C0E11201C002C0C1
:10092000F12E01E0802F0E943D04988196950111DF
:1009300001C001C09068988311501D11DBCF219632
:100940001111D5CF05C0FF24FA9402C08EEFF82E06
:100950008F2DDF91CF911F910F91FF90EF90DF903E
:100960000895FF920F931F93CF93DF93F82EEB011F
:100970000E941E04209769F085E50E9451048E01B3
:10098000085F1F4F89910E945104C017D107D1F70A
:1009900003C08CEC0E9451048F2DDF91CF911F91E9
:1009A0000F91FF900C945104682F81E00E94D601B2
:1009B0008091A400882319F080E790E002C086E7C8
:1009C00090E00E9418018091A50090E00E944301F0
:1009D00082E790E00E9418018091A20090E00E94BE
:1009E000430184E790E00C94180183B7886083BFCB
:1009F00083B7856083BF8BE68CBF89B7826089BF70
:100A00000E94E7010E94DF028093A60060E070E090
:100A100081E00E943C032FEF8EE994E22150804058
:100A20009040E1F700C0000022EA30E045EA50E0E3
:100A300064EA70E081E890E00E945B03811103C0EA
:100A40000E94D40408C060E081E00E94D60188E7DB
:100A500090E00E94180122EA30E045EA50E064EAA2
:100A600070E089E890E00E945B03811104C089E096
:100A70000E94D40408C069E081E00E94D60188E7A2
:100A800090E00E941801789460E080E00E94D60116
:100A900084E590E00E942401C3E08091A3008823B4
:100AA000E1F38091A1006C2F0E946509911114C09F
:100AB000E1E8F0E0119220E0E13AF207D9F70E9474
:100AC000DF028093A60068E080E00E94D60180915A
:100AD000A60090E00E9443018091A1006C2F0E942B
:100AE0006509913029F460E070E081E00E943C03E8
:100AF0008091A1006C2F0E946509923079F522EA5D
:100B000030E045EA50E064EA70E081E890E00E945D
:100B10005B03811103C00E94D40408C060E081E03F
:100B20000E94D60188E790E00E94180122EA30E096
:100B300045EA50E064EA70E089E890E00E945B03D7
:100B4000811104C089E00E94D40408C069E081E0FA
:100B50000E94D60188E790E00E9418011092A3003D
:100B60009CCF1F920F920FB60F9211248F938091FA
:100B700080008F5F80938000843680F081E08093D6
:100B8000A3008091A1008F5F8093A1008091A100BC
:100B90008C3310F01092A100109280008F910F9072
:100BA0000FBE0F901F901895E7EAF0E020E030E0CC
:100BB00081918A3A31F42F5F3F4FE03688E0F807A1
:100BC000B8F3C9010895A2E1B0E0E9EEF5E00C94B4
:100BD00071097C011B016A01FC0117821682838165
:100BE00081FD03C06BC3650105C088248394912CEB
:100BF0008C0E9D1EF7019381F10193FD859193FF6A
:100C000081911F01882309F455C3853239F493FD7E
:100C1000859193FF81911F01853231F4B70190E0F6
:100C20000E94EB0A5601DFCF712C612C20E02032AC
:100C3000A8F48B3261F028F4803251F0833271F4E1
:100C40000BC08D3239F0803349F4216028C0226016
:100C5000246025C0286023C0206121C027FD27C053
:100C6000382F30533A3078F426FF06C0FAE07F9EE2
:100C7000300D1124732E13C04AE0649E300D1124F0
:100C8000632E20620CC08E3221F426FD13C3206433
:100C900006C08C3611F4206802C0883641F4F10198
:100CA00093FD859193FF81911F018111C0CF982FF2
:100CB0009554933018F42061805E06C0982F9556A5
:100CC000933008F0A4C12F7E26FD02C016E0712EDD
:100CD000BFE35B2E5222853619F4F0E45F2A07C089
:100CE000863619F440E8542A02C071107A9457FEEF
:100CF00007C05BE3571548F0472C439427E00DC02D
:100D000087E0871530F0272D07C027E0ACE34A2E97
:100D100004C027E0F7E07F2E412C560194E0A90E95
:100D2000B11CF6016081718182819381042DA4013F
:100D30000E94A8098C0149814C8740FF02C043FFF3
:100D400007C051FC08C052FE09C0E0E2DE2E07C019
:100D50007DE2D72E04C06BE2D62E01C0D12C8C854B
:100D60008C70A1F1DD2011F084E001C083E08615D4
:100D700010F0612C0BC0681A53FC08C0B70180E268
:100D800090E00E94EB0A6A94C9F7F3CFDD2029F0C6
:100D9000B7018D2D90E00E94EB0A5C8553FD03C0E6
:100DA00006E610E00CC002E610E009C051108052C7
:100DB000B70190E00E94EB0A0F5F1F4F02C080E175
:100DC0005822F80184918111F1CF71C257FE0EC0F3
:100DD000400E4C8544FF04C08A81813309F44A9453
:100DE00014144CF558E0541548F12CC056FC2AC098
:100DF000872D90E08017910744F00C3F8FEF180784
:100E000024F090E8592A01C07A94772049F0E2E072
:100E1000F0E0EC0FFD1FE70DF11D80818033A1F3A1
:100E200057FE10C0472C4394872D90E008171907F0
:100E300044F4701A07C04424439404C058E0452E7B
:100E400001C0712C57FE07C0101611063CF4980122
:100E50002F5F3F4F05C025E030E002C021E030E0C9
:100E6000DD2011F02F5F3F4F772031F0472D50E00C
:100E70004F5F5F4F240F351F462D50E02417350775
:100E800014F4621A01C0612C852D897049F406C0E2
:100E9000B70180E290E00E94EB0A6A946110F8CFFB
:100EA000DD2029F0B7018D2D90E00E94EB0A53FC64
:100EB00009C006C0B70180E390E00E94EB0A6A9483
:100EC0006110F8CF57FE56C0680117FF02C0C12C51
:100ED000D12C20E030E0A801441951095E874D87EC
:100EE00028014C185D08480C591C872D90E04427B8
:100EF0005527481B590B588B4F875FEFC516D506F2
:100F000049F4B7018EE290E02A8B398B0E94EB0AFC
:100F100039892A890C151D0554F04D855E854C15BF
:100F20005D052CF4F201E20FF31F818101C080E323
:100F300051E0C51AD1082F5F3F4F4F855889C4161D
:100F4000D5064CF0B70190E02A8B398B0E94EB0A52
:100F50002A893989D2CFC016D10649F49A819633AD
:100F600028F4953321F45C8554FD01C081E3B70179
:100F700090E04AC08A81813319F04C854F7E4C87BE
:100F8000B70190E00E94EB0A711005C054FE16C034
:100F900085E490E015C0B7018EE290E00E94EB0A74
:100FA00042E0D42EF401ED0DF11DD394B701808100
:100FB00090E00E94EB0A7A94A9F7E8CF85E690E0EA
:100FC000B7010E94EB0A17FD06C00115110541F497
:100FD0005C8554FF05C01195019511098DE201C092
:100FE0008BE2B70190E00E94EB0A80E303C08F5FC1
:100FF0000A5011090A301105D4F7B70190E00E9498
:10100000EB0AB701C801C0960E94EB0A50C18336B3
:1010100031F0833781F0833509F05EC024C056017A
:1010200082E0A80EB11CF60180818983CC24C39490
:10103000D12C840114C05601F2E0AF0EB11CF601B0
:101040000081118126FF03C0672D70E002C06FEFA1
:101050007FEFC8012A8B0E948B0A6C012A899FE7C7
:10106000592E522217C05601F2E0AF0EB11CF60104
:101070000081118126FF03C0672D70E002C06FEF71
:101080007FEFC8012A8B0E94800A6C012A8980E8C0
:10109000582E522A53FC1CC006C0B70180E290E0D3
:1010A0000E94EB0A6A94862D90E0C816D906A8F330
:1010B0000FC0F80157FC859157FE81918F01B70150
:1010C00090E00E94EB0A61106A94F1E0CF1AD10817
:1010D000C114D10471F7EBC0843611F0893651F593
:1010E000560127FF09C044E0A40EB11CF60160813F
:1010F0007181828193810AC0F2E0AF0EB11CF601CA
:1011000060817181882777FD8095982F122F1F7637
:1011100097FF08C090958095709561957F4F8F4F90
:101120009F4F10682AE030E0A4010E94170BD82ED0
:10113000D81840C0122F853721F41F7E2AE030E0F6
:101140001FC0197F8F36A1F020F4883509F0B2C096
:101150000BC0803721F0883709F0ACC001C01061A6
:1011600014FF09C0146007C024FF08C0166006C041
:1011700028E030E005C020E130E002C020E132E0AC
:10118000560117FF09C0F4E0AF0EB11CF6016081F3
:1011900071818281938108C0F2E0AF0EB11CF6012B
:1011A0006081718180E090E0A4010E94170BD82E2D
:1011B000D8181F7716FF0BC0212F2E7FD71450F49D
:1011C00014FF0AC012FD08C0212F2E7E05C00D2D70
:1011D000212F03C00D2D01C0072D24FF0CC0FE01DF
:1011E000ED0DF11D8081803311F4297E08C022FFAE
:1011F00005C00E5F04C0822F867809F00F5F23FDC3
:1012000014C020FF0FC07D2C061560F4760C701AF8
:10121000062D08C0B70180E290E02A8B0E94EB0AFD
:101220000F5F2A890615B0F304C0061510F4601A82
:1012300001C0612C24FF12C0B70180E390E02A8B2B
:101240000E94EB0A2A8922FF1EC021FF03C088E505
:1012500090E002C088E790E0B7010CC0822F86784A
:1012600091F021FD02C080E201C08BE227FD8DE2FA
:10127000B70190E00E94EB0A06C0B70180E390E05E
:101280000E94EB0A7A94D714C0F3DA94F401ED0DBE
:10129000F11DB701808190E00E94EB0AD110F5CFDB
:1012A00006C0B70180E290E00E94EB0A6A946110E8
:1012B000F8CF99CCF7012681378102C02FEF3FEF9D
:1012C000C9016296E2E10C948D09991B79E004C092
:1012D000991F961708F0961B881F7A95C9F7809575
:1012E00008952F923F924F925F926F927F928F92CA
:1012F0009F92AF92BF92CF92DF92EF92FF920F93A5
:101300001F93CF93DF93CDB7DEB7CA1BDB0B0FB6AE
:10131000F894DEBF0FBECDBF09942A88398848886B
:101320005F846E847D848C849B84AA84B984C88401
:10133000DF80EE80FD800C811B81AA81B981CE0FF8
:10134000D11D0FB6F894DEBF0FBECDBFED010895DD
:10135000283008F027E03327DA01990F311D87FD87
:10136000916000966105710539F432602E5F3D93FE
:1013700030E32A95E1F708959F3F30F080387105FA
:10138000610509F03C5F3C5F3D93913008F0806857
:10139000911DDF93CF931F930F93FF92EF92192F1D
:1013A000987F9695E92F96959695E90FFF27EC5330
:1013B000FF4F99273327EE24FF24A701E70105906B
:1013C0000894079428F4360FE71EF81E491F511D94
:1013D000660F771F881F991F0694A1F70590079441
:1013E00028F4E70EF81E491F561FC11D770F881FEE
:1013F000991F661F0694A1F70590079428F4F80E2C
:10140000491F561FC71FD11D880F991F661F771FC1
:101410000694A1F70590079420F4490F561FC71FA3
:10142000D81F990F661F771F881F0694A9F784910C
:101430001095177041F0D695C79557954795F79435
:10144000E7941A95C1F7EAE6F0E0689415901591D3
:1014500035916591959105907FE27395E118F10AB8
:10146000430B560BC90BD009C0F7E10CF11E431F0B
:10147000561FC91FD01D7EF4703311F48A95E6CF34
:10148000E894015030F0080F0AF40027021708F41E
:10149000202F2395022F7A3328F079E37D932A9524
:1014A000E9F710C07D932A9589F60694979567957C
:1014B000379517951794E118F10A430B560BC90B92
:1014C000D00998F023957E9173957A3308F070E3F4
:1014D0007C932013B8F77E9170617D9330F08395F3
:1014E00071E37D9370E32A95E1F71124EF90FF906B
:1014F0000F911F91CF91DF91992787FD90950895C6
:10150000FC010590615070400110D8F780959095CE
:101510008E0F9F1F0895FC016150704001900110D3
:10152000D8F7809590958E0F9F1F0895FB019F011E
:10153000E8944230C4F04532B4F44A3029F497FBC1
:101540001EF4909581959F4F642F77270E948D0BF5
:10155000805D8A330CF0895D8193CB010097A1F700
:1015600016F45DE251931082C9010C947D0BFA01CF
:10157000CF93FF93EF93223044F1253234F5C22FFD
:10158000E894CA3049F497FB3EF4909580957095A5
:1015900061957F4F8F4F9F4F2C2F3327442755271F
:1015A000FF93EF930E94A10BEF91FF91605D6A336F
:1015B0000CF0695D6193B901CA01605070408040D0
:1015C000904051F716F4CDE2C19310828F919F9114
:1015D000CF910C947D0B0F931F93CF93DF938C01CE
:1015E000EB018B8181FD03C00FEF1FEF1AC082FF5B
:1015F0000DC02E813F818C819D812817390764F4AD
:10160000E881F9810193F983E88306C0E885F985CB
:10161000802F0995892B41F78E819F8101969F83A9
:101620008E83C801DF91CF911F910F910895FA0128
:10163000AA27283051F1203181F1E8946F936E7F11
:101640006E5F7F4F8F4F9F4FAF4FB1E03ED0B4E002
:101650003CD0670F781F891F9A1FA11D680F791F43
:101660008A1F911DA11D6A0F711D811D911DA11D54
:1016700020D009F468943F912AE0269F1124301964
:10168000305D3193DEF6CF010895462F4770405DFF
:101690004193B3E00FD0C9F7F6CF462F4F70405DAE
:1016A0004A3318F0495D31FD4052419302D0A9F709
:1016B000EACFB4E0A6959795879577956795BA9503
:1016C000C9F700976105710508959B01AC010A2EC9
:1016D00006945795479537952795BA95C9F7620FA0
:1016E000731F841F951FA01D0895E199FECF9FBB16
:1016F0008EBBE09A99278DB30895DC01FC01672F1A
:1017000071917723E1F7329704C07C916D937083D8
:101710006291AE17BF07C8F30895AA1BBB1B51E126
:1017200007C0AA1FBB1FA617B70710F0A61BB70B51
:10173000881F991F5A95A9F780959095BC01CD01F6
:101740000895A1E21A2EAA1BBB1BFD010DC0AA1F02
:10175000BB1FEE1FFF1FA217B307E407F50720F01A
:10176000A21BB30BE40BF50B661F771F881F991F95
:101770001A9469F760957095809590959B01AC01DE
:0A178000BD01CF010895F894FFCFDA
:10178A000001010202030404050606070708090905
:10179A002D002E0020432000206572726F722000F7
:00000001FF
