S0110000414E445F434C4F434B2E7372656375
S11300000C942A000C945A000C9447000C9447005A
S11300100C9447000C9447000C9447000C94470040
S11300200C9447000C9447000C9447000C94470030
S11300300C9447000C9493020C94BB020C9447005C
S11300400C9447000C9447000C9447000C94470010
S11300500C94470011241FBECFE5D8E0DEBFCDBF0E
S113006011E0A0E6B0E0E2EFF6E002C005900D92E8
S1130070AA32B107D9F711E0AAE2B1E001C01D929A
S1130080A535B107E1F70E94B4000C9477030C94F2
S11300900000482F6AE00E940403282F30E084E027
S11300A0220F331F8A95E1F7842F0E940403892FBE
S11300B0822B08951F920F920FB60F9211242F9343
S11300C03F934F935F936F937F938F939F93AF93DC
S11300D0BF93EF93FF930E940F0282EA0E941B02D8
S11300E082E00E941B020E940F0283EA0E941B020C
S11300F081E00E9422028F7780930B0181E00E94AD
S113010022028F778093300181E00E9422028F7354
S11301108093330181E00E9422028F738093320125
S113012081E00E942202877080932F0181E00E9467
S113013022028F718093340180E00E942202809316
S113014031010E941502FF91EF91BF91AF919F91F0
S11301508F917F916F915F914F913F912F910F906C
S11301600FBE0F901F9018950F931F93CF93DF939B
S1130170089A88E480B980E895E20E942D028A9862
S1130180929A85B7826085BF78940E940F0282EAB2
S11301900E941B028DE00E941B0283E80E941B0246
S11301A00E94150280E690E00E9454020E946002C0
S11301B08093330185E890E00E94540280913301DA
S11301C0882309F4ABC088E890E00E9454020E949E
S11301D060020E9449008093310185E890E00E940A
S11301E0540286E990E00E9454020E9460020E9438
S11301F049008093340185E890E00E94540280EA2B
S113020090E00E9454020E9460020E944900809380
S1130210320185E890E00E94540288EA90E00E944E
S113022054020DE011E0C0E0D0E0CE016AE00E948B
S1130230E20289EB90E00E945402C8010E94540239
S113024085E890E00E94540221960C5F1F4FC7304E
S1130250D10559F78CEB90E00E9454020E94600291
S113026080932F0185E890E00E9454028BED90E08A
S11302700E9454020E9460020E944900809333014C
S113028085E890E00E94540285EE90E00E945402BA
S11302900E9460020E9449008093300185E890E04A
S11302A00E9454028EEE90E00E9454020E9460026A
S11302B00E94490080930B0185E890E00E9454025B
S11302C080E49CE90197F1F70E940F0282EA0E9400
S11302D01B0282E00E941B0280910B010E941B0200
S11302E0809130010E941B02809133010E941B0205
S11302F0809132010E941B0280912F010E941B02F7
S1130300809134010E941B02809131010E941B02E2
S11303100E94150288EF90E00E94540280910B0124
S113032080930C018BB780648BBF90910B018091FB
S11303300C019817D1F380910B0180930C018091EB
S11303403301803118F480E30E944202809133012A
S113035090E060E10E94E2028AE30E9442028091FE
S11303603001803118F480E30E9442028091300110
S113037090E060E10E94E2028AE30E9442028091DE
S11303800B01803118F480E30E94420280910B013A
S113039090E060E10E94E20280E20E9442028091C9
S11303A02F0190E0880F991F880F991F835F9E4F3C
S11303B00E94540280E20E94420280913201803104
S11303C018F480E30E9442028091320190E060E1DF
S11303D00E94E2028DE20E94420280913401803147
S11303E018F480E30E9442028091340190E060E1BD
S11303F00E94E2028DE20E9442028091310180312A
S113040018F480E30E9442028091310190E060E19F
S11304100E94E20285E890E00E94540286CF84EABA
S113042086BF06B607FEFDCF089584E986BF06B6EB
S113043004FCFDCF089583B984E886BF06B607FEA1
S1130440FDCF0895882311F484E801C084EC86BFAD
S113045006B607FEFDCF83B108959C0140E050E04D
S113046060E472E48FE090E00E9410032150304079
S113047030BD29B988E18AB986E880BD8AB1886926
S11304808AB90895282F90912C019F5F9F708091C5
S11304902D019817E1F3E92FF0E0EB5CFE4F208388
S11304A090932C01559A0895CF93DF93EC0102C0E9
S11304B00E94420289918823D9F7DF91CF91089550
S11304C01F93CF93DF93C0E0D0E090912B018091F4
S11304D02A019817D1F380912B018F5F8F7080933D
S11304E02B01E0912B01F0E0EB5BFE4F1081112317
S11304F061F31D3099F0812F0E944202CE0133E056
S1130500880F991F3A95E1F7CC0FDD1F8C0F9D1FC3
S1130510C12FD0E0E097C80FD91FD7CFCE01DF910C
S1130520CF911F9108951F920F920FB60F9211242D
S11305308F939F93EF93FF9390912A019F5F9F70F6
S113054080912B01981751F090932A01E0912A0190
S1130550F0E08CB1EB5BFE4F808304C081E08093BC
S11305602E018CB1FF91EF919F918F910F900FBE4F
S11305700F901F9018951F920F920FB60F9211248F
S11305808F939F93EF93FF9390912D0180912C0172
S1130590981771F080912D018F5F8F7080932D01DA
S11305A0E0912D01F0E0EB5CFE4F80818CB901C03D
S11305B05598FF91EF919F918F910F900FBE0F90DF
S11305C01F9018950F931F93DF93CF93CDB7DEB78A
S11305D064970FB6F894DEBF0FBECDBF462F8E01D1
S11305E00F5F1F4FB80150E00E943203C8010E9400
S11305F0540264960FB6F894DEBF0FBECDBFCF9100
S1130600DF911F910F910895991B79E004C0991F00
S1130610961708F0961B881F7A95C9F78095089558
S1130620A1E21A2EAA1BBB1BFD010DC0AA1FBB1FF2
S1130630EE1FFF1FA217B307E407F50720F0A21B64
S1130640B30BE40BF50B661F771F881F991F1A94D1
S113065069F760957095809590959B01AC01BD01FB
S1130660CF010895FB019F01E8944230C4F0453264
S1130670B4F44A3029F497FB1EF4909581959F4F6A
S1130680642F77270E946303805D8A330CF0895DB1
S11306908193CB010097A1F716F45DE25193108288
S11306A0C9010C945303DC01FC01672F719177237A
S11306B0E1F7329704C07C916D9370836291AE1719
S11306C0BF07C8F30895AA1BBB1B51E107C0AA1FAB
S11306D0BB1FA617B70710F0A61BB70B881F991FDF
S11306E05A95A9F780959095BC01CD010895F89489
S10506F0FFCF36
S11306F25573746177696320696E6E7920637A61D8
S1130702733F2028302D4E4945202020312D54415D
S11307124B293A20000D0A00526F6B202830302DED
S11307223939293A20004D6965736961633A2000B9
S1130732447A69656E3A2000447A69656E20747958
S1130742676F646E69610D0A002D3E00506F64612B
S11307526A206C69637A6265207A207A616B7265B9
S113076273752028302D36293A2000476F647A6940
S11307726E613A20004D696E7574613A20005365CA
S11307826B756E64613A2000437A6173207A6170FA
S11307926973616E792121210D0A00FFFF204E64E5
S11307A200506F6E002057740020537200437A7712
S10D07B20020507400205362000080
S9030000FC
