S0100000414E445F375345472E73726563CC
S11300000C9432000C9444000C9444000C9444006E
S11300100C9444000C9444000C9444000C9444004C
S11300200C9444000C9444000C94A9000C944400D7
S11300300C9444000C9444000C9444000C9444002C
S11300400C9444000C9444000C9444000C9444001C
S11300500C9444007E0CB69ECCDAFA0EFEDEEEF86A
S113006072BCF2E211241FBECFE5D8E0DEBFCDBFE3
S113007020E0A0E6B0E001C01D92A736B207E1F788
S11300800E94EB000C9433010C9400008FEF8BBBA7
S11300908ABB85B3806F85BB84B3806F84BB83B711
S11300A0886083BF86E28CBF83B7856083BF89B7CE
S11300B0826089BF08951F93CF93DF93FC01162FAD
S11300C040E050E09F01ADECBCEC0E942701DC0154
S11300D0B695A795B695A795B695A7959D01220FB8
S11300E0331FCD01880F991F880F991F880F991FFF
S11300F0820F931FE81BF90BEC5AFF4FE491EA01BE
S1130100C05ADF4FE883FD014F5F5F4F4430510514
S1130110C9F610FF05C0E0E6F0E0808181608083CD
S113012011FF05C0E1E6F0E080818160808312FF69
S113013005C0E2E6F0E080818160808313FF05C0A2
S1130140E3E6F0E0808181608083DF91CF911F91AD
S113015008951F920F920FB60F9211248F939F93BD
S1130160EF93FF938091640090E001968370907800
S11301708093640095B3906F95BBE82FF0E0E05A4C
S1130180FF4F908190959BBB813041F028F08230E5
S113019039F0833041F406C0AC9805C0AD9803C073
S11301A0AE9801C0AF988091650090916600892B4C
S11301B049F08091650090916600019790936600E4
S11301C080936500FF91EF919F918F910F900FBEE7
S11301D00F901F9018950E9446007894C0E0D0E0DC
S11301E00F2EF0E1EF2EF7E2FF2EF02D08E210E0E3
S11301F062E0CE010E945B00AE014F5F5F4F9A0147
S1130200329522952F7023273F702327A7E4B3E06C
S11302100E942701EC01D695C795D695C795D6952A
S1130220C795CE9DC001CF9D900DDE9D900D1124EC
S1130230EA01C81BD90B1093660000936500000007
S11302408091650090916600892BD1F7D1CFA29F50
S1130250B001B39FC001A39F01D0B29F700D811D57
S10D02601124911D0895F894FFCFB6
S9030000FC
