:100000000C9449010C946E010C946E010C946E01D9
:100010000C946E010C946E010C946E010C946E01A4
:100020000C946E010C946E010C946E010C946E0194
:100030000C946E010C946E010C946E010C946E0184
:100040000C946E010C946E010C946E010C946E0174
:100050000C946E0105082091000000000000005F74
:1000600000000007000700147F147F14242A7F2A51
:10007000122313086462364955225000050300001C
:10008000001C2241000041221C0014083E081408F4
:10009000083E080800503000000808080808006002
:1000A00060000020100804023E5149453E00427F96
:1000B000400042615149462141454B311814127F9D
:1000C0001027454545393C4A494930017109050326
:1000D0003649494936064949291E0036360000008E
:1000E0005636000008142241001414141414004160
:1000F0002214080201510906324979413E7E11114C
:10010000117E7F494949363E414141227F4141228A
:100110001C7F494949417F090909013E4149497A02
:100120007F0808087F00417F41002040413F017F58
:10013000081422417F404040407F020C027F7F0430
:1001400008107F3E4141413E7F090909063E415169
:10015000215E7F09192946464949493101017F013C
:10016000013F4040403F1F2040201F3F4038403F5C
:100170006314081463070870080761514945430078
:100180007F41410002040810200041417F00040229
:100190000102044040404040000102040020545449
:1001A00054787F48444438384444442038444448D0
:1001B0007F3854545418087E0901020C5252523EA2
:1001C0007F0804047800447D40002040443D007FC7
:1001D0001028440000417F40007C041804787C080B
:1001E00004047838444444387C1414140808141463
:1001F000187C7C080404084854545420043F4440AC
:10020000203C4040207C1C2040201C3C4030403C96
:1002100044281028440C5050503C4464544C440032
:100220000836410000007F00000041360800080841
:1002300005030708085060707E1111917E3C42460C
:1002400043247F4949C9417F484440407E081221E8
:100250007E3C4246433C444A4A4B3262564B4642FD
:1002600062524B4642205454D47838444645203894
:100270005454D41800517F44007C08060578384453
:1002800046453848545655204464564D44446455B8
:100290004C4411241FBECFE5D8E0DEBFCDBFE2E95C
:1002A000F0E08AEA98E08193EF35F907E1F710E092
:1002B000A0E6B0E0E8E1FAE102C005900D92AC38AA
:1002C000B107D9F720E0ACE8B0E001C01D92A23937
:1002D000B207E1F70E94CA0C0C940A0D0C940000BE
:1002E000680F711DFB0180818093600008958091EB
:1002F0006000E82FE695E695E695F0E0EE0FFF1F2B
:10030000E859FF4F0190F081E02D2291382F37708E
:1003100081E090E0032E01C0880F0A94EAF7282BB1
:100320002083E0916C00F0916D0082918260808367
:10033000AAE6B0E0ED91FC911197829182608083F2
:10034000ED91FC9182918460808308950F931F93B7
:10035000CF93DF9300D0CDB7DEB78C0111C0F80189
:1003600091918F019093600069838A830E94770145
:10037000EFE3FCE93197F1F700C000008A81698161
:10038000902F981B961758F30F900F90DF91CF91F5
:100390001F910F91089590916000E92FE695E695E1
:1003A000E695F0E0EE0FFF1FE859FF4F0190F08156
:1003B000E02D4081977021E030E001C0220F9A9536
:1003C000EAF7209524232083E0916C00F0916D00E2
:1003D00090819D7F9083E0916A00F0916B00908105
:1003E0009D7F9083E0916A00F0916B0090819B7FEC
:1003F0009083A0E7B0E090E09C010D9002C0220F36
:10040000331F0A94E2F7E0916C00F0916D0027FF32
:1004100003C02081226002C020812D7F2083E091D3
:100420006A00F0916B00208122602083E0916A00D5
:10043000F0916B0020812D7F208320E0A837B20748
:10044000D9F6E0916A00F0916B008081846080832E
:100450000895E0916A00F0916B00882319F0808183
:10046000816002C080818E7F808380916300E82F4D
:10047000E695E695E695F0E0EE0FFF1FE859FF4F91
:100480000190F081E02D2081382F377081E090E0DD
:1004900001C0880F3A95EAF780958223808388E02F
:1004A00090E020E8322F3623E0916A00F0916B0053
:1004B000332319F03081306202C030813F7D3083B8
:1004C000E0916A00F0916B00308130683083EFEC8E
:1004D000F7E03197F1F700C00000E0916A00F09179
:1004E0006B0030813F77308326950197D9F6809154
:1004F0006300E82FE695E695E695F0E0EE0FFF1F26
:10050000E859FF4F0190F081E02D2081382F37709E
:1005100081E090E0032E01C0880F0A94EAF7282BAF
:1005200020830895FB0193E0899FE00DF11D1124C4
:1005300080818093610081818093620082818093B9
:10054000630060E280E00E9429026CE080E00C948D
:10055000290280916300E82FE695E695E695F0E0A4
:10056000EE0FFF1FE859FF4F0190F081E02D22911F
:10057000382F377081E090E001C0880F3A95EAF794
:10058000282B2083EAE6F0E0A081B1818E9180647F
:100590008C93A081B1818E9181608C93A081B18177
:1005A0008E9180628C93A081B1818E9180688C93B2
:1005B000A081B1818C918F7B8C938FEC97E0019718
:1005C000F1F700C000000190F081E02D808180648F
:1005D000808361E280E00E94290268EC80E00E9452
:1005E000290266E080E00E94290263E180E00E9427
:1005F000290260E280E00E9429026CE080E00C9415
:100600002902CF93C82F61E280E00E9429026C2F5B
:10061000606880E00E94290260E280E0CF910C9443
:100620002902813041F028F0823039F0833059F4CA
:1006300006C06CE005C06DE003C068E001C069E081
:1006400080E00C9429020895CF93DF93C0E0D0E0BE
:1006500005C060E081E00E9429022196909161002E
:1006600080916200989FC001112443E09595879581
:100670004A95E1F7C817D90760F3DF91CF91089544
:10068000CF93C62F682F606880E00E9429026C2FEC
:10069000606480E0CF910C94290260E080E00C94CB
:1006A00040038F929F92AF92BF92CF92DF92EF92D0
:1006B000FF920F931F93CF93DF93CDB7DEB764976D
:1006C0000FB6F894DEBF0FBECDBFA82E462F87FF12
:1006D00018C083E1E8E7F0E0DE01119601900D9289
:1006E0008A95E1F7FE01319680E003C08F5F833188
:1006F00041F091919A11FACF823119F010E8A12EB0
:10070000A80EB6E5EB2EB0E0FB2EF7018491A816FB
:1007100008F468C0E7E5F0E0E491EA1508F462C087
:10072000E0E69E2E942292949694F7E09F22242F46
:100730002079842F8470289F900111243595279566
:1007400035952795C22EB22E43FBDD24D0F800E06C
:1007500010E060E00CC06D9D602D11246B2981E0DC
:100760004C8B0E9429020F5F1F4F6C2D4C899012F9
:10077000F2CF912CE4E5F0E08490F701E4908A2D2B
:1007800090E08E199109889E8001899E100D112498
:1007900050E1E52EE42270E8A72EA42213C0F80150
:1007A000E90DF11DE85AFF4FF490FE28FA286D9DDF
:1007B000602D11246F2981E04C8B0E9429029394B3
:1007C0006F2D4C89981458F3142F137009C06D9D28
:1007D000602D11246B2981E00E94290211506C2D9B
:1007E0001111F5CF64960FB6F894DEBF0FBECDBFE2
:1007F000DF91CF911F910F91FF90EF90DF90CF90FD
:10080000BF90AF909F908F9008950F931F93CF93B9
:10081000DF93EC01062F10E00EC0BE01812F0E9475
:1008200092020E94A9020E944D0360E0812F805D28
:100830000E9451031F5F1013F0CFDF91CF911F91E2
:100840000F9108951F93CF93DF93162FEC0103C0F0
:10085000612F0E94510389918111FACFDF91CF91CD
:100860001F910895420290011124FC0180E090E064
:100870005FEF0FC0613041F018F0633041F402C007
:10088000108205C0508303C040814095408301968B
:1008900031968217930771F708955F926F927F9256
:1008A0008F929F92AF92BF92CF92DF92EF92FF9280
:1008B0000F931F93CF93DF93682E742E522E112720
:1008C00007FD1095EB01C12CD12CFF24E7FCF0941F
:1008D00080E8782A25C0652D6C0D606480E00E9458
:1008E0002902672D80E00E9429025E01812C912C53
:1008F0000FC0F501662011F0649101C0608181E0B4
:100900000E942902FFEF8F1A9F0A8FEFA81AB80AD8
:100910008016910670F3EFEFCE1ADE0AC00FD11FDA
:10092000CE14DF04C0F2DF91CF911F910F91FF90A1
:10093000EF90DF90CF90BF90AF909F908F907F907F
:100940006F905F900895882321F08093640080E089
:100950000895809164000895EF920F93CF93DF93F1
:1009600047FD88C040170CF085C027FD83C0C22F0B
:10097000DD27C7FDD0953E2D58E03502D00111246A
:10098000CA17DB070CF076C030916400333061F099
:10099000343091F03230C1F4322F34272327402FE6
:1009A00041503227431B10C04095400F209538E03E
:1009B000E39E200D112408C04227242742272095BA
:1009C00058E0E59E200D11246130D1F120F0623015
:1009D00009F050C01AC0E22F27FDE95FE595E595C3
:1009E000E595E002F0011124E40FF11D47FDFA95B1
:1009F000E80FF91F277081E090E0022E01C0880FF8
:100A00000A94EAF79081982B34C0E22F27FDE95F22
:100A1000E595E595E595E002F0011124E40FF11D5F
:100A200047FDFA95E80FF91F277081E090E0022E4C
:100A300001C0880F0A94EAF780959081982319C025
:100A4000E22F27FDE95FE595E595E595E002F001E8
:100A50001124E40FF11D47FDFA95E80FF91F2770E7
:100A600081E090E0022E01C0880F0A94EAF790819D
:100A700098279083DF91CF910F91EF9008954F9237
:100A80005F926F927F928F929F92AF92BF92CF921E
:100A9000DF92EF92FF920F931F93CF93DF93EC01BE
:100AA000B62EF42E122F502E7E2C40172CF4602ED2
:100AB000641A9924939404C0642E601A99249A9419
:100AC00017152CF4D72CD11A8824839404C0D12E66
:100AD000D71888248A94EA2C0C2D212F4F2D6B2DAA
:100AE000CE010E94AC048D2D992787FD9095E62DAF
:100AF000FF27E7FDF095D614E4F48E1B9F0B482EDC
:100B0000440CDD0C7D2C761811C04F2D490D77FC5F
:100B100004C0F42E180D740C02C07D0CF42EEA2CC7
:100B20000C2D212F6B2DCE010E94AC04F510EDCFC2
:100B30001CC0E81BF90B5E2E550C660C862D8D191A
:100B4000D82E11C0212F280DD7FC04C0F90C122F6C
:100B5000D50C02C0D60C122FEA2C0C2D4F2D6B2D6C
:100B6000CE010E94AC041711EDCFDF91CF911F9100
:100B70000F91FF90EF90DF90CF90BF90AF909F903C
:100B80008F907F906F905F904F9008957F928F929B
:100B90009F92AF92BF92CF92DF92EF92FF920F930C
:100BA0001F93CF93DF93EC01162F942E822E702E7D
:100BB000FE2CE22E0E943F05EF2C282D472D612FA1
:100BC000CE010E943F05092D2F2D472D612FCE010B
:100BD0000E943F05E82C2F2D492D612FCE010E9448
:100BE0003F05DF91CF911F910F91FF90EF90DF9024
:100BF000CF90BF90AF909F908F907F9008957F92FD
:100C00008F929F92AF92BF92CF92DF92EF92FF921C
:100C10000F931F93CF93DF93EC01D62EB42E902E1B
:100C20001E2D8C2C7A2CE2161CF42E25122721273F
:100C3000F22E0BC0A72CC82CEF2C092D2F2D4B2DDD
:100C40006D2DCE010E943F05F3941F159CF7DF9197
:100C5000CF911F910F91FF90EF90DF90CF90BF90B9
:100C6000AF909F908F907F9008952F923F924F92D8
:100C70005F926F927F928F929F92AF92BF92CF922C
:100C8000DF92EF92FF920F931F93CF93DF9300D0E9
:100C90001F92CDB7DEB79B838A83F62E742E622E09
:100CA000DE2C11E0101B802EAA24A394B12C912CD1
:100CB00060C0392D360D382C370CEC2C0D2D232F20
:100CC000432D6F2D8A819B8139830E94AC04282C8F
:100CD000260C592C570C222D452D6F2D8A819B8176
:100CE0000E94AC04472C48183981232F442D6F2DC6
:100CF0008A819B810E94AC04372D3919222D432F04
:100D00006F2D8A819B8139830E94AC04262C29187F
:100D1000222D442D6F2D8A819B810E94AC04462C8C
:100D20004818242D3981432F6F2D8A819B810E9481
:100D3000AC04222D432D6F2D8A819B810E94AC042F
:100D4000242D452D6F2D8A819B810E94AC049394A4
:100D500017FF03C01F5F892D07C08A94C50188193A
:100D6000910987FC93950196880F180F8FEFA81AA9
:100D7000B80A89140CF09DCF0F900F900F90DF915F
:100D8000CF911F910F91FF90EF90DF90CF90BF9088
:100D9000AF909F908F907F906F905F904F903F901B
:100DA0002F9008952F923F924F925F926F927F9271
:100DB0008F929F92AF92BF92CF92DF92EF92FF926B
:100DC0000F931F93CF93DF93CDB7DEB7A0970FB6E6
:100DD000F894DEBF0FBECDBF9D8B8C8B4A012E8B4E
:100DE0000F8B3E2C2C2CA7FE18C083E1E8E7F0E027
:100DF000DE01119601900D928A95E1F7FE01319680
:100E000090E003C09F5F933141F081918A11FACF46
:100E1000923119F030E8A32EA90ED4011296FD01EB
:100E20008491A81608F48BC0F4013396E491EA1576
:100E300008F485C06871862F90E023E0959587952A
:100E40002A95E1F7B82EF401549031964490442D40
:100E500050E09A012150310937FF03C09A012A5FFF
:100E60003F4F93E0359527959A95E1F72F5FDE8800
:100E7000612C712C888FFD01A4918A2D90E08A1B32
:100E80009109589EA001599E500D11245E8F4D8FDF
:100E9000622F70E078A36F8F38C0E12FE695E6955A
:100EA000E695F0E034968A8D9B8DE80FF91FE80DEA
:100EB000F91DE491F0E0812F877002C0F595E79568
:100EC0008A95E2F7E0FF19C0B1100BC02F89210FFE
:100ED000E22C032D4C8D60E08C899D890E94AC042E
:100EE0000CC0E88CEF0CA22CC32C098D2F2D4D2D9E
:100EF00060E08C899D890E94FF051F5FFB0C141127
:100F0000CCCF9FEF691A790ADB0C6514C0F4588DB9
:100F10005D0D598FFF8810E08D8D9E8D860D971D7C
:100F2000EF8DF8A18E9FB0018F9F700D9E9F700D69
:100F300011247B8F6A8F5E89560D5C8FE0CFA0965F
:100F40000FB6F894DEBF0FBECDBFDF91CF911F91DA
:100F50000F91FF90EF90DF90CF90BF90AF909F9058
:100F60008F907F906F905F904F903F902F9008955B
:100F70002F923F924F925F926F927F928F929F92A9
:100F8000AF92BF92CF92DF92EF92FF920F931F9397
:100F9000CF93DF9300D01F92CDB7DEB71C01D62EC2
:100FA0002A01F22E902E3E2D7C2D8982862F88716B
:100FB0008695869586953501FA011491819F100DCD
:100FC00011240FC08980C72EE32E092D2F2DA201D9
:100FD0006D2DC1013A837B830E94D206F10E7B8185
:100FE0003A81F301A1903F01A110ECCF0F900F9037
:100FF0000F90DF91CF911F910F91FF90EF90DF90B5
:10100000CF90BF90AF909F908F907F906F905F90A8
:101010004F903F902F900895E0916C00F0916D00FB
:1010200080818F778083E0916C00F0916D008291D8
:10103000806880838FEB93E00197F1F700C0000098
:101040009FB7F894E0916C00F0916D0082918F77DA
:101050008083EAEAEA95F1F700C0E0916C00F09134
:101060006D00329780819FBFEFE3F3E03197F1F796
:1010700000C00000E0916C00F0916D00329790810B
:1010800097FF04C0881F8827881F089581E008956E
:101090002FB7F894E0916C00F0916D0092919068F8
:1010A000908395E09A95F1F7000080FF07C0E091EA
:1010B0006C00F0916D0092919F77908392E29A95E7
:1010C000F1F700C0E0916C00F0916D0032979081D3
:1010D000990F990B9823892F92E79A95F1F700C001
:1010E000E0916C00F0916D0092919F77908360FF8A
:1010F0000EC0E0916C00F0916D009081906890833B
:10110000E0916C00F0916D009291906890832FBFF8
:101110009AE19A95F1F700C008951F93CF93DF935A
:10112000C82F162FD8E08C2F8170D13011F060E0DD
:1011300001C0612F0E944808C6958111C068D15036
:1011400091F78C2FDF91CF911F91089560E08FEF81
:101150000C948D08EF92FF920F931F93CF93DF9320
:10116000EC01F62EE42E0E940C0860E0209771F04E
:1011700085E50E948D088E01085F1F4F60E0899110
:101180000E948D08C017D107C9F703C08CEC0E94DC
:101190008D086E2D61708F2DDF91CF911F910F9172
:1011A000FF90EF900C948D081092910010928C009B
:1011B00010928F0010928E0010928D000895DF9291
:1011C000EF92FF920F931F93CF93DF93EC018091E7
:1011D000910081116CC00E940C08882321F00E94AC
:1011E000D4088FEF73C060E080EF0E948D0801E0AB
:1011F000F12CD12C11E060E081E00E944808E82E3B
:1012000060E081E00E944808EE2011F0811155C095
:101210008E2901F590918C00191788F420918D008A
:1012200030918E008F2D90E02115310511F0F901DC
:1012300001C0FE01E80FF91F8081802304C081E016
:10124000191303C00AC0811108C01930C0F51093EA
:101250008F0035C0EE2041F08E2DFE01EF0DF11D07
:101260009081902B908309C0FE01EF0DF11D902F0E
:10127000909580818923808380E060E00E94480807
:101280001F5F000F11F4F39401E087E08F1508F061
:10129000B2CF113440F0D0928C00D11012C081E056
:1012A000809391000EC00E94D4088EEF01C08FEF92
:1012B000D0938E00C0938D0009C08EEF07C0D12E51
:1012C000D3CF8881882379F380E0F2CFDF91CF916B
:1012D0001F910F91FF90EF90DF900895FC0180E047
:1012E0003CE80AC0219198E0422F4827869540FDAE
:1012F000832726959150C1F76150A0F70895E8E63D
:10130000F0E0A081B1818E9181608C93A081B18148
:101310008E9184608C93A081B1818E9182608C9338
:10132000A081B1818C918E7F8C93A081B1818C91B1
:101330008B7F8C930190F081E02D80818D7F808365
:101340000895E0916800F091690020812E7F20834C
:10135000E0916800F091690020812D7F2083E09169
:101360006800F091690020812B7F208320E030E02D
:10137000AC01022E02C0440F551F0A94E2F7E0911F
:101380006800F091690057FF03C04081416002C0CE
:1013900040814E7F4083E0916800F0916900408178
:1013A0004B7F4083E0916800F09169004081446088
:1013B00040832F5F3F4F203A3105D1F6E09168001E
:1013C000F09169008081826080830895FB0193E041
:1013D000899FE00DF11D112480818093650081813A
:1013E000809366008281809367000895A7E6B0E04D
:1013F0002C91E22FE695E695E695F0E0EE0FFF1FC3
:10140000E859FF4F0190F081E02D4081277081E085
:1014100090E0BC0102C0660F771F2A95E2F7462BC9
:1014200040837DE07A95F1F700002C91E22FE6955C
:10143000E695E695F0E0EE0FFF1FE859FF4F0190AB
:10144000F081E02D30812770022E01C0880F0A94B0
:10145000EAF78095832380830895E0916E00F091F0
:101460006F00908180FF02C0906101C09F7E9083D9
:10147000E0916E00F0916F00908181FF02C0906258
:1014800001C09F7D9083E0916E00F0916F0090818C
:1014900082FF02C0906401C09F7B9083E0916E0048
:1014A000F0916F0083FF03C08081806802C080815B
:1014B0008F7780830895EF92FF920F931F93CF93BE
:1014C000DF931F92CDB7DEB7E0916C00F0916D0015
:1014D0009081882311F0906401C09F7B908380915C
:1014E0006700E82EE694E694E694F12CEE0CFF1CDF
:1014F00028E630E0E20EF31ED701ED91FC919081D9
:10150000877001E010E001C0000F8A95EAF7102F04
:10151000902B9083862F82958F7069830E942D0A6D
:10152000D701ED91FC9111979081009590239083C4
:10153000ED91FC919081912B90836981862F0E947F
:101540002D0AD701ED91FC91808180238083EFECFF
:10155000F7E03197F1F700C000000F90DF91CF91D5
:101560001F910F91FF90EF9008950F931F93CF93CA
:10157000DF93E0916E00F0916F0082918061808333
:10158000E0916E00F0916F00829180628083E09123
:101590006E00F0916F00829180648083E0916E0014
:1015A000F0916F00829180688083E0916C00F091EF
:1015B0006D0082918064808320916700E22FE69520
:1015C000E695E695F0E0EE0FFF1FE859FF4F01901A
:1015D000F081E02D4291277081E090E0BC0102C0D3
:1015E000660F771F2A95E2F7462B4083EFE3FCE96D
:1015F0003197F1F700C00000E0916C00F0916D00B0
:1016000020812F7B208320916700E22FE695E695CD
:10161000E695F0E0EE0FFF1FE859FF4F0190F081D3
:10162000E02D3081277001C0880F2A95EAF7809558
:101630008323808313E0C1E0D0E080916700E82F2E
:10164000E695E695E695F0E0EE0FFF1FE859FF4FAF
:101650000190F081E02D20818770AE0102C0440F1F
:10166000551F8A95E2F7242B208383E00E942D0AE0
:1016700080916700E82FE695E695E695F0E0EE0F9D
:10168000FF1FE859FF4F0190F081E02D2081877006
:10169000BE0102C0660F771F8A95E2F7CB018095E5
:1016A000822380838FE097E20197F1F700C000006A
:1016B000115019F600916700C02FC695C695C695C2
:1016C000D0E0CC0FDD1FC859DF4FE881F9812081C0
:1016D000077081E090E0AC0102C0440F551F0A95ED
:1016E000E2F78A01242B208382E00E942D0AE88100
:1016F000F98180810095082300838FEC97E00197A2
:10170000F1F700C0000068E280E00E945B0A68E038
:1017100080E00E945B0A66E080E00E945B0A6CE069
:1017200080E00E945B0A61E080E0DF91CF911F9131
:101730000F910C945B0A0F931F93CF93DF93EC01EF
:10174000062F10E00DC0BE01812F0E94E6090E9405
:10175000B50A8FE39CE90197F1F700C000001F5F15
:101760001013F1CFDF91CF911F910F9108950F9337
:101770001F93CF93DF93082F000F000F000F005C23
:10178000EB0110E0612F600F80E00E945B0A69911D
:1017900081E00E945B0A1F5F1830A1F760E880E0DB
:1017A000DF91CF911F910F910C945B0A1F93CF9300
:1017B000DF93EC0110E4612F80E00E945B0AFE01E0
:1017C000649181E00E945B0A1F5F2196103899F7AF
:1017D00060E880E0DF91CF911F910C945B0A61E09B
:1017E00080E00E945B0A8FEC97E00197F1F700C060
:1017F0000000089562E080E00C945B0A682F81E0AD
:101800000C945B0ACF93DF93EC0102C00E94FE0BA5
:1018100089918111FBCFDF91CF910895E82F862F19
:10182000992787FD90956091660070E00E94E20C18
:10183000982F813011F430E401C030E021E0933082
:1018400009F020E040916500403111F450E501C0FD
:1018500054E5529F502D112421E0923009F020E0F0
:10186000403111F490E101C094E16E2F6058630F94
:10187000650F929F600D112480E00C945B0ACF935A
:10188000DF93EC010E940C0840E064EBCE010E9463
:10189000AA0860E081E00E944808C82F0E940C0856
:1018A00081E0C11180E0DF91CF9108950F931F93E4
:1018B000CF93DF931F92CDB7DEB78C0169830E946F
:1018C0000C08498164E4C8010E94AA0880E00F90D6
:1018D000DF91CF911F910F910895EF92FF920F9397
:1018E0001F93CF93DF931F92CDB7DEB7162F042F30
:1018F00040E06EEB79830E94AA08E12E7981F72EF1
:1019000005C00E94A608F70181937F018E2D811BDF
:101910008017B8F380E00F90DF91CF911F910F9166
:10192000FF90EF900895CF93DF93EC010E94560C47
:101930002FE78FE492E1215080409040E1F700C012
:10194000000040E06EEBCE010E94AA080E94A608AB
:10195000C82FD0E00E94A608582F40E09A012C2BF7
:101960003D2B37FF04C03195219531093068C901FD
:10197000DF91CF910895E2E9F0E020E030E081913D
:101980008A3A31F42F5F3F4FE03688E0F807B8F32A
:10199000C90108950E947F0981E190EF0E94A10989
:1019A00092E02FEF39E688E1215030408040E1F7A6
:1019B00000C00000E0916800F091690080818927F3
:1019C0008083EFCF97FB072E16F4009407D077FDA6
:1019D00009D00E94F60C07FC05D03EF49095819545
:1019E0009F4F0895709561957F4F0895AA1BBB1B6B
:1019F00051E107C0AA1FBB1FA617B70710F0A61B0F
:101A0000B70B881F991F5A95A9F780959095BC012F
:081A1000CD010895F894FFCF09
:101A18001054300C011402073B0038003500320026
:101A28000001020304050607A5C6CAA3D1D38C8FFB
:0C1A3800AFB9E6EAB3F1F39C9FBF0000D9
:00000001FF
