:100000000C942A000C9447000C9447000C94470071
:100010000C9447000C9447000C9447000C94470044
:100020000C9447000C9447000C9447000C94470034
:100030000C9447000C9447000C9447000C94470024
:100040000C9447000C9447000C9447000C94470014
:100050000C94470011241FBECFE5D8E0DEBFCDBF12
:1000600010E0A0E6B0E0EEEBF1E002C005900D92EA
:10007000A838B107D9F720E0A8E8B0E001C01D9288
:10008000A938B207E1F70E9449000C94DD000C94F6
:100090000000E0918600F091870082918068808363
:1000A000979AE0918600F091870080E88083109213
:1000B000880081E090E01FC0F0E0E05AFF4F20810F
:1000C000E22FE695E695E695F0E0EE0FFF1FE0588B
:1000D000FF4F0190F081E02D42912770BC0102C0DA
:1000E000660F771F2A95E2F7462B40832091880000
:1000F0002F5F20938800E0918800E032E8F281E0F1
:1001000090E01092880053C0F0E0E05AFF4F208149
:10011000E22FE695E695E695F0E0EE0FFF1FE0583A
:10012000FF4F0190F081E02D40812770BC0102C09B
:10013000660F771F2A95E2F7462B40837FEFE1EEAB
:10014000F4E07150E040F040E1F700C00000E091C1
:100150008800F0E0E05AFF4F2081E22FE695E69517
:10016000E695F0E0EE0FFF1FE058FF4F0190F081A1
:10017000E02D40812770BC0102C0660F771F2A95D1
:10018000E2F79B01209524232083EFE0F7E23197EB
:10019000F1F700C00000E0918600F0918700208117
:1001A00020582083209188002F5F20938800E091C1
:0E01B0008800E03208F0A5CFA7CFF894FFCF6B
:1001BE00000102030405060708090A0B0C0D0E0FB9
:1001CE00101112131415161718191A1B1C1D1E1FA9
:0801DE003B003800350032003F
:00000001FF
