:100000000C9472000C9497000C9497000C94970039
:100010000C9497000C9497000C9497000C94970004
:100020000C9497000C9497000C9497000C949700F4
:100030000C9497000C9497000C9497000C949700E4
:100040000C9497000C9497000C9497000C949700D4
:100050000C9497000E1111111F111102020E1510B0
:1000600010110E001F10101E10101F021012141875
:1000700010101F000215191513111100020E151191
:1000800011110E00040E100E01110E00041F0902C2
:1000900004081F0000000E010F110F0402040E10CF
:1000A00010110E0000000E111F100E040C040604A7
:1000B0000C040E00020416191111110002040E1195
:1000C00011110E0002040E100E011E0004001F028A
:1000D00004081F00080A0C0818081C00040E1F0A58
:1000E0000A0E0E0E11241FBECFE5D4E0DEBFCDBF39
:1000F000EFEEF0E08AEA94E08193EF35F907E1F75B
:1001000010E0A0E6B0E0E6E0FFE002C005900D924E
:10011000AE3EB107D9F720E0AEEEB0E001C01D92CF
:10012000AF3EB207E1F70E948C030C9481070C9458
:100130000000D298DA9808959FB7F894D29A28E0F0
:100140002A95F1F78111D29880EA8A95F1F7D29831
:100150009FBF08958FB7F894D29A28E02A95F1F7B7
:10016000D29898E29A95F1F799B394708FBF8FEF78
:1001700006C025E02A95F1F70000815039F0CA9BAE
:10018000F8CF81E0911106C080E0089581E080936E
:10019000EE00F7CF0895D29A8FEB93E00197F1F735
:1001A00000C00000D2980895CF93CFB7F8940E9472
:1001B000CB0080E58A95F1F78FEF06C092E09A9523
:1001C000F1F700C0815079F0CA99F8CF8FEF06C0DF
:1001D00095E09A95F1F70000815039F0CA9BF8CF6D
:1001E00009C0CFBF0BC082E001C081E08093EE0068
:1001F00080E0F7CF1092EE0081E0F3CFCF91089529
:10020000CF93DF93D82FC8E08D2F81700E949C0080
:10021000D69583E091E00197F1F700C00000C1504E
:1002200099F7DF91CF910895CF93DF93D8E0C0E0A5
:10023000C6950E94AA008111C0688BE291E00197E7
:10024000F1F700C00000D15099F78C2FDF91CF91CA
:1002500008950F931F93CF93DF93182F092F0E94B8
:10026000D4008823D9F085E50E940001C12FD02F4A
:1002700007E010E08991182798E02CE8169508F41B
:1002800012279A95D9F70E940001015099F7812F02
:10029000DF91CF911F910F910C940001DF91CF91CD
:1002A0001F910F910895DF92EF92FF920F931F938A
:1002B000CF93DF93182FEB01E42E0E94D400812FFF
:1002C0000E94000101E011E0F12C80EA8A95F1F72B
:1002D0000E94AA00D82E90EA9A95F1F70E94AA00EF
:1002E00090EA9A95F1F7DD2039F0882349F083E010
:1002F0008093EE00F12C2BC09881882349F003C035
:100300008881812B03C0812F80958923888310C029
:100310000E1103C0912B988307C0E01628F4812F9B
:1003200080958923888303C08881812309F4F02E76
:100330009881912381E009F480E00E949C00110FD4
:1003400011F4219611E00F5F013409F0BECF8F2D1B
:10035000DF91CF911F910F91FF90EF90DF90089563
:100360008CEC0C940001FC0180E03CE80AC0219177
:1003700098E0422F4827869540FD83272695915087
:10038000C1F76150A0F7089580916200E82FE695CB
:10039000E695E695F0E0EE0FFF1FED59FF4F019057
:1003A000F081E02D2081382F377081E090E0032E1E
:1003B00001C0880F0A94EAF7282B20830895FB01D7
:1003C00093E0899FE00DF11D1124808180936000EE
:1003D0008181809361008281809362000895811100
:1003E0000C94C40180916200E82FE695E695E695AD
:1003F000F0E0EE0FFF1FED59FF4F0190F081E02D6F
:100400002081382F377081E090E0032E01C0880FE3
:100410000A94EAF780958223808308950E94C4019C
:100420008DE08A95F1F7000080E00C94EF0180FFE9
:1004300002C0AA9A01C0AA9881FF02C0AB9A01C06B
:10044000AB9882FF02C0AC9A01C0AC9883FF02C097
:10045000AD9A0895AD980895CF93C62F882311F0D3
:10046000AE9A01C0AE980E94C4018C2F82958F7005
:100470000E94170280E00E94EF010E94C4018C2FAD
:100480000E94170280E00E94EF018FEC97E0019735
:10049000F1F700C00000CF910895CF93A29AA39ADC
:1004A000A49AA59AA69A80916200E82FE695E6950F
:1004B000E695F0E0EE0FFF1FED59FF4F0190F08140
:1004C000E02D2291382F377081E090E001C0880F35
:1004D0003A95EAF7282B20838FE39CE90197F1F7FF
:1004E00000C00000AE9880E00E94EF01C3E00E94CF
:1004F000C40183E00E94170280E00E94EF018FE0B8
:1005000097E20197F1F700C00000C15081F70E9407
:10051000C40182E00E94170280E00E94EF018FEC8C
:1005200097E00197F1F700C0000068E280E00E94C8
:100530002C0268E080E00E942C0266E080E00E94CD
:100540002C026CE080E00E942C0261E080E0CF9100
:100550000C942C02EF92FF920F931F93CF93DF9393
:100560001F92CDB7DEB78B01982F990F990F990F76
:10057000905CE12CF12C6E2D690F80E099830E9434
:100580002C02F801EE0DFF1D649181E00E942C0207
:100590008FEFE81AF80A9981E8E0EE16F10459F7AE
:1005A00060E880E00F90DF91CF911F910F91FF9055
:1005B000EF900C942C021F93CF93DF93EC0110E487
:1005C000612F80E00E942C02FE01649181E00E9474
:1005D0002C021F5F2196103899F760E880E0DF91C8
:1005E000CF911F910C942C0261E080E00C942C02BE
:1005F00087FF44C0893B19F1863E19F18A3E19F103
:10060000833B19F1813F19F1833F19F18C3919F1BD
:100610008F3919F18F3B09F1853A09F1863C09F1CF
:100620008A3C09F1833A09F1813D09F1833D09F1E1
:100630008C3809F18F3809F18F3A01F51EC081E637
:100640001DC083E61BC085E619C08CE617C08EE688
:1006500015C08FE613C083E711C08AE70FC081E49D
:100660000DC083E40BC085E409C08CE407C08EE4B0
:1006700005C08FE403C083E501C08AE5682F81E0EF
:100680000C942C02CF93DF93EC0102C00E94F8027D
:1006900089918111FBCFDF91CF910895613011F0E5
:1006A00090E001C090E4682F6058690F80E00C94DE
:1006B0002C0260E080E00C944E03EFEEF0E020E0CE
:1006C00030E081918A3A31F42F5F3F4FE03684E089
:1006D000F807B8F3C901089583B7886083BF83B76B
:1006E000836083BF89EF8CBF89B7826089BF08951B
:1006F000CF93DF93EC010E94F402CE010E944203EB
:100700002FEF84E39CE0215080409040E1F700C04F
:100710000000DF91CF910895CF93DF93CDB7DEB77F
:1007200067970FB6F894DEBF0FBECDBF6BE670E0E3
:1007300080E00E94DF010E944D026BE670E081E0E4
:100740000E94DF010E944D026BE670E082E00E9491
:10075000DF010E944D020E94F40284E790E00E94B3
:100760009F040E9442032FEF8DE399E421508040C3
:100770009040E1F700C0000081EE90E00E9442034B
:10078000EFEFF7EA21E6E150F0402040E1F700C04A
:1007900000008FEC97E00197F1F700C0000089E0BE
:1007A000F0E0E0E080935700E491EFECF7E0319760
:1007B000F1F700C00000E3E0F0E080935700E4911F
:1007C000EFECF7E03197F1F700C00000E1E0F0E076
:1007D00080935700E491EFECF7E03197F1F700C018
:1007E0000000E2E0F0E08093570084918FEC97E006
:1007F0000197F1F700C000008DE790E00E944203EE
:100800009FEFEDE3F9E49150E040F040E1F700C0E4
:1008100000000E94990080E890E00E9478038CE933
:1008200090E00E9478031F928EE18F9380EB90E01E
:100830009F938F938E010F5F1F4F1F930F930E9403
:10084000A904C8010E9478031092EE000F900F9047
:100850000F900F900F900F90F12C4E0128E1820E17
:10086000911C80EBA82E80E0B82E91E1492E27E163
:10087000522E3EECC32E30E0D32E4F2DBE01605FD2
:100880007F4F80EF0E945301F82E8FE79FE4E2E153
:1008900081509040E040E1F700C0000067E0CE01E9
:1008A00040960E94B301E82ECE0140963C01F30130
:1008B00081913F011F928F93BF92AF921F930F932D
:1008C0000E94A904C8010E9442030F900F900F904C
:1008D0000F900F900F906814790449F7FFEF2DE304
:1008E00089E4F15020408040E1F700C00000C801D9
:1008F0000E94780385EB90E00E9478038F898E1127
:100900001BC08EEB90E00E9478034F925F921F9283
:100910001F921F92FF921F92EF92DF92CF921F932E
:100920000F930E94A904C8010E9478030FB6F8949F
:10093000DEBF0FBECDBFA1CF86EC90E0E4CFDC01DF
:100940006C9161566A3108F0605E6F5B6D93C1F720
:100950000895AEE0B0E0EFEAF4E00C9458070D899A
:100960001E8986E08C831A8309838FEF9FE79E831D
:100970008D83AE01475E5F4F6F89788DCE01019602
:100980000E94CC042F813885020F131FF8011082BA
:100990002E96E4E00C947407ABE0B0E0E2EDF4E0F6
:1009A0000C944A077C013B018A01FC0117821682E4
:1009B000838181FFC8C1CE0101965C01F70193815B
:1009C000F30193FD859193FF81913F01882309F401
:1009D00053C1853239F493FD859193FF81913F0195
:1009E000853229F4B70190E00E94BC06E7CF912C34
:1009F000212C312CFFE1F31538F08B3211F190F4FA
:100A0000803209F1833229F137FC3CC020ED280FF8
:100A10002A3050F536FE20C08AE0989E200D112421
:100A2000922E06C08D3291F0803371F7689430F8C1
:100A3000F30193FD859193FF81913F018111DACFFD
:100A400021C0689431F8689432F8F2CF689433F892
:100A5000EFCF689434F8ECCFEAE02E9E200D1124FD
:100A6000222E689435F8E4CF8E3229F436FC04C186
:100A7000689436F8DDCF8C3619F4689437F8D8CFFF
:100A80008836B1F2982F9F7D95549330E0F08336ED
:100A9000A1F18337C1F1833509F063C02801F2E089
:100AA0004F0E511CF801C080D180692D70E036FCDA
:100AB00002C06FEF7FEFC6010E94A6064C0168944A
:100AC00037F882010AC00C5F1F4FFFE3F9838824C7
:100AD0008394912C6501E89437F833FE2DC0522C95
:100AE0008114910471F5552009F468CFB70180E2B3
:100AF00090E00E94BC065A94F6CFF8018081898369
:100B00000E5F1F4FE4CF2801F2E04F0E511CF80199
:100B1000C080D180692D70E036FC02C06FEF7FEF9E
:100B2000C6010E94B1064C018201D5CFB70180E217
:100B300090E00E94BC062A942814190409F0B0F72A
:100B4000CECFF60137FC859137FE81916F01B70159
:100B500090E00E94BC0651105A94F1E08F1A91085F
:100B6000BFCF843619F0893609F077C0F80137FE17
:100B70006BC060817181828193810C5F1F4FF32D67
:100B8000FF763F2E97FF09C09095809570956195EF
:100B90007F4F8F4F9F4F689437F82AE030E0A501D0
:100BA0000E94EC06C82ECA188C2C432C36FE0CC0B2
:100BB000E89440F8C91440F434FE05C032FC03C088
:100BC000F32DFE7E4F2E892C44FE95C0FE01EC0DC8
:100BD000F11D8081803309F087C0242D297E422EAB
:100BE000842D8870582E43FC95C040FE8FC09C2CED
:100BF000821418F42C0C922C981844FE91C0B70162
:100C000080E390E00E94BC0642FE09C088E790E0C5
:100C100041FE02C088E590E0B7010E94BC06C914FD
:100C200008F48AC0CA94D12C9FEFC91AD90ACA0CF9
:100C3000DB1CF60182916F01B70190E00E94BC06B7
:100C4000AC14BD04B1F74FCF60817181072E000C49
:100C5000880B990B0E5F1F4F92CFD32CE894D4F8DA
:100C60002AE030E0853739F1232D297FD22E8F36C7
:100C700001F148F48835A9F0F701868197812B9618
:100C8000E2E10C946607803749F08837A9F7D4FE73
:100C900002C06894D2F820E130E00DC06894D4F826
:100CA000F6CF34FE03C0822F8660D82E20E132E0DA
:100CB00002C028E030E0F801D7FE0FC060817181EA
:100CC000828193810C5F1F4FA5010E94EC06C82E04
:100CD000CA183D2CE89437F867CF6081718190E0A5
:100CE00080E00E5F1F4FF0CF42FC02C0839478CFAC
:100CF0008394839475CF842D867809F471CFF6CFD1
:100D0000B70180E290E00E94BC0683948214C0F395
:100D1000512C73CF522C5818821408F46ECFF8CF90
:100D2000842D867809F47BCF8BE241FE80E247FC7C
:100D30008DE2B70190E071CFB70180E390E00E94AF
:100D4000BC069A946CCF8FEF9FEF99CFFC01059072
:100D5000615070400110D8F7809590958E0F9F1FBD
:100D60000895FC016150704001900110D8F7809502
:100D700090958E0F9F1F08950F931F93CF93DF932E
:100D8000182F092FEB018B8181FD09C01FEF0FEF99
:100D9000812F902FDF91CF911F910F91089582FFA6
:100DA00014C02E813F818C819D81281739073CF426
:100DB000E881F981CF0101969983888310838E8120
:100DC0009F8101969F838E83E3CFE885F985812FEC
:100DD0000995892BA1F3DACFFA01AA27283051F11E
:100DE000203181F1E8946F936E7F6E5F7F4F8F4F5C
:100DF0009F4FAF4FB1E03ED0B4E03CD0670F781FBB
:100E0000891F9A1FA11D680F791F8A1F911DA11D9F
:100E10006A0F711D811D911DA11D20D009F46894D8
:100E20003F912AE0269F11243019305D3193DEF680
:100E3000CF010895462F4770405D4193B3E00FD036
:100E4000C9F7F6CF462F4F70405D4A3318F0495D21
:100E500031FD4052419302D0A9F7EACFB4E0A69504
:100E60009795879577956795BA95C9F70097610526
:100E7000710508959B01AC010A2E0694579547957C
:100E800037952795BA95C9F7620F731F841F951F71
:100E9000A01D08952F923F924F925F926F927F9282
:100EA0008F929F92AF92BF92CF92DF92EF92FF927A
:100EB0000F931F93CF93DF93CDB7DEB7CA1BDB0B26
:100EC0000FB6F894DEBF0FBECDBF09942A883988CB
:100ED00048885F846E847D848C849B84AA84B984D2
:100EE000C884DF80EE80FD800C811B81AA81B981DE
:100EF000CE0FD11D0FB6F894DEBF0FBECDBFED01F2
:060F00000895F894FFCFF4
:100F06001002073B003800350032001002071004BB
:100F16000614020561746D65676131360039380063
:100F2600537461727420736B616E6F77616E696161
:100F3600206D616769737472616C69005365702016
:100F46002036203230323432313A33343A343900B2
:100F56002530325800202F20706F733A20004352FC
:100F660043204F4B2E00435243204552520025301A
:100F7600325820256420252B3033692E25303469DC
:0E0F86000053657020203620323032340000D7
:00000001FF
