:100000000C942A000C944F000C944F000C944F0059
:100010000C944F000C944F000C944F000C944F0024
:100020000C944F000C944F000C944F000C944F0014
:100030000C944F000C9476000C9488000C944F00A4
:100040000C944F000C944F000C944F000C944F00F4
:100050000C944F0011241FBECFE5D8E0DEBFCDBF0A
:10006000E5EFF5E08AEA98E08193EF35F907E1F7EB
:1000700015E0A0E6B0E0E0EAFDE102C005900D92D7
:10008000A23CB107D9F725E0A2ECB5E001C01D9272
:10009000A53FB207E1F70E94350A0C94CE0E0C94EE
:1000A000000010BC89E189B9599886E880BD88E1D3
:1000B0008AB90895E0E6F0E080E090E02191211116
:1000C00009C0FC01E05AFF4F8DE080838AE0818304
:1000D000128204C001968E31910581F75D9BFECF9F
:1000E0001092C5051092C405559A08951F920F925B
:1000F0000FB60F9211248F938CB18093C30581E0CA
:100100008093C2058F910F900FBE0F901F9018958E
:100110001F920F920FB60F9211242F938F939F93DC
:10012000EF93FF93E091C405F091C505E05AFF4FAE
:100130008081882379F08091C4059091C505FC01E8
:10014000E05AFF4F20812CB901969093C50580930A
:10015000C40501C05598FF91EF919F918F912F9108
:100160000F900FBE0F901F9018955D9BFECF8CB91E
:100170000895CF93DF93EC0102C00E94B5008991EE
:100180008111FBCFDF91CF910895CF93DF93EC01E5
:1001900002C00E94B500FE01219684918111F9CF21
:1001A000DF91CF910895CF93DF93CDB7DEB72A9734
:1001B0000FB6F894DEBF0FBECDBF4AE050E0BE01DF
:1001C0006F5F7F4F0E94690ECE0101960E94B900B9
:1001D0002A960FB6F894DEBF0FBECDBFDF91CF9148
:1001E0000895CF93DF93CDB7DEB72F970FB6F8946E
:1001F000DEBF0FBECDBF2AE030E0AE014F5F5F4FE4
:100200000E948A0E0E94B9002F960FB6F894DEBFA6
:100210000FBECDBFDF91CF9108958F708A3010F05F
:10022000895C01C0805D0C94B500CF93C82F829586
:100230008F700E940D018C2FCF910C940D01FB014A
:1002400093E0899FE00DF11D1124808180937E0051
:10025000818180937F008281809380000895A0E84F
:10026000B0E02C91E22FE695E695E695F0E0EE0FF2
:10027000FF1FEF57FF4F0190F081E02D4081277065
:1002800081E090E0BC0102C0660F771F2A95E2F77B
:10029000462B40837DE07A95F1F700002C91E22F08
:1002A000E695E695E695F0E0EE0FFF1FEF57FF4F5E
:1002B0000190F081E02D30812770022E01C0880F5F
:1002C0000A94EAF78095832380830895E09185005E
:1002D000F0918600908180FF02C0946001C09B7FF6
:1002E0009083E0918500F0918600908181FF02C0AB
:1002F000986001C0977F9083E0918500F09186001F
:10030000908182FF02C0906101C09F7E9083E09146
:100310008500F091860083FF03C08081806202C067
:1003200080818F7D80830895EF92FF920F931F93BA
:10033000CF93DF931F92CDB7DEB7E0918500F091A8
:1003400086009081882311F0906401C09F7B908388
:1003500080918000E82EE694E694E694F12CEE0C71
:10036000FF1C21E830E0E20EF31ED701ED91FC9175
:100370009081877001E010E001C0000F8A95EAF7D4
:10038000102F902B9083862F82958F7069830E9407
:100390006601D701ED91FC91119790810095902312
:1003A0009083ED91FC919081912B90836981862FB0
:1003B0000E946601D701ED91FC91808180238083AA
:1003C000EFECF7E03197F1F700C000000F90DF91FC
:1003D000CF911F910F91FF90EF9008950F931F936E
:1003E000CF93DF93E0918500F09186008291846045
:1003F0008083E0918500F0918600829188608083FF
:10040000E0918500F0918600829180618083E09187
:100410008500F0918600829180628083E091850062
:10042000F091860082918064808320918000E22F89
:10043000E695E695E695F0E0EE0FFF1FEF57FF4FCC
:100440000190F081E02D4291277081E090E0BC01A5
:1004500002C0660F771F2A95E2F7462B4083EFE331
:10046000FCE93197F1F700C00000E0918500F091C0
:10047000860020812F7B208320918000E22FE6954B
:10048000E695E695F0E0EE0FFF1FEF57FF4F019066
:10049000F081E02D3081277001C0880F2A95EAF79E
:1004A00080958323808313E0C1E0D0E080918000B9
:1004B000E82FE695E695E695F0E0EE0FFF1FEF5783
:1004C000FF4F0190F081E02D20818770AE0102C0C6
:1004D000440F551F8A95E2F7242B208383E00E9466
:1004E000660180918000E82FE695E695E695F0E0BC
:1004F000EE0FFF1FEF57FF4F0190F081E02D20819D
:100500008770BE0102C0660F771F8A95E2F7CB01A4
:100510008095822380838FE097E20197F1F700C0F6
:100520000000115019F600918000C02FC695C695A5
:10053000C695D0E0CC0FDD1FCF57DF4FE881F981A2
:100540002081077081E090E0AC0102C0440F551F8C
:100550000A95E2F78A01242B208382E00E9466013B
:10056000E881F98180810095082300838FEC97E072
:100570000197F1F700C0000068E280E00E9494015A
:1005800068E080E00E94940166E080E00E949401AF
:100590006CE080E00E94940161E080E0DF91CF9107
:1005A0001F910F910C9494010F931F93CF93DF939E
:1005B000EC01062F10E00DC0BE01812F0E941F012B
:1005C0000E94EE018FE39CE90197F1F700C0000063
:1005D0001F5F1013F1CFDF91CF911F910F910895FD
:1005E0000F931F93CF93DF93082F000F000F000F7F
:1005F000005CEB0110E0612F600F80E00E9494012D
:10060000699181E00E9494011F5F1830A1F760E8B2
:1006100080E0DF91CF911F910F910C9494011F9373
:10062000CF93DF93EC0110E4612F80E00E949401EE
:10063000FE01649181E00E9494011F5F21961038B1
:1006400099F760E880E0DF91CF911F910C949401BD
:1006500061E080E00E9494018FEC97E00197F1F750
:1006600000C00000089562E080E00C949401682FBF
:1006700081E00C949401CF93DF93EC0102C00E94BF
:10068000370389918111FBCFDF91CF910895E82F36
:10069000862F992787FD909560917F0070E00E94DA
:1006A000F70D982F813011F430E401C030E021E0E3
:1006B000933009F020E040917E00403111F450E584
:1006C00001C054E5529F502D112421E0923009F0D1
:1006D00020E0403111F490E101C094E16E2F6058A8
:1006E000630F650F929F600D112480E00C949401BC
:1006F000E5EFF5E020E030E081918A3A31F42F5FB8
:100700003F4FE03688E0F807B8F3C9010895FC01CF
:10071000680F791F80E048E10FC0219198E0322FE7
:100720003827532F517030FD84278695513009F4B6
:1007300080682695915099F7E617F70771F70895A5
:10074000FB01318120E09081292B803171F4A901D6
:100750004E7F63E0440F551F6A95E1F796812CE0C8
:1007600030E0291B3109240F351F37FF05C03195B3
:1007700021953109A1E001C0A0E0883211F0823258
:1007800069F484818076803231F0803431F08111D7
:1007900005C0287F03C02C7F01C02E7FC90144E023
:1007A000969587954A95E1F76AE0689FA001699F51
:1007B000500D11242F70332760E872E0269FC0018E
:1007C000279F900D369F900D1124A11101C09E5FAF
:1007D0009C01232F332726952695240F351FAA2306
:1007E00019F0319521953109C9018A5D9D4F8930F4
:1007F000974010F020ED37E0C90108950F931F9343
:10080000CF93FB01518140E09081492B803171F4FD
:100810009A012E7FA3E0220F331FAA95E1F796815C
:100820004CE050E0491B5109420F531F57FF05C0D0
:10083000519541955109C1E001C0C0E0883211F0E5
:10084000823269F484818076803231F0803431F0F4
:10085000811105C0487F03C04C7F01C04E7F9A01C3
:1008600074E0369527957A95E1F7A0E1B7E20E940A
:10087000270E8B019C014F70552761E772E0469F60
:10088000C001479F900D569F900D1124080F191F0E
:10089000211D311DCC2339F03095209510950195FF
:1008A0001F4F2F4F3F4FB801C901CF911F910F919B
:1008B0000895FF920F931F93CF93DF93162F072F67
:1008C000F42EBC018EEB0E94F10DC12FD02F03C07E
:1008D0000E94A20D89938C2F811B8F15C8F369E0AC
:1008E00070E0812F902F0E948703882311F083E00E
:1008F00001C080E0DF91CF911F910F91FF9008958B
:10090000AF92BF92CF92DF92EF92FF920F931F931D
:10091000CF93DF938C017B016C01C0E0D0E05B01E1
:1009200081E0A81AB10835C0209719F489E890E051
:100930000CC0CA15DB0521F48DE890E00E94B900D7
:10094000C130D10521F482E990E00E94B900F6019E
:1009500081916F0190E00E94150181E293E00E9475
:10096000B9002097A9F4F8018081803119F487E952
:1009700090E00CC0883219F48DE990E007C0823213
:1009800019F483EA90E002C088EA90E00E94B9007E
:100990002196CE15DF0541F668E070E0C8010E949F
:1009A0008703882319F08EEA90E002C089EB90E07B
:1009B000DF91CF911F910F91FF90EF90DF90CF903B
:1009C000BF90AF900C94B9000F931F93CF93DF9318
:1009D000EC018B01B80188810E94A50D88838150AC
:1009E0008D3F48F4F8018081883239F0803129F058
:1009F000823281F702C081E001C080E0DF91CF91B7
:100A00001F910F910895CF93DF93EC010E94ED0C9D
:100A1000BE0184EB0E94F10D81E00E94470DC82FBA
:100A20000E94ED0C81E0C11101C080E0DF91CF9107
:100A300008951F93CF93DF9300D0CDB7DEB7182F63
:100A400069837A830E94ED0C0E94700C69817A811F
:100A5000882351F084E4113019F00E94F40D02C093
:100A60000E94F10D80E005C084EC90E00E94B90086
:100A700082E00F900F90DF91CF911F91089581E058
:100A80000E94470D91E0811190E0892F0895BF9257
:100A9000CF92DF92EF92FF920F931F93CF93DF934A
:100AA000CDB7DEB727970FB6F894DEBF0FBECDBF28
:100AB0007B01473008F45BC089312CEF92070CF4BE
:100AC00056C08031E7E29E070CF051C097FF06C088
:100AD000919581959109BB24B39401C0B12CCC248C
:100AE000C394D12CCC0EDD1E86016AE070E00E941A
:100AF000F70D805DF80181938F012E2F2C19862F21
:100B0000972F181619068CF3822F992787FD909539
:100B1000E1E0F0E0EC0FFD1FE80FF91FBB2029F02A
:100B20003DE2308390E03EE203C03BE2FACF982FF3
:100B3000F701E90FF11DA1E0B0E0AC0FBD1FA20F5E
:100B4000B11D27FDBA958C918083892F8F5F21502D
:100B500031F4F701E80FF11D30838F5FE8CF27FFF5
:100B6000E6CFF701E80FF11D108280E001C081E0BF
:100B700027960FB6F894DEBF0FBECDBFDF91CF91A1
:100B80001F910F91FF90EF90DF90CF90BF9008954D
:100B90002F923F925F926F927F928F929F92AF922D
:100BA000BF92CF92DF92EF92FF920F931F93CF935A
:100BB000DF93CDB7DEB7AC970FB6F894DEBF0FBEAC
:100BC000CDBF55245A947E0185E2E80EF11C61E701
:100BD000262E62E0362E8E010F5F1F4FB701852D46
:100BE0000E94A50D582EEFEF8E1306C088EE90E000
:100BF0000E94B9008FEF43C1FEEF8F1306C089EF4B
:100C000090E00E94B9008EEF3AC168E070E0C70141
:100C10000E9480048DA1883229F0803119F082323F
:100C200009F026C18DE00E94B5008EEB0E944B0DAD
:100C30005CE1652E712C6C0E7D1E63010E94A20D7D
:100C4000F30181933F01EE15FF05C1F784E091E0C8
:100C50000E94B900612C712C08C0F8E06F16710475
:100C600021F48DE890E00E94B900F60181916F01B6
:100C700090E00E94150181E293E00E94B900FFEF2D
:100C80006F1A7F0A89E06816710439F769E070E02D
:100C9000CE014C960E948703882319F08EEA90E0DB
:100CA00002C089EB90E00E94B9008DE00E94B5007F
:100CB0008C8DBD8CA12C6501C82A88E091E00E9432
:100CC000B9008D2D90E00E941501C60199270E9460
:100CD000150181E293E00E94B9008DA1803119F4E1
:100CE00080E191E018C0883211F08232B1F488A11D
:100CF000982F9076903619F487E191E00CC086FF2A
:100D000003C08EE191E007C085FF03C085E291E05A
:100D100002C08EE291E00E94B90081E293E00E945D
:100D2000B9002DA18C8D9D8C812C6401C82A2031A5
:100D300079F4C6018E7F33E0880F991F3A95E1F769
:100D40003AA14CE0C42ED12CC31AD108C80ED91E2A
:100D5000D7FE05C0D194C194D10891E001C090E0C4
:100D6000283211F0223289F488A1282F20762036EB
:100D700061F086FF03C0E894C0F807C085FF03C098
:100D8000ECEFCE2202C0F8EFCF22360184E0769459
:100D900067948A95E1F78FE0C822DD24992311F04A
:100DA0008DE201C08BE20E94B500C30199270E9429
:100DB000D3008EE995E00E94B9004AE050E0B80106
:100DC000C29CC001C39C900DD29C900D11240E9426
:100DD000690EC12CD12C07C087E393E00E94B900B3
:100DE000EFEFCE1ADE0AF80101900020E9F7319703
:100DF000E01BF10B84E090E08E1B9F0BC816D90618
:100E000058F3C8010E94B90080E592E00E94B90041
:100E1000BE01645E7F4F8DA10E94A0036C01803DE6
:100E2000F7E09F0719F485E391E01CC081E491E0AD
:100E30000E94B900C6010E94D30089E491E00E949B
:100E4000B9004AE0BE016E5E7F4FC6010E944705B1
:100E500082E591E00E94B900CE0142960E94B9005D
:100E600089E591E00E94B90088E192E00E94B90012
:100E70005110B4CE88E192E00E94B90080E0AC96B7
:100E80000FB6F894DEBF0FBECDBFDF91CF911F919B
:100E90000F91FF90EF90DF90CF90BF90AF909F9019
:100EA0008F907F906F905F903F902F900895DF928A
:100EB000EF92FF920F931F93CF93DF93CDB7DEB7DF
:100EC00029970FB6F894DEBF0FBECDBF8C017B0112
:100ED0000E94ED0C49E0BE016F5F7F4FC8010E9488
:100EE0005904D82E81110AC0BE016F5F7F4FF801EF
:100EF00080810E94A003F701918380838D2D299624
:100F00000FB6F894DEBF0FBECDBFDF91CF911F911A
:100F10000F91FF90EF90DF900895EF92FF920F9363
:100F20001F93CF93DF93CDB7DEB729970FB6F89411
:100F3000DEBF0FBECDBFE82E8B0149E0BE016F5F63
:100F40007F4F80E090E00E945904F82E811109C083
:100F5000BE016F5F7F4F8E2D0E94A003F801918329
:100F600080838F2D29960FB6F894DEBF0FBECDBFBC
:100F7000DF91CF911F910F91FF90EF900895DF9235
:100F8000EF92FF920F931F93CF93DF93CDB7DEB70E
:100F900029970FB6F894DEBF0FBECDBF8C017B0141
:100FA0000E94ED0C49E0BE016F5F7F4FC8010E94B7
:100FB0005904D82E81110CC0BE016F5F7F4FF8011C
:100FC00080810E94FE03F701608371838283938393
:100FD0008D2D29960FB6F894DEBF0FBECDBFDF91E1
:100FE000CF911F910F91FF90EF90DF900895EF92B6
:100FF000FF920F931F93CF93DF93CDB7DEB729975F
:101000000FB6F894DEBF0FBECDBFE82E8B0149E0CE
:10101000BE016F5F7F4F80E090E00E945904F82E80
:1010200081110BC0BE016F5F7F4F8E2D0E94FE03AA
:10103000F80160837183828393838F2D29960FB685
:10104000F894DEBF0FBECDBFDF91CF911F910F91FE
:10105000FF90EF900895AF92BF92CF92DF92EF9200
:10106000FF920F931F93CF93DF93CDB7DEB76A97AD
:101070000FB6F894DEBF0FBECDBF7A012A3008F458
:101080008EC0613C2DEB720720EF82072FEF920795
:101090000CF485C06038E6E97E07E8E98E07910523
:1010A0000CF07DC097FF0AC0909580957095619572
:1010B0007F4F8F4F9F4FDD24D39401C0D12C8E01E1
:1010C0000F5F1F4FC02EE8E0AE2EB02EBC182AE0F6
:1010D00030E040E050E00E940B0E2B8B3C8B4D8BA0
:1010E0005E8B6F8B788F898F9A8FFE017396DE01EE
:1010F0001B968A2D01900D928A95E1F78F85805D70
:10110000F80181938F012E2F2C196B857C858D859D
:101110009E851616170618061906BCF2822F8250F5
:10112000823048F4FE01E20FF11D27FDFA9580E3BD
:1011300081832B2D2E5F822F992787FD9095E1E0EB
:10114000F0E0EC0FFD1FE80FF91FDD2029F03DE274
:10115000308390E03EE203C03BE2FACF982FF701E4
:10116000E90FF11DA1E0B0E0AC0FBD1FA20FB11D52
:1011700027FDBA958C918083892F8F5F2150233072
:1011800031F4F701E80FF11D30838F5FE7CF27FFC0
:10119000E5CFF701E80FF11D108280E001C081E08A
:1011A0006A960FB6F894DEBF0FBECDBFDF91CF9128
:1011B0001F910F91FF90EF90DF90CF90BF90AF9075
:1011C0000895FF920F931F93CF93DF93EC01162F97
:1011D000F42E022F0E94ED0C0E94700C882399F0CF
:1011E000BE018EE40E94F10D812F0E944B0D8F2DC8
:1011F0000E944B0D9881983211F0923251F4802F59
:101200000E944B0D06C08EE591E00E94B90081E07E
:1012100001C080E0DF91CF911F910F91FF90089561
:101220000F931F93CF93DF9300D01F92CDB7DEB7FC
:101230008C014B8369837A830E94ED0C0E94700CB1
:101240004B8169817A81882351F0C8010F900F90FA
:101250000F90DF91CF911F910F910C94590488E862
:1012600091E00E94B90081E00F900F900F90DF9104
:10127000CF911F910F9108951F93CF93DF9300D0CB
:10128000CDB7DEB7182F69837A830E94ED0C0E94D8
:10129000700C69817A81882399F088E4113019F003
:1012A0000E94F40D02C00E94F10D8FE19EE40197AF
:1012B000F1F700C00000113049F00E94D80C06C0C0
:1012C00081EB91E00E94B90082E001C080E00F90C4
:1012D0000F90DF91CF911F910895CF93DF93EC0191
:1012E0000E94ED0C0E94700C8823C1F0BE0188EBB7
:1012F0000E94F10DCEEF01C0C92FCF3F21F414C0E1
:10130000C11112C008C081E00E94470D9C2F91506E
:10131000882391F3F5CF8AED91E002C087EF91E049
:101320000E94B90081E001C080E0DF91CF91089573
:10133000CF93DF93EC0149E0BC0186EC95E00E947D
:1013400010098AE192E00E94B9008A8190E00E942F
:10135000D30081E492E00E94B9008B8190E00E946A
:10136000D30082EE94E0DF91CF910C94B9000F93FB
:101370001F93CF93DF93CDB7DEB72A970FB6F894BC
:10138000DEBF0FBECDBF8C010E94D30085E492E08A
:101390000E94B9004AE0BE016F5F7F4FC8010E9402
:1013A0004705CE0101960E94B9008FE492E00E94A9
:1013B000B9002A960FB6F894DEBF0FBECDBFDF91FD
:1013C000CF911F910F910895FF920F931F93CF9389
:1013D000DF93CDB7DEB729970FB6F894DEBF0FBE07
:1013E000CDBF83E592E00E94B9000E94ED0C8FEF23
:1013F000898706EC15E0F12C25C0BE016F5F7F4F99
:10140000CE0109960E94E40489858F3F19F480E794
:1014100092E004C08E3F29F482E892E00E94B90075
:1014200017C0FE01319620E030E08191D801A20F73
:10143000B31F8C932F5F3F4F28303105B1F7F394E2
:10144000085F1F4F8985882319F085E0F812D5CFF2
:101450008F2D29960FB6F894DEBF0FBECDBFDF915A
:10146000CF911F910F91FF900895CF93DF93CDB748
:10147000DEB760970FB6F894DEBF0FBECDBF0E94F7
:1014800051008EE892E00E94B9008EE892E00E943E
:10149000B9002FEF87EA91E6215080409040E1F7B4
:1014A00000C0000022E04AE350E06BE370E089E313
:1014B00090E00E94310D83E992E00E94B900EFEFC5
:1014C000F9E628E1E150F0402040E1F700C00000DB
:1014D00083EC92E00E94B9000E94E409B82E90E0EB
:1014E0000E94D3008FEE92E00E94B90000E010E06D
:1014F0001EC08FE093E00E94B90078010F5F1F4F7C
:10150000C8010E94D3008DE392E00E94B900C70198
:1015100063E0880F991F6A95E1F768E070E08A53ED
:101520009A4F0E94800482EE94E00E94B9000B154D
:1015300000F306EC15E0E12CF12C3CC08AE193E0CD
:101540000E94B90067018FEFE81AF80AC7010E94EC
:10155000D30083E293E00E94B900F80180818031DA
:1015600019F48AE293E007C0823219F489E393E028
:1015700002C080E493E00E94B90088E493E00E94F6
:10158000B900C60153E0880F991F5A95E1F78A53B5
:101590009A4F0E940305811103C083E593E002C0C6
:1015A0008CE593E00E94B90087E693E00E94B900C1
:1015B000085F1F4FEB1410F2BB2009F454C082E700
:1015C00093E00E94B900CE0101960E9498090B8118
:1015D0001C811F5F0F5F20E6412F602F86EC95E096
:1015E0000E94E10883EA93E00E94B900CE010196CF
:1015F0000E94980966EC75E080E00E943C0989EC45
:1016000093E00E94B90020E640E060E086EC95E0BF
:101610000E94E1088FEE93E00E94B900CE0101968E
:101620000E94980986EC95E00E946D0982E194E0A1
:101630000E94B90049E0BE016F5F7F4F86EC95E0E4
:101640000E9410098B81081306C08C81181303C0F7
:101650008DE394E002C082E594E00E94B900CE01DF
:1016600001960E949809FFEF23E284EFF150204099
:101670008040E1F700C0000091E0B91222C082E68C
:1016800094E00E94B9001091C60560E070E080E02F
:101690000E941905EFE7FFE422E1E150F04020400D
:1016A000E1F700C00000BE01615F7F4F812F0E9403
:1016B0008D078F8598890E94B70982EE94E00E9479
:1016C000B900AA24A394B110A12C8DEA94E00E9441
:1016D000B900DB2C41C0ED2CF12C870143E0000F59
:1016E000111F4A95E1F702541A4FB80180E00E9499
:1016F000190581112BC08FE79FE4E2E181509040F2
:10170000E040E1F700C000008AE193E00E94B900E8
:10171000C7010E94D30085EE94E00E94B900BE018B
:10172000615F7F4FC8010E945707811105C08F85F7
:1017300098890E94B70905C089EE94E00E94B9001B
:10174000A39482EE94E00E94B90005C086E095E083
:101750000E94B900A394DA94D110BDCF8AE295E03B
:101760000E94B90060E070E080E00E9419058111DC
:1017700084C0FFE72FE482E1F15020408040E1F790
:1017800000C00000E12CF12C2CC08AE193E00E9403
:10179000B90087019FEFE91AF90AC7010E94D30037
:1017A00085EE94E00E94B900C80133E0880F991FCC
:1017B0003A95E1F7BE01615F7F4F8A539A4F0E94CD
:1017C0005707811105C08F8598890E94B70905C008
:1017D00089EE94E00E94B900A39482EE94E00E9406
:1017E000B900EB1490F200E010E043C08AE193E00E
:1017F0000E94B90078010F5F1F4FC8010E94D300FB
:1018000085EE94E00E94B900C70123E0880F991F7C
:101810002A95E1F7BE01655F7F4F8A539A4F0E9478
:10182000BF0781111DC0CB84DC84ED84FE84C70119
:10183000B6010E94F10082E695E00E94B9002AE01C
:10184000AE014F5F5F4FC701B6010E942B08CE016A
:1018500001960E94B9008FE492E00E94B90005C091
:1018600089EE94E00E94B900A39482EE94E00E9475
:10187000B9000B1508F4BACF05C086E095E00E94C8
:10188000B900A3948BE695E00E94B90060E070E097
:1018900080E00E941905EFE7FFE422E1E150F0400B
:1018A0002040E1F700C000000E94C805AA2071F0A6
:1018B0008EE795E00E94B9000E94E409B82E90E0FE
:1018C0000E94D30080EA95E00E94B9008FEF9DE36B
:1018D000E9E481509040E040E1F700C00000F1CE23
:1018E000E091F105F091F20590818091F005892356
:1018F0000895E091EE05F091EF0580819091F0055B
:10190000892B8083E091F305F091F405808190911B
:10191000F005892B808308951F93CF93DF931F9247
:10192000CDB7DEB71FB7F894E091F305F091F40559
:1019300090812091F005922B908395E09A95F1F794
:101940000000882351F0E091F305F091F405208127
:101950009091F005909592239083E0E2EA95F1F75B
:10196000E091F105F091F20590812091F00592232C
:1019700009F480E0F5E7FA95F1F70000E091F3054E
:10198000F091F40520819091F00590959223908339
:10199000662321F089830E94790C89811FBF9AE117
:1019A0009A95F1F700C00F90DF91CF911F910895A4
:1019B000E091F305F091F40590818091F005809518
:1019C00089238083E091EE05F091EF05908180916D
:1019D000F0058095892380830895E091EE05F091CC
:1019E000EF0590818091F005809589238083E091B7
:1019F000F305F091F40580819091F005892B8083A7
:101A00008FEB93E00197F1F700C000009FB7F894C7
:101A1000E091F305F091F40520818091F005809527
:101A200082238083EAEAEA95F1F700C0E091F105AC
:101A3000F091F20520818091F0059FBFEFE3F3E084
:101A40003197F1F700C00000E091F105F091F20547
:101A500090813091F005932311F08223089581E065
:101A600008955093F4054093F3057093EF05609348
:101A7000EE059093F2058093F10581E090E001C0BE
:101A8000880F2A95EAF78093F0050C94ED0C60E03E
:101A900081700C948C0CCF93DF93C82FD8E08C2FDF
:101AA00081700E94470DC6958111C068D150B9F769
:101AB0008C2FDF91CF910895CF93DF93C82FD8E07B
:101AC0008C2F8170D13011F060E001C061E00E9484
:101AD0008C0CC6958111C068D15091F78C2FDF9185
:101AE000CF910895EF92FF920F931F93CF93DF93BF
:101AF000F82EEB01E42E0E94ED0C209769F085E5AD
:101B00000E944B0D8E01085F1F4F89910E944B0D63
:101B1000C017D107D1F703C08CEC0E944B0D8F2D5D
:101B2000EE2041F0DF91CF911F910F91FF90EF9048
:101B30000C945C0DDF91CF911F910F91FF90EF906E
:101B40000C944B0D8FEF0C944B0DDF92EF92FF92A4
:101B50000F931F93CF93DF93E82EEB010E94ED0CC0
:101B6000811131C080EF0E944B0DF12C10E498EFF1
:101B7000D92ED10E81E00E94470D082F81E00E94EE
:101B8000470D882319F0002369F020C001110AC015
:101B90001E1530F0888180FF05C0E11201C002C02F
:101BA000F12E01E0802F0E94470D9881969501113A
:101BB00001C001C09068988311501D11DBCF2196A0
:101BC0001111D5CF05C0FF24FA9402C08EEFF82E74
:101BD0008F2DDF91CF911F910F91FF90EF90DF90AC
:101BE000089540E00C94720D41E00C94720D97FB47
:101BF000072E16F4009407D077FD09D00E94330E0B
:101C000007FC05D03EF4909581959F4F08957095FF
:101C100061957F4F0895052E97FB16F4009407D029
:101C200057FD0DD00E94470E07FC09D07EF4909519
:101C30008095709561957F4F8F4F9F4F0895509578
:101C40004095309521953F4F4F4F5F4F0895A29F8C
:101C5000B001B39FC001A39F01D0B29F700D811D41
:101C60001124911D0895AA1BBB1B51E107C0AA1F97
:101C7000BB1FA617B70710F0A61BB70B881F991F2D
:101C80005A95A9F780959095BC01CD010895A1E2E0
:101C90001A2EAA1BBB1BFD010DC0AA1FBB1FEE1FE6
:101CA000FF1FA217B307E407F50720F0A21BB30B31
:101CB000E40BF50B661F771F881F991F1A9469F7AD
:101CC00060957095809590959B01AC01BD01CF0109
:101CD0000895FB019F01E8944230C4F04532B4F40A
:101CE0004A3029F497FB1EF4909581959F4F642FFD
:101CF00077270E94330E805D8A330CF0895D8193D3
:101D0000CB010097A1F716F45DE251931082C9014F
:101D10000C94BE0EFA01CF93FF93EF93223044F15F
:101D2000253234F5C22FE894CA3049F497FB3EF4CB
:101D300090958095709561957F4F8F4F9F4F2C2F79
:101D4000332744275527FF93EF930E94470EEF91C7
:101D5000FF91605D6A330CF0695D6193B901CA015E
:101D6000605070408040904051F716F4CDE2C1932E
:101D700010828F919F91CF910C94BE0EDC01FC01DB
:101D8000672F71917723E1F7329704C07C916D93AF
:101D900070836291AE17BF07C8F30895F894FFCF20
:101DA00079203D20302E33313837785E32202B2099
:101DB0003278202D203700000000000000001402BF
:101DC000063B0038003500320046433A0043524398
:101DD0003A00534E3A200028313853290028313830
:101DE000422900283232290028203F2029002043A0
:101DF0005243204641494C200020435243204F2E5D
:101E00004B2E2000445331385832305F7374617266
:101E1000745F6D6561733A2053686F727420436913
:101E20007263756974210D004E6F2053656E736F78
:101E30007220666F756E640D004275732045727274
:101E40006F720D0053503A0020545F7261773D006D
:101E50005332302F3039004232302F31320042328B
:101E6000302F313100204232302F313020004232C9
:101E7000302F3039002A20494E56414C4944202AFF
:101E80000020636F6E763A20002064656369B0437A
:101E9000200020666D743A200020B0432000445397
:101EA00031385832305F77726974655F736372617D
:101EB0007463687061643A2053686F727420436978
:101EC0007263756974210D00445331385832305FA4
:101ED000726561645F736372617463687061643AB0
:101EE0002053686F72742043697263756974210DA1
:101EF00000445331385832305F636F70795F7363D9
:101F000072617463687061643A2053686F72742000
:101F100043697263756974210D0044533138583236
:101F2000305F726563616C6C5F45323A2074696D35
:101F3000656F7574210D00445331385832305F722B
:101F40006563616C6C5F45323A2053686F72742030
:101F500043697263756974210D0054482F544C20F5
:101F6000696E2073637261746368706164206F6668
:101F70002073656E736F722031206E6F77203A2068
:101F800000202F20002064656369B0432C200020CE
:101F9000B043000D0A5363616E6E696E672042752F
:101FA0007320666F7220445331385832300D0A0066
:101FB0004E6F2053656E736F7220666F756E640D81
:101FC0000A00427573204572726F720D0A00445503
:101FD0005041000D0A4453313858323020312D57CA
:101FE0006972652D5265616465722044656D6F206C
:101FF0006279204D617274696E2054686F6D6173EF
:102000000D0A002D2D2D2D2D2D2D2D2D2D2D2D2D70
:102010002D2D2D2D2D2D2D2D2D2D2D2D2D2D2D2DF0
:102020002D2D2D2D2D2D2D2D2D2D2D2D2D2D00201A
:10203000445331385832302053656E736F722873B1
:102040002920617661696C61626C653A0D0A002332
:1020500020696E20427573203A0053656E736F726B
:10206000232000206973206120004453313853320B
:10207000302F44533138323000445331383232003B
:1020800044533138423230002077686963682069F0
:10209000732000706172617369746500657874659E
:1020A000726E616C6C790020706F77657265640D7B
:1020B0000A000D0A445331387832302045455052D9
:1020C0004F4D20737570706F727420746573742037
:1020D000666F722066697273742073656E736F72B7
:1020E0000D0A0054482B3120616E6420544C2B3172
:1020F000207772697474656E20746F2073637261E7
:102100007463687061640D0A00736372617463685C
:1021100070616420636F7069656420746F2044533C
:10212000313878323020454550524F4D0D0A005419
:102130004820616E6420544C20696E207363726184
:102140007463687061642073657420746F20300D4F
:102150000A004453313878323020454550524F4DB3
:1021600020636F70696564206261636B20746F2007
:10217000736372617463687061640D0A005448206F
:10218000616E6420544C2076657269666965640DE1
:102190000A00766572696679206661696C65640D0E
:1021A0000A000D0A5468657265206973206F6E6CB1
:1021B00079206F6E652073656E736F72202D3E20DF
:1021C00044656D6F206F6620224453313858323099
:1021D0005F726561645F6465636963656C7369758B
:1021E000735F73696E676C65223A0D0A000D0A43CE
:1021F0006F6E766572745F5420616E642052656103
:10220000642053656E736F722062792053656E731C
:102210006F72202872657665727365206F726465CF
:1022200072290D0A00203D2000435243204572725E
:102230006F7220286C6F737420636F6E6E656374A9
:10224000696F6E3F29005374617274206D6561730C
:102250002E206661696C6564202873686F72742033
:10226000636972637569743F29000D0A436F6E7666
:102270006572745F5420666F7220616C6C205365C8
:102280006E736F727320616E6420526561642053B7
:10229000656E736F722062792053656E736F720D75
:1022A0000A0020B043652D342C20000D0A566572BB
:1022B000626F7365206F75747075740D0A002A2A39
:1022C0002A2070726F626C656D73202D20726573A9
:1022D00063616E6E696E6720627573202E2E2E000C
:1022E0000D0A20445331385832302053656E736FD5
:1022F0007228732920617661696C61626C650D0AD0
:022300000000DB
:00000001FF
