:100000000C942A000C9447000C9447000C94470071
:100010000C9447000C9447000C9447000C94470044
:100020000C9447000C9447000C9447000C94470034
:100030000C9447000C9447000C9447000C94470024
:100040000C9447000C9447000C9447000C94470014
:100050000C94470011241FBECFE5D8E0DEBFCDBF12
:1000600011E0A0E6B0E0E8E1F3E002C005900D92F7
:10007000A230B107D9F721E0A2E0B1E001C01D92A2
:10008000AC32B207E1F70E9482010C948A010C9411
:100090000000E82FA4E2B1E080E09C919F3F41F492
:1000A00089E0E89FF0011124E859FF4F84910895F9
:1000B000ED93E11104C08F5F883079F7F1CF089597
:1000C0009FEF97BB88BB949A00C000C09498089596
:1000D000939A929800C000C017BA949A82E08A95C9
:1000E000F1F700C080B3949808950E94680087FDDE
:1000F000FCCF0895CF93DF931F92CDB7DEB78983EE
:100100000E9475009398929A00C000C089810F9058
:10011000DF91CF910C946000CF93DF931F92CDB706
:10012000DEB789830E94750092B3937F92BB00C0B3
:1001300000C089810F90DF91CF910C9460001092E4
:10014000020140E250E060E270E083E091E00C9454
:1001500083010E949F0082B3837F82BB00C000C0E6
:1001600080E30E9460008FE293E40197F1F700C002
:10017000000080E30E9460008FE193E00197F1F7B7
:1001800000C0000080E30E94600088E30E948C00B1
:1001900088E00E948C0081E00E948C0086E00E9432
:1001A0008C000C94750080932301089580910201C6
:1001B000803110F490E001C090E48F70890F806866
:1001C0000C948C000F931F93CF93DF9348E050E083
:1001D0006FEF70E084E291E00E94830110E0C3E0E1
:1001E000D1E009910058003268F4802F0E94490044
:1001F000883040F0183028F4E12FF0E0EC5DFE4F3D
:1002000000831F5F81E0C332D80759F7812FDF9148
:10021000CF911F910F910895DF92EF92FF920F936C
:100220001F93CF93DF9380E40E948C0004E211E0DF
:1002300089E0D82EF801C1918F01CF3FA9F0DC9E53
:10024000E0011124C05ADF4F7E01F8E0EF0EF11CEF
:10025000FE01219684910E947A00CE15DF05C1F738
:1002600081E00C32180731F7DF91CF911F910F9188
:10027000FF90EF90DF900895DF92EF92FF920F933F
:100280001F93CF93DF93C3E0D1E0D12CD11002C0F4
:1002900080E001C080E480680E948C007E0180E1E3
:1002A000E80EF11C8E01F80181918F01982F905872
:1002B000903218F4892F0E9449000E947A000E158E
:1002C0001F0589F76096D394F2E0DF12DFCFDF914C
:1002D000CF911F910F91FF90EF90DF9008950E94B2
:1002E000E2000E940C0180912301847088600E94CA
:1002F0008C000E943C010E94D600809123018860FE
:100300000C948C00FFCFDC0101C06D934150504034
:08031000E0F70895F894FFCF17
:1003180000000E010F110F026102040E1010110EE1
:10032800006300000E111F100E02650C0406040C79
:10033800040E006C02041619111111006E02040E4D
:100348001111110E006F02040E100E011E0073022F
:10035800041F0204081F007A04001F0204081F007B
:100368007A0E11111F1111110241020E15101010F1
:10037800110E431F10101E10101F024510101418E4
:1003880010101F004C02151119151311114E020EF1
:1003980015111111110E4F020F14100E01011E53E9
:1003A800021F05020408101F5A041F010204081046
:0203B8001F5ACA
:00000001FF
