S0140000414E445F5243355F53454E442E737265638B
S11300000C942A000C943C000C943C000C943C008E
S11300100C943C000C943C000C943C000C943C006C
S11300200C943C000C943C000C9497000C943C0001
S11300300C943C000C943C000C943C000C943C004C
S11300400C943C000C943C000C943C000C943C003C
S11300500C943C0011241FBECFE5D8E0DEBFCDBF19
S113006010E0A0E6B0E001C01D92A436B107E1F7AC
S11300700E943E000C94DA000C940000FF920F934F
S11300801F93CF93DF930E9465007894FF2400E0D0
S113009010E0C0E9D1E08F2D602F412F0E94700045
S11300A01F5F103429F40F5F003209F400E010E000
S11300B080E197E2FE013197F1F70197D9F780E0EB
S11300C0FF2009F481E0F82EE6CF83B7886083BF70
S11300D08EED8CBF83B7816083BF959A8D9A089506
S11300E09EE09093600090E081709070982F882734
S11300F0990F990F990F906370E06F71707026E0FB
S1130100660F771F2A95E1F7862B972B50E04F73E4
S11301105070842B952B909363008093620089B771
S1130120826089BF09B601FCFDCF959A08951F929C
S11301300F920FB60F9211242F938F939F93809158
S11301406000882351F1209161002F5F20936100AA
S1130150809162009091630095FF03C0203418F4ED
S113016007C0203428F482B390E2892782BB01C0FF
S1130170959A2038B9F41092610080916000815002
S1130180809360008091620090916300880F991FB2
S1130190909363008093620005C089B78D7F89BF07
S11301A0109261009F918F912F910F900FBE0F902D
S10B01B01F901895F894FFCF8D
S9030000FC
