:100000000C9453000C945D000C945D000C945D0006
:100010000C945D000C945D000C945D000C945D00EC
:100020000C945D000C945D000C945D000C945D00DC
:100030000C945D000C945D000C945D000C945D00CC
:100040000C945D000C945D000C945D000C945D00BC
:100050000C945D000C945D000C945D00123A62619A
:1000600089398A1038605F8737880E365E5D85353E
:10007000860C345C5B8333840A325A59813182089E
:100080003058577F2F80062E56557D2D7E032B53DB
:10009000527A2A7B012951507828793F065B4F66B6
:1000A0006D7D077F6F0011241FBECFEFD4E0DEBF50
:1000B000CDBF0E94A3000C94E1020C94000061E00B
:1000C00084E50E94D00061E086E00E94D00061E0FB
:1000D0008EE20E94D00061E08DE70E94D00061E0D6
:1000E0008DE20E94D00061E08EE70E94D00061E0C6
:1000F0008FE70E94D00061E08FE20E94D00061E0B3
:100100008AE00E94D00061E089E50E94D00061E0B1
:1001100081E80E94D00061E081E30E94D00061E0AC
:1001200082E80E94D00061E08CE00E94D00061E093
:100130008BE50E94D00061E083E80E94D00061E07E
:1001400083E30C94D0000E94C300C0E0D0E002E33F
:1001500010E0BE0180E090E00E942A01CE01B801CB
:100160000E948F026170772781E10E94D0000E9477
:100170005F0029E989E591E0215080409040E1F756
:1001800000002196E6CF84E78093E50086E7809320
:10019000E60088E48093E70080E88093E400089517
:1001A000E82FE695E695E695F0E0E451FF4F87707D
:1001B000908121E030E0082E01C0220F0A94EAF776
:1001C000662311F0292B02C020952923208308954E
:1001D000EF92FF920F931F93CF93DF93693008F054
:1001E00068E097E0699F80011124C0E0D0E08A3088
:1001F000E8F4E82FF0E0E556FF4FE491EE2EF12C05
:10020000FE01E00FF11FE45AFF4F8491B7010C2E5D
:1002100002C0759567950A94E2F7617077270E948E
:10022000D0002196C730D10559F70DC0FE01E00F6F
:10023000F11FE45AFF4F849160E00E94D0002196A4
:10024000C730D10599F7DF91CF911F910F91FF90A2
:10025000EF900895CF92DF92EF92FF92CF93DF93CA
:100260002091EC002F7E2093EC00603836E9730774
:1002700038E9830791054CF020612093EC00C0E041
:100280006FE776E988E990E01CC097FF17C090956A
:100290008095709561957F4F8F4F9F4F603432E40A
:1002A00073073FE0830791055CF020612093EC0029
:1002B000CEE76FE372E48FE090E003C0C0E001C0DE
:1002C000CEE720E432E44FE050E00E94C5026B012B
:1002D0007C01222331F066E0822F0E94E800D1E009
:1002E00007C0C111CEE766E08FEF0E94E800D0E0C2
:1002F000C701B60120EA36E841E050E00E94C5029D
:100300006B017C01822F211102C0DD2329F065E001
:100310000E94E800D1E006C0C111C0E865E08FEF9F
:100320000E94E800C701B60120E137E240E050E05A
:100330000E94C5026B017C01822F211102C0DD23C6
:1003400029F064E00E94E800D1E006C0C111C2E8D3
:1003500064E08FEF0E94E800C701B60128EE33E0A9
:1003600040E050E00E94C5026B017C01822F211108
:1003700002C0DD2329F063E00E94E800D1E006C05E
:10038000C111C4E863E08FEF0E94E800C701B60125
:1003900024E630E040E050E00E94C5026B017C01A1
:1003A000822F211102C0DD2329F062E00E94E800C3
:1003B000D1E006C0C111C6E862E08FEF0E94E800FC
:1003C000C701B6012AE030E040E050E00E94C502DB
:1003D000822FF62E211102C0DD2311F061E004C04E
:1003E000C111C8E861E08FEF0E94E80060E08F2D46
:1003F0000E94E800CC2351F061E08C2FDF91CF9177
:10040000FF90EF90DF90CF900C94D000DF91CF91D0
:10041000FF90EF90DF90CF900895CF93DF931F92DE
:10042000CDB7DEB7843608F083E66AE00E94830227
:10043000882329F068E099830E94E800998167E0A9
:10044000892F0F90DF91CF910C94E8009B01AC01B4
:1004500083E0220F331F441F551F8A95D1F760E0B8
:1004600070EC88EA90E00E94A30221503109832FAA
:1004700099278F7099278093C5002093C40082E04C
:100480008093C00086E08093C20088E18093C10021
:1004900008959091C00095FFFCCF8093C600089509
:1004A0006115710549F4DC010D900020E9F7BD01EB
:1004B00061507109681B790BFC01680F791F07C037
:1004C0008091C00085FFFCCF81918093C600E61724
:1004D000F707B1F708958091C00087FFFCCF8091A6
:1004E000C6000895FC01680F791F80E008C0909154
:1004F000C00097FFFCCF9091C60091938927E61723
:10050000F707A9F70895991B79E004C0991F96177A
:1005100008F0961B881F7A95C9F780950895AA1B45
:10052000BB1B51E107C0AA1FBB1FA617B70710F0DE
:10053000A61BB70B881F991F5A95A9F78095909510
:10054000BC01CD010895A1E21A2EAA1BBB1BFD011F
:100550000DC0AA1FBB1FEE1FFF1FA217B307E407A2
:10056000F50720F0A21BB30BE40BF50B661F771FFA
:10057000881F991F1A9469F76095709580959095DA
:100580009B01AC01BD01CF010895052E97FB16F428
:10059000009407D057FD0DD00E94A30207FC09D09C
:1005A0007EF490958095709561957F4F8F4F9F4F0A
:1005B000089550954095309521953F4F4F4F5F4F8F
:0605C0000895F894FFCF3E
:00000001FF
